{
  "contractName": "AuctionFactory",
  "abi": [
    {
      "constant": true,
      "inputs": [
        {
          "name": "",
          "type": "uint256"
        }
      ],
      "name": "auctions",
      "outputs": [
        {
          "name": "",
          "type": "address"
        }
      ],
      "payable": false,
      "stateMutability": "view",
      "type": "function"
    },
    {
      "inputs": [],
      "payable": false,
      "stateMutability": "nonpayable",
      "type": "constructor"
    },
    {
      "anonymous": false,
      "inputs": [
        {
          "indexed": false,
          "name": "auctionContract",
          "type": "address"
        },
        {
          "indexed": false,
          "name": "owner",
          "type": "address"
        },
        {
          "indexed": false,
          "name": "numAuctions",
          "type": "uint256"
        },
        {
          "indexed": false,
          "name": "allAuctions",
          "type": "address[]"
        }
      ],
      "name": "AuctionCreated",
      "type": "event"
    },
    {
      "constant": false,
      "inputs": [
        {
          "name": "bidIncrement",
          "type": "uint256"
        },
        {
          "name": "startBlock",
          "type": "uint256"
        },
        {
          "name": "endBlock",
          "type": "uint256"
        },
        {
          "name": "saleItem",
          "type": "string"
        }
      ],
      "name": "createAuction",
      "outputs": [],
      "payable": false,
      "stateMutability": "nonpayable",
      "type": "function"
    },
    {
      "constant": true,
      "inputs": [],
      "name": "allAuctions",
      "outputs": [
        {
          "name": "",
          "type": "address[]"
        }
      ],
      "payable": false,
      "stateMutability": "view",
      "type": "function"
    }
  ],
  "bytecode": "0x6060604052341561000f57600080fd5b6115678061001e6000396000f300606060405260043610610057576000357c0100000000000000000000000000000000000000000000000000000000900463ffffffff16806315cda1af1461005c5780631bbcd4a5146100d4578063571a26a01461013e575b600080fd5b341561006757600080fd5b6100d2600480803590602001909190803590602001909190803590602001909190803590602001908201803590602001908080601f016020809104026020016040519081016040528093929190818152602001838380828437820191505050505050919050506101a1565b005b34156100df57600080fd5b6100e761040a565b6040518080602001828103825283818151815260200191508051906020019060200280838360005b8381101561012a57808201518184015260208101905061010f565b505050509050019250505060405180910390f35b341561014957600080fd5b61015f600480803590602001909190505061049e565b604051808273ffffffffffffffffffffffffffffffffffffffff1673ffffffffffffffffffffffffffffffffffffffff16815260200191505060405180910390f35b600033858585856101b06104dd565b808673ffffffffffffffffffffffffffffffffffffffff1673ffffffffffffffffffffffffffffffffffffffff16815260200185815260200184815260200183815260200180602001828103825283818151815260200191508051906020019080838360005b83811015610231578082015181840152602081019050610216565b50505050905090810190601f16801561025e5780820380516001836020036101000a031916815260200191505b509650505050505050604051809103906000f080151561027d57600080fd5b90506000805480600101828161029391906104ed565b9160005260206000209001600083909190916101000a81548173ffffffffffffffffffffffffffffffffffffffff021916908373ffffffffffffffffffffffffffffffffffffffff160217905550507f0d314047f0d1e39dbbd521f0844c35332083a15926b906540faa68e1a4262b6881336000805490506000604051808573ffffffffffffffffffffffffffffffffffffffff1673ffffffffffffffffffffffffffffffffffffffff1681526020018473ffffffffffffffffffffffffffffffffffffffff1673ffffffffffffffffffffffffffffffffffffffff1681526020018381526020018060200182810382528381815481526020019150805480156103f257602002820191906000526020600020905b8160009054906101000a900473ffffffffffffffffffffffffffffffffffffffff1673ffffffffffffffffffffffffffffffffffffffff16815260200190600101908083116103a8575b50509550505050505060405180910390a15050505050565b610412610519565b600080548060200260200160405190810160405280929190818152602001828054801561049457602002820191906000526020600020905b8160009054906101000a900473ffffffffffffffffffffffffffffffffffffffff1673ffffffffffffffffffffffffffffffffffffffff168152602001906001019080831161044a575b5050505050905090565b6000818154811015156104ad57fe5b90600052602060002090016000915054906101000a900473ffffffffffffffffffffffffffffffffffffffff1681565b604051610fe98061055383390190565b81548183558181151161051457818360005260206000209182019101610513919061052d565b5b505050565b602060405190810160405280600081525090565b61054f91905b8082111561054b576000816000905550600101610533565b5090565b9056006060604052341561000f57600080fd5b60405162000fe938038062000fe983398101604052808051906020019091908051906020019091908051906020019091908051906020019091908051820191905050818310151561005f57600080fd5b4383101561006c57600080fd5b60008573ffffffffffffffffffffffffffffffffffffffff16141561009057600080fd5b846000806101000a81548173ffffffffffffffffffffffffffffffffffffffff021916908373ffffffffffffffffffffffffffffffffffffffff16021790555083600181905550826002819055508160038190555080600490805190602001906100fb929190610106565b5050505050506101ab565b828054600181600116156101000203166002900490600052602060002090601f016020900481019282601f1061014757805160ff1916838001178555610175565b82800160010185558215610175579182015b82811115610174578251825591602001919060010190610159565b5b5090506101829190610186565b5090565b6101a891905b808211156101a457600081600090555060010161018c565b5090565b90565b610e2e80620001bb6000396000f3006060604052600436106100d0576000357c0100000000000000000000000000000000000000000000000000000000900463ffffffff168063083c6323146100d55780631bf822e5146100fe5780633ccfd60b1461012b57806348cd4cb1146101585780634979440a146101815780638da5cb5b146101aa5780638fa8b790146101ff57806391f901571461022c5780639a82a09a14610281578063b3cc167a146102ae578063ce10cf80146102d7578063ecfc7ecc14610324578063f5b56c5614610346578063f7ca28471461036f575b600080fd5b34156100e057600080fd5b6100e86103fd565b6040518082815260200191505060405180910390f35b341561010957600080fd5b610111610403565b604051808215151515815260200191505060405180910390f35b341561013657600080fd5b61013e610416565b604051808215151515815260200191505060405180910390f35b341561016357600080fd5b61016b610833565b6040518082815260200191505060405180910390f35b341561018c57600080fd5b610194610839565b6040518082815260200191505060405180910390f35b34156101b557600080fd5b6101bd6108a2565b604051808273ffffffffffffffffffffffffffffffffffffffff1673ffffffffffffffffffffffffffffffffffffffff16815260200191505060405180910390f35b341561020a57600080fd5b6102126108c7565b604051808215151515815260200191505060405180910390f35b341561023757600080fd5b61023f61099b565b604051808273ffffffffffffffffffffffffffffffffffffffff1673ffffffffffffffffffffffffffffffffffffffff16815260200191505060405180910390f35b341561028c57600080fd5b6102946109c1565b604051808215151515815260200191505060405180910390f35b34156102b957600080fd5b6102c16109d4565b6040518082815260200191505060405180910390f35b34156102e257600080fd5b61030e600480803573ffffffffffffffffffffffffffffffffffffffff169060200190919050506109da565b6040518082815260200191505060405180910390f35b61032c6109f2565b604051808215151515815260200191505060405180910390f35b341561035157600080fd5b610359610d42565b6040518082815260200191505060405180910390f35b341561037a57600080fd5b610382610d48565b6040518080602001828103825283818151815260200191508051906020019080838360005b838110156103c25780820151818401526020810190506103a7565b50505050905090810190601f1680156103ef5780820380516001836020036101000a031916815260200191505b509250505060405180910390f35b60035481565b600960009054906101000a900460ff1681565b6000806000600354431080156104395750600560009054906101000a900460ff16155b1561044357600080fd5b600560009054906101000a900460ff16156104a257339150600860008373ffffffffffffffffffffffffffffffffffffffff1673ffffffffffffffffffffffffffffffffffffffff1681526020019081526020016000205490506106f0565b6000809054906101000a900473ffffffffffffffffffffffffffffffffffffffff1673ffffffffffffffffffffffffffffffffffffffff163373ffffffffffffffffffffffffffffffffffffffff16141561054157600760009054906101000a900473ffffffffffffffffffffffffffffffffffffffff16915060065490506001600960006101000a81548160ff0219169083151502179055506106ef565b600760009054906101000a900473ffffffffffffffffffffffffffffffffffffffff1673ffffffffffffffffffffffffffffffffffffffff163373ffffffffffffffffffffffffffffffffffffffff1614156106a857600760009054906101000a900473ffffffffffffffffffffffffffffffffffffffff169150600960009054906101000a900460ff161561063a5760086000600760009054906101000a900473ffffffffffffffffffffffffffffffffffffffff1673ffffffffffffffffffffffffffffffffffffffff1673ffffffffffffffffffffffffffffffffffffffff1681526020019081526020016000205490506106a3565b60065460086000600760009054906101000a900473ffffffffffffffffffffffffffffffffffffffff1673ffffffffffffffffffffffffffffffffffffffff1673ffffffffffffffffffffffffffffffffffffffff168152602001908152602001600020540390505b6106ee565b339150600860008373ffffffffffffffffffffffffffffffffffffffff1673ffffffffffffffffffffffffffffffffffffffff1681526020019081526020016000205490505b5b5b60008114156106fe57600080fd5b80600860008473ffffffffffffffffffffffffffffffffffffffff1673ffffffffffffffffffffffffffffffffffffffff168152602001908152602001600020600082825403925050819055503373ffffffffffffffffffffffffffffffffffffffff166108fc829081150290604051600060405180830381858888f19350505050151561078b57600080fd5b7f0ec497a8ae5b1ba29c60470ef651def995fac3deebbdcc56c47a4e5f51a4c2bd338383604051808473ffffffffffffffffffffffffffffffffffffffff1673ffffffffffffffffffffffffffffffffffffffff1681526020018373ffffffffffffffffffffffffffffffffffffffff1673ffffffffffffffffffffffffffffffffffffffff168152602001828152602001935050505060405180910390a160019250505090565b60025481565b600060086000600760009054906101000a900473ffffffffffffffffffffffffffffffffffffffff1673ffffffffffffffffffffffffffffffffffffffff1673ffffffffffffffffffffffffffffffffffffffff16815260200190815260200160002054905090565b6000809054906101000a900473ffffffffffffffffffffffffffffffffffffffff1681565b60008060009054906101000a900473ffffffffffffffffffffffffffffffffffffffff1673ffffffffffffffffffffffffffffffffffffffff163373ffffffffffffffffffffffffffffffffffffffff1614151561092457600080fd5b60035443111561093357600080fd5b600560009054906101000a900460ff161561094d57600080fd5b6001600560006101000a81548160ff0219169083151502179055507fd34f76c6851a04daabe49a05d40b21f5f706e80cd12c3150ce9693721981d47360405160405180910390a16001905090565b600760009054906101000a900473ffffffffffffffffffffffffffffffffffffffff1681565b600560009054906101000a900460ff1681565b60015481565b60086020528060005260406000206000915090505481565b6000806000600254431015610a0657600080fd5b600354431115610a1557600080fd5b600560009054906101000a900460ff1615610a2f57600080fd5b6000809054906101000a900473ffffffffffffffffffffffffffffffffffffffff1673ffffffffffffffffffffffffffffffffffffffff163373ffffffffffffffffffffffffffffffffffffffff161415610a8957600080fd5b6000341415610a9757600080fd5b34600860003373ffffffffffffffffffffffffffffffffffffffff1673ffffffffffffffffffffffffffffffffffffffff1681526020019081526020016000205401915060065482111515610aeb57600080fd5b60086000600760009054906101000a900473ffffffffffffffffffffffffffffffffffffffff1673ffffffffffffffffffffffffffffffffffffffff1673ffffffffffffffffffffffffffffffffffffffff16815260200190815260200160002054905081600860003373ffffffffffffffffffffffffffffffffffffffff1673ffffffffffffffffffffffffffffffffffffffff168152602001908152602001600020819055508082111515610bb557610baa600154830182610de6565b600681905550610c66565b600760009054906101000a900473ffffffffffffffffffffffffffffffffffffffff1673ffffffffffffffffffffffffffffffffffffffff163373ffffffffffffffffffffffffffffffffffffffff16141515610c625733600760006101000a81548173ffffffffffffffffffffffffffffffffffffffff021916908373ffffffffffffffffffffffffffffffffffffffff160217905550610c5b826001548301610de6565b6006819055505b8190505b7ff152f4ff5e488c55370a2d53925a55055228ebd8ec95bd0251bbb299e48786b03383600760009054906101000a900473ffffffffffffffffffffffffffffffffffffffff1684600654604051808673ffffffffffffffffffffffffffffffffffffffff1673ffffffffffffffffffffffffffffffffffffffff1681526020018581526020018473ffffffffffffffffffffffffffffffffffffffff1673ffffffffffffffffffffffffffffffffffffffff1681526020018381526020018281526020019550505050505060405180910390a160019250505090565b60065481565b60048054600181600116156101000203166002900480601f016020809104026020016040519081016040528092919081815260200182805460018160011615610100020316600290048015610dde5780601f10610db357610100808354040283529160200191610dde565b820191906000526020600020905b815481529060010190602001808311610dc157829003601f168201915b505050505081565b600081831015610df857829050610dfc565b8190505b929150505600a165627a7a72305820cc9f2faf8aa27ec316b3ae28bd691771327db18af1f4b63627162f8d7bcfa9bf0029a165627a7a723058201e993d17dbc3728cde6740d22f70f604d30953bf9939516a908d248e291018430029",
  "source": "pragma solidity ^0.4.8;\r\n\r\nimport { Auction } from './Auction.sol';\r\n\r\ncontract AuctionFactory {\r\n    address[] public auctions;\r\n\r\n    event AuctionCreated(address auctionContract, address owner, uint numAuctions, address[] allAuctions);\r\n\r\n    function AuctionFactory () public {\r\n    }\r\n\r\n    function createAuction(uint bidIncrement, uint startBlock, uint endBlock, string saleItem) public {\r\n        Auction newAuction = new Auction(msg.sender, bidIncrement, startBlock, endBlock, saleItem);\r\n        auctions.push(newAuction);\r\n\r\n        emit AuctionCreated(newAuction, msg.sender, auctions.length, auctions);\r\n    }\r\n\r\n    function allAuctions() public constant returns (address[]) {\r\n        return auctions;\r\n    }\r\n}\r\n",
  "sourcePath": "C:\\Users\\john.durrant\\EE-Prototype\\blockchain-prototypes-framework\\contracts\\auction\\AuctionFactory.sol",
  "compiler": {
    "name": "solc",
    "version": "0.4.21+commit.dfe3193c.Emscripten.clang"
  },
  "schemaVersion": "2.0.0",
  "updatedAt": "2018-06-08T09:05:43.202Z"
}