{
  "contractName": "Auction",
  "abi": [
    {
      "constant": true,
      "inputs": [],
      "name": "endBlock",
      "outputs": [
        {
          "name": "",
          "type": "uint256"
        }
      ],
      "payable": false,
      "stateMutability": "view",
      "type": "function"
    },
    {
      "constant": true,
      "inputs": [],
      "name": "ownerHasWithdrawn",
      "outputs": [
        {
          "name": "",
          "type": "bool"
        }
      ],
      "payable": false,
      "stateMutability": "view",
      "type": "function"
    },
    {
      "constant": true,
      "inputs": [],
      "name": "startBlock",
      "outputs": [
        {
          "name": "",
          "type": "uint256"
        }
      ],
      "payable": false,
      "stateMutability": "view",
      "type": "function"
    },
    {
      "constant": true,
      "inputs": [],
      "name": "owner",
      "outputs": [
        {
          "name": "",
          "type": "address"
        }
      ],
      "payable": false,
      "stateMutability": "view",
      "type": "function"
    },
    {
      "constant": true,
      "inputs": [],
      "name": "highestBidder",
      "outputs": [
        {
          "name": "",
          "type": "address"
        }
      ],
      "payable": false,
      "stateMutability": "view",
      "type": "function"
    },
    {
      "constant": true,
      "inputs": [],
      "name": "cancelled",
      "outputs": [
        {
          "name": "",
          "type": "bool"
        }
      ],
      "payable": false,
      "stateMutability": "view",
      "type": "function"
    },
    {
      "constant": true,
      "inputs": [],
      "name": "bidIncrement",
      "outputs": [
        {
          "name": "",
          "type": "uint256"
        }
      ],
      "payable": false,
      "stateMutability": "view",
      "type": "function"
    },
    {
      "constant": true,
      "inputs": [
        {
          "name": "",
          "type": "address"
        }
      ],
      "name": "fundsByBidder",
      "outputs": [
        {
          "name": "",
          "type": "uint256"
        }
      ],
      "payable": false,
      "stateMutability": "view",
      "type": "function"
    },
    {
      "constant": true,
      "inputs": [],
      "name": "highestBindingBid",
      "outputs": [
        {
          "name": "",
          "type": "uint256"
        }
      ],
      "payable": false,
      "stateMutability": "view",
      "type": "function"
    },
    {
      "constant": true,
      "inputs": [],
      "name": "saleItem",
      "outputs": [
        {
          "name": "",
          "type": "string"
        }
      ],
      "payable": false,
      "stateMutability": "view",
      "type": "function"
    },
    {
      "inputs": [
        {
          "name": "_owner",
          "type": "address"
        },
        {
          "name": "_bidIncrement",
          "type": "uint256"
        },
        {
          "name": "_startBlock",
          "type": "uint256"
        },
        {
          "name": "_endBlock",
          "type": "uint256"
        },
        {
          "name": "_saleItem",
          "type": "string"
        }
      ],
      "payable": false,
      "stateMutability": "nonpayable",
      "type": "constructor"
    },
    {
      "anonymous": false,
      "inputs": [
        {
          "indexed": false,
          "name": "bidder",
          "type": "address"
        },
        {
          "indexed": false,
          "name": "bid",
          "type": "uint256"
        },
        {
          "indexed": false,
          "name": "highestBidder",
          "type": "address"
        },
        {
          "indexed": false,
          "name": "highestBid",
          "type": "uint256"
        },
        {
          "indexed": false,
          "name": "highestBindingBid",
          "type": "uint256"
        }
      ],
      "name": "LogBid",
      "type": "event"
    },
    {
      "anonymous": false,
      "inputs": [
        {
          "indexed": false,
          "name": "withdrawer",
          "type": "address"
        },
        {
          "indexed": false,
          "name": "withdrawalAccount",
          "type": "address"
        },
        {
          "indexed": false,
          "name": "amount",
          "type": "uint256"
        }
      ],
      "name": "LogWithdrawal",
      "type": "event"
    },
    {
      "anonymous": false,
      "inputs": [],
      "name": "LogCancelled",
      "type": "event"
    },
    {
      "constant": true,
      "inputs": [],
      "name": "getHighestBid",
      "outputs": [
        {
          "name": "",
          "type": "uint256"
        }
      ],
      "payable": false,
      "stateMutability": "view",
      "type": "function"
    },
    {
      "constant": false,
      "inputs": [],
      "name": "placeBid",
      "outputs": [
        {
          "name": "success",
          "type": "bool"
        }
      ],
      "payable": true,
      "stateMutability": "payable",
      "type": "function"
    },
    {
      "constant": false,
      "inputs": [],
      "name": "cancelAuction",
      "outputs": [
        {
          "name": "success",
          "type": "bool"
        }
      ],
      "payable": false,
      "stateMutability": "nonpayable",
      "type": "function"
    },
    {
      "constant": false,
      "inputs": [],
      "name": "withdraw",
      "outputs": [
        {
          "name": "success",
          "type": "bool"
        }
      ],
      "payable": false,
      "stateMutability": "nonpayable",
      "type": "function"
    }
  ],
  "bytecode": "0x6060604052341561000f57600080fd5b60405162000fe938038062000fe983398101604052808051906020019091908051906020019091908051906020019091908051906020019091908051820191905050818310151561005f57600080fd5b4383101561006c57600080fd5b60008573ffffffffffffffffffffffffffffffffffffffff16141561009057600080fd5b846000806101000a81548173ffffffffffffffffffffffffffffffffffffffff021916908373ffffffffffffffffffffffffffffffffffffffff16021790555083600181905550826002819055508160038190555080600490805190602001906100fb929190610106565b5050505050506101ab565b828054600181600116156101000203166002900490600052602060002090601f016020900481019282601f1061014757805160ff1916838001178555610175565b82800160010185558215610175579182015b82811115610174578251825591602001919060010190610159565b5b5090506101829190610186565b5090565b6101a891905b808211156101a457600081600090555060010161018c565b5090565b90565b610e2e80620001bb6000396000f3006060604052600436106100d0576000357c0100000000000000000000000000000000000000000000000000000000900463ffffffff168063083c6323146100d55780631bf822e5146100fe5780633ccfd60b1461012b57806348cd4cb1146101585780634979440a146101815780638da5cb5b146101aa5780638fa8b790146101ff57806391f901571461022c5780639a82a09a14610281578063b3cc167a146102ae578063ce10cf80146102d7578063ecfc7ecc14610324578063f5b56c5614610346578063f7ca28471461036f575b600080fd5b34156100e057600080fd5b6100e86103fd565b6040518082815260200191505060405180910390f35b341561010957600080fd5b610111610403565b604051808215151515815260200191505060405180910390f35b341561013657600080fd5b61013e610416565b604051808215151515815260200191505060405180910390f35b341561016357600080fd5b61016b610833565b6040518082815260200191505060405180910390f35b341561018c57600080fd5b610194610839565b6040518082815260200191505060405180910390f35b34156101b557600080fd5b6101bd6108a2565b604051808273ffffffffffffffffffffffffffffffffffffffff1673ffffffffffffffffffffffffffffffffffffffff16815260200191505060405180910390f35b341561020a57600080fd5b6102126108c7565b604051808215151515815260200191505060405180910390f35b341561023757600080fd5b61023f61099b565b604051808273ffffffffffffffffffffffffffffffffffffffff1673ffffffffffffffffffffffffffffffffffffffff16815260200191505060405180910390f35b341561028c57600080fd5b6102946109c1565b604051808215151515815260200191505060405180910390f35b34156102b957600080fd5b6102c16109d4565b6040518082815260200191505060405180910390f35b34156102e257600080fd5b61030e600480803573ffffffffffffffffffffffffffffffffffffffff169060200190919050506109da565b6040518082815260200191505060405180910390f35b61032c6109f2565b604051808215151515815260200191505060405180910390f35b341561035157600080fd5b610359610d42565b6040518082815260200191505060405180910390f35b341561037a57600080fd5b610382610d48565b6040518080602001828103825283818151815260200191508051906020019080838360005b838110156103c25780820151818401526020810190506103a7565b50505050905090810190601f1680156103ef5780820380516001836020036101000a031916815260200191505b509250505060405180910390f35b60035481565b600960009054906101000a900460ff1681565b6000806000600354431080156104395750600560009054906101000a900460ff16155b1561044357600080fd5b600560009054906101000a900460ff16156104a257339150600860008373ffffffffffffffffffffffffffffffffffffffff1673ffffffffffffffffffffffffffffffffffffffff1681526020019081526020016000205490506106f0565b6000809054906101000a900473ffffffffffffffffffffffffffffffffffffffff1673ffffffffffffffffffffffffffffffffffffffff163373ffffffffffffffffffffffffffffffffffffffff16141561054157600760009054906101000a900473ffffffffffffffffffffffffffffffffffffffff16915060065490506001600960006101000a81548160ff0219169083151502179055506106ef565b600760009054906101000a900473ffffffffffffffffffffffffffffffffffffffff1673ffffffffffffffffffffffffffffffffffffffff163373ffffffffffffffffffffffffffffffffffffffff1614156106a857600760009054906101000a900473ffffffffffffffffffffffffffffffffffffffff169150600960009054906101000a900460ff161561063a5760086000600760009054906101000a900473ffffffffffffffffffffffffffffffffffffffff1673ffffffffffffffffffffffffffffffffffffffff1673ffffffffffffffffffffffffffffffffffffffff1681526020019081526020016000205490506106a3565b60065460086000600760009054906101000a900473ffffffffffffffffffffffffffffffffffffffff1673ffffffffffffffffffffffffffffffffffffffff1673ffffffffffffffffffffffffffffffffffffffff168152602001908152602001600020540390505b6106ee565b339150600860008373ffffffffffffffffffffffffffffffffffffffff1673ffffffffffffffffffffffffffffffffffffffff1681526020019081526020016000205490505b5b5b60008114156106fe57600080fd5b80600860008473ffffffffffffffffffffffffffffffffffffffff1673ffffffffffffffffffffffffffffffffffffffff168152602001908152602001600020600082825403925050819055503373ffffffffffffffffffffffffffffffffffffffff166108fc829081150290604051600060405180830381858888f19350505050151561078b57600080fd5b7f0ec497a8ae5b1ba29c60470ef651def995fac3deebbdcc56c47a4e5f51a4c2bd338383604051808473ffffffffffffffffffffffffffffffffffffffff1673ffffffffffffffffffffffffffffffffffffffff1681526020018373ffffffffffffffffffffffffffffffffffffffff1673ffffffffffffffffffffffffffffffffffffffff168152602001828152602001935050505060405180910390a160019250505090565b60025481565b600060086000600760009054906101000a900473ffffffffffffffffffffffffffffffffffffffff1673ffffffffffffffffffffffffffffffffffffffff1673ffffffffffffffffffffffffffffffffffffffff16815260200190815260200160002054905090565b6000809054906101000a900473ffffffffffffffffffffffffffffffffffffffff1681565b60008060009054906101000a900473ffffffffffffffffffffffffffffffffffffffff1673ffffffffffffffffffffffffffffffffffffffff163373ffffffffffffffffffffffffffffffffffffffff1614151561092457600080fd5b60035443111561093357600080fd5b600560009054906101000a900460ff161561094d57600080fd5b6001600560006101000a81548160ff0219169083151502179055507fd34f76c6851a04daabe49a05d40b21f5f706e80cd12c3150ce9693721981d47360405160405180910390a16001905090565b600760009054906101000a900473ffffffffffffffffffffffffffffffffffffffff1681565b600560009054906101000a900460ff1681565b60015481565b60086020528060005260406000206000915090505481565b6000806000600254431015610a0657600080fd5b600354431115610a1557600080fd5b600560009054906101000a900460ff1615610a2f57600080fd5b6000809054906101000a900473ffffffffffffffffffffffffffffffffffffffff1673ffffffffffffffffffffffffffffffffffffffff163373ffffffffffffffffffffffffffffffffffffffff161415610a8957600080fd5b6000341415610a9757600080fd5b34600860003373ffffffffffffffffffffffffffffffffffffffff1673ffffffffffffffffffffffffffffffffffffffff1681526020019081526020016000205401915060065482111515610aeb57600080fd5b60086000600760009054906101000a900473ffffffffffffffffffffffffffffffffffffffff1673ffffffffffffffffffffffffffffffffffffffff1673ffffffffffffffffffffffffffffffffffffffff16815260200190815260200160002054905081600860003373ffffffffffffffffffffffffffffffffffffffff1673ffffffffffffffffffffffffffffffffffffffff168152602001908152602001600020819055508082111515610bb557610baa600154830182610de6565b600681905550610c66565b600760009054906101000a900473ffffffffffffffffffffffffffffffffffffffff1673ffffffffffffffffffffffffffffffffffffffff163373ffffffffffffffffffffffffffffffffffffffff16141515610c625733600760006101000a81548173ffffffffffffffffffffffffffffffffffffffff021916908373ffffffffffffffffffffffffffffffffffffffff160217905550610c5b826001548301610de6565b6006819055505b8190505b7ff152f4ff5e488c55370a2d53925a55055228ebd8ec95bd0251bbb299e48786b03383600760009054906101000a900473ffffffffffffffffffffffffffffffffffffffff1684600654604051808673ffffffffffffffffffffffffffffffffffffffff1673ffffffffffffffffffffffffffffffffffffffff1681526020018581526020018473ffffffffffffffffffffffffffffffffffffffff1673ffffffffffffffffffffffffffffffffffffffff1681526020018381526020018281526020019550505050505060405180910390a160019250505090565b60065481565b60048054600181600116156101000203166002900480601f016020809104026020016040519081016040528092919081815260200182805460018160011615610100020316600290048015610dde5780601f10610db357610100808354040283529160200191610dde565b820191906000526020600020905b815481529060010190602001808311610dc157829003601f168201915b505050505081565b600081831015610df857829050610dfc565b8190505b929150505600a165627a7a72305820cc9f2faf8aa27ec316b3ae28bd691771327db18af1f4b63627162f8d7bcfa9bf0029",
  "source": "pragma solidity ^0.4.8;\r\n\r\ncontract Auction {\r\n    // static\r\n    address public owner;\r\n    uint public bidIncrement;\r\n    uint public startBlock;\r\n    uint public endBlock;\r\n    string public saleItem;\r\n\r\n    // states\r\n    bool public cancelled;\r\n    uint public highestBindingBid;\r\n    address public highestBidder;\r\n    mapping(address => uint256) public fundsByBidder;\r\n    bool public ownerHasWithdrawn;\r\n\r\n    event LogBid(address bidder, uint bid, address highestBidder, uint highestBid, uint highestBindingBid);\r\n    event LogWithdrawal(address withdrawer, address withdrawalAccount, uint amount);\r\n    event LogCancelled();\r\n\r\n    function Auction (address _owner, uint _bidIncrement, uint _startBlock, uint _endBlock, string _saleItem) public {\r\n        if (_startBlock >= _endBlock) revert();\r\n        if (_startBlock < block.number) revert();\r\n        if (_owner == 0) revert();\r\n\r\n        owner = _owner;\r\n        bidIncrement = _bidIncrement;\r\n        startBlock = _startBlock;\r\n        endBlock = _endBlock;\r\n        saleItem = _saleItem;\r\n    }\r\n\r\n    function getHighestBid()\r\n        public\r\n        constant\r\n        returns (uint)\r\n    {\r\n        return fundsByBidder[highestBidder];\r\n    }\r\n\r\n    function placeBid()\r\n        public\r\n        payable\r\n        onlyAfterStart\r\n        onlyBeforeEnd\r\n        onlyNotCancelled\r\n        onlyNotOwner\r\n        returns (bool success)\r\n    {\r\n        // reject payments of 0 ETH\r\n        if (msg.value == 0) revert();\r\n\r\n        // calculate the user's total bid based on the current amount they've sent to the contract\r\n        // plus whatever has been sent with this transaction\r\n        uint newBid = fundsByBidder[msg.sender] + msg.value;\r\n\r\n        // if the user isn't even willing to overbid the highest binding bid, there's nothing for us\r\n        // to do except revert the transaction.\r\n        if (newBid <= highestBindingBid) revert();\r\n\r\n        // grab the previous highest bid (before updating fundsByBidder, in case msg.sender is the\r\n        // highestBidder and is just increasing their maximum bid).\r\n        uint highestBid = fundsByBidder[highestBidder];\r\n\r\n        fundsByBidder[msg.sender] = newBid;\r\n\r\n        if (newBid <= highestBid) {\r\n            // if the user has overbid the highestBindingBid but not the highestBid, we simply\r\n            // increase the highestBindingBid and leave highestBidder alone.\r\n\r\n            // note that this case is impossible if msg.sender == highestBidder because you can never\r\n            // bid less ETH than you've already bid.\r\n\r\n            highestBindingBid = min(newBid + bidIncrement, highestBid);\r\n        } else {\r\n            // if msg.sender is already the highest bidder, they must simply be wanting to raise\r\n            // their maximum bid, in which case we shouldn't increase the highestBindingBid.\r\n\r\n            // if the user is NOT highestBidder, and has overbid highestBid completely, we set them\r\n            // as the new highestBidder and recalculate highestBindingBid.\r\n\r\n            if (msg.sender != highestBidder) {\r\n                highestBidder = msg.sender;\r\n                highestBindingBid = min(newBid, highestBid + bidIncrement);\r\n            }\r\n            highestBid = newBid;\r\n        }\r\n\r\n        emit LogBid(msg.sender, newBid, highestBidder, highestBid, highestBindingBid);\r\n        return true;\r\n    }\r\n\r\n    function min(uint a, uint b)\r\n        pure\r\n        private\r\n        returns (uint)\r\n    {\r\n        if (a < b) return a;\r\n        return b;\r\n    }\r\n\r\n    function cancelAuction() public\r\n        onlyOwner\r\n        onlyBeforeEnd\r\n        onlyNotCancelled\r\n        returns (bool success)\r\n    {\r\n        cancelled = true;\r\n        emit LogCancelled();\r\n        return true;\r\n    }\r\n\r\n    function withdraw() public\r\n        onlyEndedOrCancelled\r\n        returns (bool success)\r\n    {\r\n        address withdrawalAccount;\r\n        uint withdrawalAmount;\r\n\r\n        if (cancelled) {\r\n            // if the auction was cancelled, everyone should simply be allowed to withdraw their funds\r\n            withdrawalAccount = msg.sender;\r\n            withdrawalAmount = fundsByBidder[withdrawalAccount];\r\n\r\n        } else {\r\n            // the auction finished without being cancelled\r\n\r\n            if (msg.sender == owner) {\r\n                // the auction's owner should be allowed to withdraw the highestBindingBid\r\n                withdrawalAccount = highestBidder;\r\n                withdrawalAmount = highestBindingBid;\r\n                ownerHasWithdrawn = true;\r\n\r\n            } else if (msg.sender == highestBidder) {\r\n                // the highest bidder should only be allowed to withdraw the difference between their\r\n                // highest bid and the highestBindingBid\r\n                withdrawalAccount = highestBidder;\r\n                if (ownerHasWithdrawn) {\r\n                    withdrawalAmount = fundsByBidder[highestBidder];\r\n                } else {\r\n                    withdrawalAmount = fundsByBidder[highestBidder] - highestBindingBid;\r\n                }\r\n\r\n            } else {\r\n                // anyone who participated but did not win the auction should be allowed to withdraw\r\n                // the full amount of their funds\r\n                withdrawalAccount = msg.sender;\r\n                withdrawalAmount = fundsByBidder[withdrawalAccount];\r\n            }\r\n        }\r\n\r\n        if (withdrawalAmount == 0) revert();\r\n\r\n        fundsByBidder[withdrawalAccount] -= withdrawalAmount;\r\n\r\n        // send the funds\r\n        msg.sender.transfer(withdrawalAmount);\r\n\r\n        emit LogWithdrawal(msg.sender, withdrawalAccount, withdrawalAmount);\r\n\r\n        return true;\r\n    }\r\n\r\n    modifier onlyOwner {\r\n        if (msg.sender != owner) revert();\r\n        _;\r\n    }\r\n\r\n    modifier onlyNotOwner {\r\n        if (msg.sender == owner) revert();\r\n        _;\r\n    }\r\n\r\n    modifier onlyAfterStart {\r\n        if (block.number < startBlock) revert();\r\n        _;\r\n    }\r\n\r\n    modifier onlyBeforeEnd {\r\n        if (block.number > endBlock) revert();\r\n        _;\r\n    }\r\n\r\n    modifier onlyNotCancelled {\r\n        if (cancelled) revert();\r\n        _;\r\n    }\r\n\r\n    modifier onlyEndedOrCancelled {\r\n        if (block.number < endBlock && !cancelled) revert();\r\n        _;\r\n    }\r\n}\r\n",
  "sourcePath": "C:\\Users\\john.durrant\\EE-Prototype\\blockchain-prototypes-framework\\contracts\\auction\\Auction.sol",
  "compiler": {
    "name": "solc",
    "version": "0.4.21+commit.dfe3193c.Emscripten.clang"
  },
  "schemaVersion": "2.0.0",
  "updatedAt": "2018-05-23T07:42:47.684Z"
}