{
  "contractName": "BrandFunded",
  "abi": [
    {
      "constant": true,
      "inputs": [],
      "name": "buyerApprove",
      "outputs": [
        {
          "name": "",
          "type": "bool"
        }
      ],
      "payable": false,
      "stateMutability": "view",
      "type": "function"
    },
    {
      "constant": true,
      "inputs": [
        {
          "name": "",
          "type": "address"
        }
      ],
      "name": "balances",
      "outputs": [
        {
          "name": "",
          "type": "uint256"
        }
      ],
      "payable": false,
      "stateMutability": "view",
      "type": "function"
    },
    {
      "constant": true,
      "inputs": [],
      "name": "sellerApprove",
      "outputs": [
        {
          "name": "",
          "type": "bool"
        }
      ],
      "payable": false,
      "stateMutability": "view",
      "type": "function"
    },
    {
      "constant": true,
      "inputs": [],
      "name": "sellerAddress",
      "outputs": [
        {
          "name": "",
          "type": "address"
        }
      ],
      "payable": false,
      "stateMutability": "view",
      "type": "function"
    },
    {
      "constant": true,
      "inputs": [],
      "name": "buyerAddress",
      "outputs": [
        {
          "name": "",
          "type": "address"
        }
      ],
      "payable": false,
      "stateMutability": "view",
      "type": "function"
    },
    {
      "constant": true,
      "inputs": [],
      "name": "feePercent",
      "outputs": [
        {
          "name": "",
          "type": "uint256"
        }
      ],
      "payable": false,
      "stateMutability": "view",
      "type": "function"
    },
    {
      "constant": true,
      "inputs": [],
      "name": "owner",
      "outputs": [
        {
          "name": "",
          "type": "address"
        }
      ],
      "payable": false,
      "stateMutability": "view",
      "type": "function"
    },
    {
      "constant": true,
      "inputs": [],
      "name": "escrowComplete",
      "outputs": [
        {
          "name": "",
          "type": "bool"
        }
      ],
      "payable": false,
      "stateMutability": "view",
      "type": "function"
    },
    {
      "constant": true,
      "inputs": [],
      "name": "saleItem",
      "outputs": [
        {
          "name": "",
          "type": "string"
        }
      ],
      "payable": false,
      "stateMutability": "view",
      "type": "function"
    },
    {
      "inputs": [
        {
          "name": "_owner",
          "type": "address"
        },
        {
          "name": "_sellerAddress",
          "type": "address"
        },
        {
          "name": "_buyerAddress",
          "type": "address"
        },
        {
          "name": "_feePercent",
          "type": "uint256"
        },
        {
          "name": "_saleItem",
          "type": "string"
        }
      ],
      "payable": false,
      "stateMutability": "nonpayable",
      "type": "constructor"
    },
    {
      "constant": false,
      "inputs": [],
      "name": "depositBuyerFunds",
      "outputs": [],
      "payable": true,
      "stateMutability": "payable",
      "type": "function"
    },
    {
      "constant": false,
      "inputs": [],
      "name": "approve",
      "outputs": [],
      "payable": false,
      "stateMutability": "nonpayable",
      "type": "function"
    },
    {
      "constant": false,
      "inputs": [],
      "name": "voidContract",
      "outputs": [],
      "payable": false,
      "stateMutability": "nonpayable",
      "type": "function"
    }
  ],
  "bytecode": "0x60606040526000600660026101000a81548160ff021916908315150217905550341561002a57600080fd5b604051610cf7380380610cf78339810160405280805190602001909190805190602001909190805190602001909190805190602001909190805182019190505060008210806100795750601982115b1561008357600080fd5b33600160006101000a81548173ffffffffffffffffffffffffffffffffffffffff021916908373ffffffffffffffffffffffffffffffffffffffff16021790555083600260006101000a81548173ffffffffffffffffffffffffffffffffffffffff021916908373ffffffffffffffffffffffffffffffffffffffff16021790555082600360006101000a81548173ffffffffffffffffffffffffffffffffffffffff021916908373ffffffffffffffffffffffffffffffffffffffff1602179055508160048190555080600590805190602001906101639291906101af565b5084600160006101000a81548173ffffffffffffffffffffffffffffffffffffffff021916908373ffffffffffffffffffffffffffffffffffffffff1602179055505050505050610254565b828054600181600116156101000203166002900490600052602060002090601f016020900481019282601f106101f057805160ff191683800117855561021e565b8280016001018555821561021e579182015b8281111561021d578251825591602001919060010190610202565b5b50905061022b919061022f565b5090565b61025191905b8082111561024d576000816000905550600101610235565b5090565b90565b610a94806102636000396000f3006060604052600436106100ba576000357c0100000000000000000000000000000000000000000000000000000000900463ffffffff16806309138a4a146100bf57806312424e3f146100ec57806327e235e314610101578063376945841461014e5780633d9b2ae61461017b57806344834aca146101d057806344dc24ca146102255780637fd6f15c1461023a5780638da5cb5b1461026357806394f1ff8e146102b8578063e753d74e146102c2578063f7ca2847146102ef575b600080fd5b34156100ca57600080fd5b6100d261037d565b604051808215151515815260200191505060405180910390f35b34156100f757600080fd5b6100ff610390565b005b341561010c57600080fd5b610138600480803573ffffffffffffffffffffffffffffffffffffffff16906020019091905050610542565b6040518082815260200191505060405180910390f35b341561015957600080fd5b61016161055a565b604051808215151515815260200191505060405180910390f35b341561018657600080fd5b61018e61056d565b604051808273ffffffffffffffffffffffffffffffffffffffff1673ffffffffffffffffffffffffffffffffffffffff16815260200191505060405180910390f35b34156101db57600080fd5b6101e3610593565b604051808273ffffffffffffffffffffffffffffffffffffffff1673ffffffffffffffffffffffffffffffffffffffff16815260200191505060405180910390f35b341561023057600080fd5b6102386105b9565b005b341561024557600080fd5b61024d6106dc565b6040518082815260200191505060405180910390f35b341561026e57600080fd5b6102766106e2565b604051808273ffffffffffffffffffffffffffffffffffffffff1673ffffffffffffffffffffffffffffffffffffffff16815260200191505060405180910390f35b6102c0610708565b005b34156102cd57600080fd5b6102d56107d8565b604051808215151515815260200191505060405180910390f35b34156102fa57600080fd5b6103026107eb565b6040518080602001828103825283818151815260200191508051906020019080838360005b83811015610342578082015181840152602081019050610327565b50505050905090810190601f16801561036f5780820380516001836020036101000a031916815260200191505b509250505060405180910390f35b600660019054906101000a900460ff1681565b6000806000600360009054906101000a900473ffffffffffffffffffffffffffffffffffffffff1673ffffffffffffffffffffffffffffffffffffffff1673ffffffffffffffffffffffffffffffffffffffff1681526020019081526020016000205414156103fe57600080fd5b600360009054906101000a900473ffffffffffffffffffffffffffffffffffffffff1673ffffffffffffffffffffffffffffffffffffffff163373ffffffffffffffffffffffffffffffffffffffff161415610474576001600660016101000a81548160ff0219169083151502179055506104e7565b600260009054906101000a900473ffffffffffffffffffffffffffffffffffffffff1673ffffffffffffffffffffffffffffffffffffffff163373ffffffffffffffffffffffffffffffffffffffff1614156104e6576001600660006101000a81548160ff0219169083151502179055505b5b600660009054906101000a900460ff16801561050f5750600660019054906101000a900460ff165b156105405761051c610889565b610524610914565b6001600660026101000a81548160ff0219169083151502179055505b565b60006020528060005260406000206000915090505481565b600660009054906101000a900460ff1681565b600260009054906101000a900473ffffffffffffffffffffffffffffffffffffffff1681565b600360009054906101000a900473ffffffffffffffffffffffffffffffffffffffff1681565b600360009054906101000a900473ffffffffffffffffffffffffffffffffffffffff1673ffffffffffffffffffffffffffffffffffffffff163373ffffffffffffffffffffffffffffffffffffffff16141561062f576000600660016101000a81548160ff0219169083151502179055506106a2565b600260009054906101000a900473ffffffffffffffffffffffffffffffffffffffff1673ffffffffffffffffffffffffffffffffffffffff163373ffffffffffffffffffffffffffffffffffffffff1614156106a1576000600660006101000a81548160ff0219169083151502179055505b5b600660009054906101000a900460ff161580156106cc5750600660019054906101000a900460ff16155b156106da576106d96109f0565b5b565b60045481565b600160009054906101000a900473ffffffffffffffffffffffffffffffffffffffff1681565b600360009054906101000a900473ffffffffffffffffffffffffffffffffffffffff1673ffffffffffffffffffffffffffffffffffffffff163373ffffffffffffffffffffffffffffffffffffffff1614156107d15734600080600360009054906101000a900473ffffffffffffffffffffffffffffffffffffffff1673ffffffffffffffffffffffffffffffffffffffff1673ffffffffffffffffffffffffffffffffffffffff168152602001908152602001600020600082825401925050819055506107d6565b600080fd5b565b600660029054906101000a900460ff1681565b60058054600181600116156101000203166002900480601f0160208091040260200160405190810160405280929190818152602001828054600181600116156101000203166002900480156108815780601f1061085657610100808354040283529160200191610881565b820191906000526020600020905b81548152906001019060200180831161086457829003601f168201915b505050505081565b600160009054906101000a900473ffffffffffffffffffffffffffffffffffffffff1673ffffffffffffffffffffffffffffffffffffffff166108fc60646004543073ffffffffffffffffffffffffffffffffffffffff1631028115156108ec57fe5b049081150290604051600060405180830381858888f19350505050151561091257600080fd5b565b600260009054906101000a900473ffffffffffffffffffffffffffffffffffffffff1673ffffffffffffffffffffffffffffffffffffffff166108fc3073ffffffffffffffffffffffffffffffffffffffff16319081150290604051600060405180830381858888f19350505050156109ee576000806000600360009054906101000a900473ffffffffffffffffffffffffffffffffffffffff1673ffffffffffffffffffffffffffffffffffffffff1673ffffffffffffffffffffffffffffffffffffffff168152602001908152602001600020819055505b565b60001515600660019054906101000a900460ff161515148015610a26575060001515600660009054906101000a900460ff161515145b15610a6657600360009054906101000a900473ffffffffffffffffffffffffffffffffffffffff1673ffffffffffffffffffffffffffffffffffffffff16ff5b5600a165627a7a72305820316f657c5495cadea584096b885c1a263228c987096e298462625fb4c53b9d270029",
  "source": "pragma solidity ^0.4.8;\r\n\r\ncontract BrandFunded {\r\n\r\n  // Store balances\r\n  mapping (address => uint) public balances;\r\n\r\n  // Static\r\n  address public owner;\r\n  address public sellerAddress;\r\n  address public buyerAddress;\r\n  uint public feePercent;\r\n  string public saleItem;\r\n\r\n  // State\r\n  bool public sellerApprove;\r\n  bool public buyerApprove;\r\n  bool public escrowComplete = false;\r\n\r\n  // Constructor\r\n  function BrandFunded(address _owner, address _sellerAddress, address _buyerAddress, uint _feePercent, string _saleItem) public {\r\n        if (_feePercent < 0 || _feePercent > 25) {\r\n          revert();\r\n        }\r\n        owner = msg.sender;\r\n        sellerAddress = _sellerAddress;\r\n        buyerAddress = _buyerAddress;\r\n        feePercent = _feePercent;\r\n        saleItem = _saleItem;\r\n        owner = _owner;\r\n  }\r\n\r\n  // buyer must place a deposit\r\n  function depositBuyerFunds() public payable {\r\n        if(msg.sender == buyerAddress) {\r\n          balances[buyerAddress] += msg.value;\r\n        }\r\n        else {\r\n          revert();\r\n        }\r\n    }\r\n\r\n  // Both buyer and seller must approve the deal, which sets up a chain reaction to complete\r\n  function approve() public {\r\n    if (balances[buyerAddress] == 0) {\r\n      revert();\r\n    }\r\n    if (msg.sender == buyerAddress) {\r\n      buyerApprove = true;\r\n    }\r\n    else if (msg.sender == sellerAddress) {\r\n      sellerApprove = true;\r\n    }\r\n    if (sellerApprove && buyerApprove) {\r\n      payFee();\r\n      paySeller();\r\n      escrowComplete = true;\r\n    }\r\n  }\r\n\r\n  // Abort the contract if buyer and seller agree\r\n  function voidContract() public {\r\n      if (msg.sender == buyerAddress) {\r\n        buyerApprove = false;\r\n      }\r\n      else if (msg.sender == sellerAddress) {\r\n        sellerApprove = false;\r\n      }\r\n      if (!sellerApprove && !buyerApprove) {\r\n        refundBuyer();\r\n      }\r\n  }\r\n\r\n  function paySeller() internal {\r\n    if (sellerAddress.send(address(this).balance)) {\r\n      balances[buyerAddress] = 0;\r\n    }\r\n  }\r\n\r\n  // Return funds to buyer if both parties agree contract is void\r\n  function refundBuyer() internal {\r\n    if (buyerApprove == false && sellerApprove == false) {\r\n      selfdestruct(buyerAddress);\r\n    }\r\n  }\r\n\r\n  // Pay fee to escrow service\r\n  function payFee() internal {\r\n      owner.transfer(address(this).balance * feePercent / 100 ); //% fee\r\n  }\r\n\r\n}\r\n",
  "sourcePath": "C:\\Users\\john.durrant\\EE-Prototype\\blockchain-prototypes-framework\\contracts\\brandFunded\\BrandFunded.sol",
  "compiler": {
    "name": "solc",
    "version": "0.4.21+commit.dfe3193c.Emscripten.clang"
  },
  "schemaVersion": "2.0.0",
  "updatedAt": "2018-05-14T07:45:58.112Z"
}