{
  "contractName": "BrandFundedFactory",
  "abi": [
    {
      "constant": true,
      "inputs": [
        {
          "name": "",
          "type": "uint256"
        }
      ],
      "name": "escrowContracts",
      "outputs": [
        {
          "name": "",
          "type": "address"
        }
      ],
      "payable": false,
      "stateMutability": "view",
      "type": "function"
    },
    {
      "inputs": [],
      "payable": false,
      "stateMutability": "nonpayable",
      "type": "constructor"
    },
    {
      "anonymous": false,
      "inputs": [
        {
          "indexed": false,
          "name": "escrowContract",
          "type": "address"
        },
        {
          "indexed": false,
          "name": "owner",
          "type": "address"
        },
        {
          "indexed": false,
          "name": "numEscrowContracts",
          "type": "uint256"
        },
        {
          "indexed": false,
          "name": "allEscrowContracts",
          "type": "address[]"
        }
      ],
      "name": "BrandFundedCreated",
      "type": "event"
    },
    {
      "constant": false,
      "inputs": [
        {
          "name": "_sellerAddress",
          "type": "address"
        },
        {
          "name": "_buyerAddress",
          "type": "address"
        },
        {
          "name": "_feePercent",
          "type": "uint256"
        },
        {
          "name": "_saleItem",
          "type": "string"
        }
      ],
      "name": "createEscrow",
      "outputs": [],
      "payable": false,
      "stateMutability": "nonpayable",
      "type": "function"
    },
    {
      "constant": true,
      "inputs": [],
      "name": "allEscrowContracts",
      "outputs": [
        {
          "name": "",
          "type": "address[]"
        }
      ],
      "payable": false,
      "stateMutability": "view",
      "type": "function"
    }
  ],
  "bytecode": "0x608060405234801561001057600080fd5b506112e3806100206000396000f300608060405260043610610057576000357c0100000000000000000000000000000000000000000000000000000000900463ffffffff1680637be87b9e1461005c578063d0e2dfba1461010f578063eebff2e51461017c575b600080fd5b34801561006857600080fd5b5061010d600480360381019080803573ffffffffffffffffffffffffffffffffffffffff169060200190929190803573ffffffffffffffffffffffffffffffffffffffff16906020019092919080359060200190929190803590602001908201803590602001908080601f01602080910402602001604051908101604052809392919081815260200183838082843782019150505050505091929192905050506101e8565b005b34801561011b57600080fd5b5061013a600480360381019080803590602001909291905050506104b3565b604051808273ffffffffffffffffffffffffffffffffffffffff1673ffffffffffffffffffffffffffffffffffffffff16815260200191505060405180910390f35b34801561018857600080fd5b506101916104f1565b6040518080602001828103825283818151815260200191508051906020019060200280838360005b838110156101d45780820151818401526020810190506101b9565b505050509050019250505060405180910390f35b600033858585856101f761057f565b808673ffffffffffffffffffffffffffffffffffffffff1673ffffffffffffffffffffffffffffffffffffffff1681526020018573ffffffffffffffffffffffffffffffffffffffff1673ffffffffffffffffffffffffffffffffffffffff1681526020018473ffffffffffffffffffffffffffffffffffffffff1673ffffffffffffffffffffffffffffffffffffffff16815260200183815260200180602001828103825283818151815260200191508051906020019080838360005b838110156102d05780820151818401526020810190506102b5565b50505050905090810190601f1680156102fd5780820380516001836020036101000a031916815260200191505b509650505050505050604051809103906000f080158015610322573d6000803e3d6000fd5b50905060008190806001815401808255809150509060018203906000526020600020016000909192909190916101000a81548173ffffffffffffffffffffffffffffffffffffffff021916908373ffffffffffffffffffffffffffffffffffffffff160217905550507f9a5feefeb210d4f7f9be2811b127a7beb36384f24b6abce3e7a8715a08f0864a81336000805490506000604051808573ffffffffffffffffffffffffffffffffffffffff1673ffffffffffffffffffffffffffffffffffffffff1681526020018473ffffffffffffffffffffffffffffffffffffffff1673ffffffffffffffffffffffffffffffffffffffff16815260200183815260200180602001828103825283818154815260200191508054801561049b57602002820191906000526020600020905b8160009054906101000a900473ffffffffffffffffffffffffffffffffffffffff1673ffffffffffffffffffffffffffffffffffffffff1681526020019060010190808311610451575b50509550505050505060405180910390a15050505050565b6000818154811015156104c257fe5b906000526020600020016000915054906101000a900473ffffffffffffffffffffffffffffffffffffffff1681565b6060600080548060200260200160405190810160405280929190818152602001828054801561057557602002820191906000526020600020905b8160009054906101000a900473ffffffffffffffffffffffffffffffffffffffff1673ffffffffffffffffffffffffffffffffffffffff168152602001906001019080831161052b575b5050505050905090565b604051610d288061059083390190560060806040526000600660026101000a81548160ff02191690831515021790555034801561002b57600080fd5b50604051610d28380380610d28833981018060405281019080805190602001909291908051906020019092919080519060200190929190805190602001909291908051820192919050505060008210806100855750601982115b1561008f57600080fd5b33600160006101000a81548173ffffffffffffffffffffffffffffffffffffffff021916908373ffffffffffffffffffffffffffffffffffffffff16021790555083600260006101000a81548173ffffffffffffffffffffffffffffffffffffffff021916908373ffffffffffffffffffffffffffffffffffffffff16021790555082600360006101000a81548173ffffffffffffffffffffffffffffffffffffffff021916908373ffffffffffffffffffffffffffffffffffffffff16021790555081600481905550806005908051906020019061016f9291906101bb565b5084600160006101000a81548173ffffffffffffffffffffffffffffffffffffffff021916908373ffffffffffffffffffffffffffffffffffffffff1602179055505050505050610260565b828054600181600116156101000203166002900490600052602060002090601f016020900481019282601f106101fc57805160ff191683800117855561022a565b8280016001018555821561022a579182015b8281111561022957825182559160200191906001019061020e565b5b509050610237919061023b565b5090565b61025d91905b80821115610259576000816000905550600101610241565b5090565b90565b610ab98061026f6000396000f3006080604052600436106100ba576000357c0100000000000000000000000000000000000000000000000000000000900463ffffffff16806309138a4a146100bf57806312424e3f146100ee57806327e235e314610105578063376945841461015c5780633d9b2ae61461018b57806344834aca146101e257806344dc24ca146102395780637fd6f15c146102505780638da5cb5b1461027b57806394f1ff8e146102d2578063e753d74e146102dc578063f7ca28471461030b575b600080fd5b3480156100cb57600080fd5b506100d461039b565b604051808215151515815260200191505060405180910390f35b3480156100fa57600080fd5b506101036103ae565b005b34801561011157600080fd5b50610146600480360381019080803573ffffffffffffffffffffffffffffffffffffffff169060200190929190505050610560565b6040518082815260200191505060405180910390f35b34801561016857600080fd5b50610171610578565b604051808215151515815260200191505060405180910390f35b34801561019757600080fd5b506101a061058b565b604051808273ffffffffffffffffffffffffffffffffffffffff1673ffffffffffffffffffffffffffffffffffffffff16815260200191505060405180910390f35b3480156101ee57600080fd5b506101f76105b1565b604051808273ffffffffffffffffffffffffffffffffffffffff1673ffffffffffffffffffffffffffffffffffffffff16815260200191505060405180910390f35b34801561024557600080fd5b5061024e6105d7565b005b34801561025c57600080fd5b506102656106fa565b6040518082815260200191505060405180910390f35b34801561028757600080fd5b50610290610700565b604051808273ffffffffffffffffffffffffffffffffffffffff1673ffffffffffffffffffffffffffffffffffffffff16815260200191505060405180910390f35b6102da610726565b005b3480156102e857600080fd5b506102f16107f6565b604051808215151515815260200191505060405180910390f35b34801561031757600080fd5b50610320610809565b6040518080602001828103825283818151815260200191508051906020019080838360005b83811015610360578082015181840152602081019050610345565b50505050905090810190601f16801561038d5780820380516001836020036101000a031916815260200191505b509250505060405180910390f35b600660019054906101000a900460ff1681565b6000806000600360009054906101000a900473ffffffffffffffffffffffffffffffffffffffff1673ffffffffffffffffffffffffffffffffffffffff1673ffffffffffffffffffffffffffffffffffffffff16815260200190815260200160002054141561041c57600080fd5b600360009054906101000a900473ffffffffffffffffffffffffffffffffffffffff1673ffffffffffffffffffffffffffffffffffffffff163373ffffffffffffffffffffffffffffffffffffffff161415610492576001600660016101000a81548160ff021916908315150217905550610505565b600260009054906101000a900473ffffffffffffffffffffffffffffffffffffffff1673ffffffffffffffffffffffffffffffffffffffff163373ffffffffffffffffffffffffffffffffffffffff161415610504576001600660006101000a81548160ff0219169083151502179055505b5b600660009054906101000a900460ff16801561052d5750600660019054906101000a900460ff165b1561055e5761053a6108a7565b610542610939565b6001600660026101000a81548160ff0219169083151502179055505b565b60006020528060005260406000206000915090505481565b600660009054906101000a900460ff1681565b600260009054906101000a900473ffffffffffffffffffffffffffffffffffffffff1681565b600360009054906101000a900473ffffffffffffffffffffffffffffffffffffffff1681565b600360009054906101000a900473ffffffffffffffffffffffffffffffffffffffff1673ffffffffffffffffffffffffffffffffffffffff163373ffffffffffffffffffffffffffffffffffffffff16141561064d576000600660016101000a81548160ff0219169083151502179055506106c0565b600260009054906101000a900473ffffffffffffffffffffffffffffffffffffffff1673ffffffffffffffffffffffffffffffffffffffff163373ffffffffffffffffffffffffffffffffffffffff1614156106bf576000600660006101000a81548160ff0219169083151502179055505b5b600660009054906101000a900460ff161580156106ea5750600660019054906101000a900460ff16155b156106f8576106f7610a15565b5b565b60045481565b600160009054906101000a900473ffffffffffffffffffffffffffffffffffffffff1681565b600360009054906101000a900473ffffffffffffffffffffffffffffffffffffffff1673ffffffffffffffffffffffffffffffffffffffff163373ffffffffffffffffffffffffffffffffffffffff1614156107ef5734600080600360009054906101000a900473ffffffffffffffffffffffffffffffffffffffff1673ffffffffffffffffffffffffffffffffffffffff1673ffffffffffffffffffffffffffffffffffffffff168152602001908152602001600020600082825401925050819055506107f4565b600080fd5b565b600660029054906101000a900460ff1681565b60058054600181600116156101000203166002900480601f01602080910402602001604051908101604052809291908181526020018280546001816001161561010002031660029004801561089f5780601f106108745761010080835404028352916020019161089f565b820191906000526020600020905b81548152906001019060200180831161088257829003601f168201915b505050505081565b600160009054906101000a900473ffffffffffffffffffffffffffffffffffffffff1673ffffffffffffffffffffffffffffffffffffffff166108fc60646004543073ffffffffffffffffffffffffffffffffffffffff16310281151561090a57fe5b049081150290604051600060405180830381858888f19350505050158015610936573d6000803e3d6000fd5b50565b600260009054906101000a900473ffffffffffffffffffffffffffffffffffffffff1673ffffffffffffffffffffffffffffffffffffffff166108fc3073ffffffffffffffffffffffffffffffffffffffff16319081150290604051600060405180830381858888f1935050505015610a13576000806000600360009054906101000a900473ffffffffffffffffffffffffffffffffffffffff1673ffffffffffffffffffffffffffffffffffffffff1673ffffffffffffffffffffffffffffffffffffffff168152602001908152602001600020819055505b565b60001515600660019054906101000a900460ff161515148015610a4b575060001515600660009054906101000a900460ff161515145b15610a8b57600360009054906101000a900473ffffffffffffffffffffffffffffffffffffffff1673ffffffffffffffffffffffffffffffffffffffff16ff5b5600a165627a7a723058207517e0dcab89d44c29702c63ceb121456311d0c37c509a3915e2b337fbbcd2120029a165627a7a723058202d984da37c449994a1bab07a74077acbdc7370e0cd268f4425a4be090f0c23580029",
  "source": "pragma solidity ^0.4.8;\r\n\r\nimport { BrandFunded } from './BrandFunded.sol';\r\n\r\ncontract BrandFundedFactory {\r\n    address[] public escrowContracts;\r\n\r\n    event BrandFundedCreated(address escrowContract, address owner, uint numEscrowContracts, address[] allEscrowContracts);\r\n\r\n    function BrandFundedFactory () public {\r\n    }\r\n\r\n    function createEscrow(address _sellerAddress, address _buyerAddress, uint _feePercent, string _saleItem) public {\r\n        BrandFunded newEscrow = new BrandFunded(msg.sender, _sellerAddress, _buyerAddress, _feePercent, _saleItem);\r\n        escrowContracts.push(newEscrow);\r\n\r\n        emit BrandFundedCreated(newEscrow, msg.sender, escrowContracts.length, escrowContracts);\r\n    }\r\n\r\n    function allEscrowContracts() public constant returns (address[]) {\r\n        return escrowContracts;\r\n    }\r\n}\r\n",
  "sourcePath": "C:\\Users\\John\\EE-Proto\\blockchain-prototypes-framework\\contracts\\brandFunded\\BrandFundedFactory.sol",
  "compiler": {
    "name": "solc",
    "version": "0.4.23+commit.124ca40d.Emscripten.clang"
  },
  "schemaVersion": "2.0.0",
  "updatedAt": "2018-06-14T17:01:15.146Z"
}