{
  "contractName": "BrandFunded",
  "abi": [
    {
      "constant": true,
      "inputs": [],
      "name": "buyerApprove",
      "outputs": [
        {
          "name": "",
          "type": "bool"
        }
      ],
      "payable": false,
      "stateMutability": "view",
      "type": "function"
    },
    {
      "constant": true,
      "inputs": [
        {
          "name": "",
          "type": "address"
        }
      ],
      "name": "balances",
      "outputs": [
        {
          "name": "",
          "type": "uint256"
        }
      ],
      "payable": false,
      "stateMutability": "view",
      "type": "function"
    },
    {
      "constant": true,
      "inputs": [],
      "name": "sellerApprove",
      "outputs": [
        {
          "name": "",
          "type": "bool"
        }
      ],
      "payable": false,
      "stateMutability": "view",
      "type": "function"
    },
    {
      "constant": true,
      "inputs": [],
      "name": "sellerAddress",
      "outputs": [
        {
          "name": "",
          "type": "address"
        }
      ],
      "payable": false,
      "stateMutability": "view",
      "type": "function"
    },
    {
      "constant": true,
      "inputs": [],
      "name": "buyerAddress",
      "outputs": [
        {
          "name": "",
          "type": "address"
        }
      ],
      "payable": false,
      "stateMutability": "view",
      "type": "function"
    },
    {
      "constant": true,
      "inputs": [],
      "name": "feePercent",
      "outputs": [
        {
          "name": "",
          "type": "uint256"
        }
      ],
      "payable": false,
      "stateMutability": "view",
      "type": "function"
    },
    {
      "constant": true,
      "inputs": [],
      "name": "owner",
      "outputs": [
        {
          "name": "",
          "type": "address"
        }
      ],
      "payable": false,
      "stateMutability": "view",
      "type": "function"
    },
    {
      "constant": true,
      "inputs": [],
      "name": "escrowComplete",
      "outputs": [
        {
          "name": "",
          "type": "bool"
        }
      ],
      "payable": false,
      "stateMutability": "view",
      "type": "function"
    },
    {
      "constant": true,
      "inputs": [],
      "name": "saleItem",
      "outputs": [
        {
          "name": "",
          "type": "string"
        }
      ],
      "payable": false,
      "stateMutability": "view",
      "type": "function"
    },
    {
      "inputs": [
        {
          "name": "_owner",
          "type": "address"
        },
        {
          "name": "_sellerAddress",
          "type": "address"
        },
        {
          "name": "_buyerAddress",
          "type": "address"
        },
        {
          "name": "_feePercent",
          "type": "uint256"
        },
        {
          "name": "_saleItem",
          "type": "string"
        }
      ],
      "payable": false,
      "stateMutability": "nonpayable",
      "type": "constructor"
    },
    {
      "constant": false,
      "inputs": [],
      "name": "depositBuyerFunds",
      "outputs": [],
      "payable": true,
      "stateMutability": "payable",
      "type": "function"
    },
    {
      "constant": false,
      "inputs": [],
      "name": "approve",
      "outputs": [],
      "payable": false,
      "stateMutability": "nonpayable",
      "type": "function"
    },
    {
      "constant": false,
      "inputs": [],
      "name": "voidContract",
      "outputs": [],
      "payable": false,
      "stateMutability": "nonpayable",
      "type": "function"
    }
  ],
  "bytecode": "0x60806040526000600660026101000a81548160ff02191690831515021790555034801561002b57600080fd5b50604051610d28380380610d28833981018060405281019080805190602001909291908051906020019092919080519060200190929190805190602001909291908051820192919050505060008210806100855750601982115b1561008f57600080fd5b33600160006101000a81548173ffffffffffffffffffffffffffffffffffffffff021916908373ffffffffffffffffffffffffffffffffffffffff16021790555083600260006101000a81548173ffffffffffffffffffffffffffffffffffffffff021916908373ffffffffffffffffffffffffffffffffffffffff16021790555082600360006101000a81548173ffffffffffffffffffffffffffffffffffffffff021916908373ffffffffffffffffffffffffffffffffffffffff16021790555081600481905550806005908051906020019061016f9291906101bb565b5084600160006101000a81548173ffffffffffffffffffffffffffffffffffffffff021916908373ffffffffffffffffffffffffffffffffffffffff1602179055505050505050610260565b828054600181600116156101000203166002900490600052602060002090601f016020900481019282601f106101fc57805160ff191683800117855561022a565b8280016001018555821561022a579182015b8281111561022957825182559160200191906001019061020e565b5b509050610237919061023b565b5090565b61025d91905b80821115610259576000816000905550600101610241565b5090565b90565b610ab98061026f6000396000f3006080604052600436106100ba576000357c0100000000000000000000000000000000000000000000000000000000900463ffffffff16806309138a4a146100bf57806312424e3f146100ee57806327e235e314610105578063376945841461015c5780633d9b2ae61461018b57806344834aca146101e257806344dc24ca146102395780637fd6f15c146102505780638da5cb5b1461027b57806394f1ff8e146102d2578063e753d74e146102dc578063f7ca28471461030b575b600080fd5b3480156100cb57600080fd5b506100d461039b565b604051808215151515815260200191505060405180910390f35b3480156100fa57600080fd5b506101036103ae565b005b34801561011157600080fd5b50610146600480360381019080803573ffffffffffffffffffffffffffffffffffffffff169060200190929190505050610560565b6040518082815260200191505060405180910390f35b34801561016857600080fd5b50610171610578565b604051808215151515815260200191505060405180910390f35b34801561019757600080fd5b506101a061058b565b604051808273ffffffffffffffffffffffffffffffffffffffff1673ffffffffffffffffffffffffffffffffffffffff16815260200191505060405180910390f35b3480156101ee57600080fd5b506101f76105b1565b604051808273ffffffffffffffffffffffffffffffffffffffff1673ffffffffffffffffffffffffffffffffffffffff16815260200191505060405180910390f35b34801561024557600080fd5b5061024e6105d7565b005b34801561025c57600080fd5b506102656106fa565b6040518082815260200191505060405180910390f35b34801561028757600080fd5b50610290610700565b604051808273ffffffffffffffffffffffffffffffffffffffff1673ffffffffffffffffffffffffffffffffffffffff16815260200191505060405180910390f35b6102da610726565b005b3480156102e857600080fd5b506102f16107f6565b604051808215151515815260200191505060405180910390f35b34801561031757600080fd5b50610320610809565b6040518080602001828103825283818151815260200191508051906020019080838360005b83811015610360578082015181840152602081019050610345565b50505050905090810190601f16801561038d5780820380516001836020036101000a031916815260200191505b509250505060405180910390f35b600660019054906101000a900460ff1681565b6000806000600360009054906101000a900473ffffffffffffffffffffffffffffffffffffffff1673ffffffffffffffffffffffffffffffffffffffff1673ffffffffffffffffffffffffffffffffffffffff16815260200190815260200160002054141561041c57600080fd5b600360009054906101000a900473ffffffffffffffffffffffffffffffffffffffff1673ffffffffffffffffffffffffffffffffffffffff163373ffffffffffffffffffffffffffffffffffffffff161415610492576001600660016101000a81548160ff021916908315150217905550610505565b600260009054906101000a900473ffffffffffffffffffffffffffffffffffffffff1673ffffffffffffffffffffffffffffffffffffffff163373ffffffffffffffffffffffffffffffffffffffff161415610504576001600660006101000a81548160ff0219169083151502179055505b5b600660009054906101000a900460ff16801561052d5750600660019054906101000a900460ff165b1561055e5761053a6108a7565b610542610939565b6001600660026101000a81548160ff0219169083151502179055505b565b60006020528060005260406000206000915090505481565b600660009054906101000a900460ff1681565b600260009054906101000a900473ffffffffffffffffffffffffffffffffffffffff1681565b600360009054906101000a900473ffffffffffffffffffffffffffffffffffffffff1681565b600360009054906101000a900473ffffffffffffffffffffffffffffffffffffffff1673ffffffffffffffffffffffffffffffffffffffff163373ffffffffffffffffffffffffffffffffffffffff16141561064d576000600660016101000a81548160ff0219169083151502179055506106c0565b600260009054906101000a900473ffffffffffffffffffffffffffffffffffffffff1673ffffffffffffffffffffffffffffffffffffffff163373ffffffffffffffffffffffffffffffffffffffff1614156106bf576000600660006101000a81548160ff0219169083151502179055505b5b600660009054906101000a900460ff161580156106ea5750600660019054906101000a900460ff16155b156106f8576106f7610a15565b5b565b60045481565b600160009054906101000a900473ffffffffffffffffffffffffffffffffffffffff1681565b600360009054906101000a900473ffffffffffffffffffffffffffffffffffffffff1673ffffffffffffffffffffffffffffffffffffffff163373ffffffffffffffffffffffffffffffffffffffff1614156107ef5734600080600360009054906101000a900473ffffffffffffffffffffffffffffffffffffffff1673ffffffffffffffffffffffffffffffffffffffff1673ffffffffffffffffffffffffffffffffffffffff168152602001908152602001600020600082825401925050819055506107f4565b600080fd5b565b600660029054906101000a900460ff1681565b60058054600181600116156101000203166002900480601f01602080910402602001604051908101604052809291908181526020018280546001816001161561010002031660029004801561089f5780601f106108745761010080835404028352916020019161089f565b820191906000526020600020905b81548152906001019060200180831161088257829003601f168201915b505050505081565b600160009054906101000a900473ffffffffffffffffffffffffffffffffffffffff1673ffffffffffffffffffffffffffffffffffffffff166108fc60646004543073ffffffffffffffffffffffffffffffffffffffff16310281151561090a57fe5b049081150290604051600060405180830381858888f19350505050158015610936573d6000803e3d6000fd5b50565b600260009054906101000a900473ffffffffffffffffffffffffffffffffffffffff1673ffffffffffffffffffffffffffffffffffffffff166108fc3073ffffffffffffffffffffffffffffffffffffffff16319081150290604051600060405180830381858888f1935050505015610a13576000806000600360009054906101000a900473ffffffffffffffffffffffffffffffffffffffff1673ffffffffffffffffffffffffffffffffffffffff1673ffffffffffffffffffffffffffffffffffffffff168152602001908152602001600020819055505b565b60001515600660019054906101000a900460ff161515148015610a4b575060001515600660009054906101000a900460ff161515145b15610a8b57600360009054906101000a900473ffffffffffffffffffffffffffffffffffffffff1673ffffffffffffffffffffffffffffffffffffffff16ff5b5600a165627a7a723058207517e0dcab89d44c29702c63ceb121456311d0c37c509a3915e2b337fbbcd2120029",
  "source": "pragma solidity ^0.4.8;\r\n\r\ncontract BrandFunded {\r\n\r\n  // Store balances\r\n  mapping (address => uint) public balances;\r\n\r\n  // Static\r\n  address public owner;\r\n  address public sellerAddress;\r\n  address public buyerAddress;\r\n  uint public feePercent;\r\n  string public saleItem;\r\n\r\n  // State\r\n  bool public sellerApprove;\r\n  bool public buyerApprove;\r\n  bool public escrowComplete = false;\r\n\r\n  // Constructor\r\n  function BrandFunded(address _owner, address _sellerAddress, address _buyerAddress, uint _feePercent, string _saleItem) public {\r\n        if (_feePercent < 0 || _feePercent > 25) {\r\n          revert();\r\n        }\r\n        owner = msg.sender;\r\n        sellerAddress = _sellerAddress;\r\n        buyerAddress = _buyerAddress;\r\n        feePercent = _feePercent;\r\n        saleItem = _saleItem;\r\n        owner = _owner;\r\n  }\r\n\r\n  // buyer must place a deposit\r\n  function depositBuyerFunds() public payable {\r\n        if(msg.sender == buyerAddress) {\r\n          balances[buyerAddress] += msg.value;\r\n        }\r\n        else {\r\n          revert();\r\n        }\r\n    }\r\n\r\n  // Both buyer and seller must approve the deal, which sets up a chain reaction to complete\r\n  function approve() public {\r\n    if (balances[buyerAddress] == 0) {\r\n      revert();\r\n    }\r\n    if (msg.sender == buyerAddress) {\r\n      buyerApprove = true;\r\n    }\r\n    else if (msg.sender == sellerAddress) {\r\n      sellerApprove = true;\r\n    }\r\n    if (sellerApprove && buyerApprove) {\r\n      payFee();\r\n      paySeller();\r\n      escrowComplete = true;\r\n    }\r\n  }\r\n\r\n  // Abort the contract if buyer and seller agree\r\n  function voidContract() public {\r\n      if (msg.sender == buyerAddress) {\r\n        buyerApprove = false;\r\n      }\r\n      else if (msg.sender == sellerAddress) {\r\n        sellerApprove = false;\r\n      }\r\n      if (!sellerApprove && !buyerApprove) {\r\n        refundBuyer();\r\n      }\r\n  }\r\n\r\n  function paySeller() internal {\r\n    if (sellerAddress.send(address(this).balance)) {\r\n      balances[buyerAddress] = 0;\r\n    }\r\n  }\r\n\r\n  // Return funds to buyer if both parties agree contract is void\r\n  function refundBuyer() internal {\r\n    if (buyerApprove == false && sellerApprove == false) {\r\n      selfdestruct(buyerAddress);\r\n    }\r\n  }\r\n\r\n  // Pay fee to escrow service\r\n  function payFee() internal {\r\n      owner.transfer(address(this).balance * feePercent / 100 ); //% fee\r\n  }\r\n\r\n}\r\n",
  "sourcePath": "C:\\Users\\John\\EE-Proto\\blockchain-prototypes-framework\\contracts\\brandFunded\\BrandFunded.sol",
  "compiler": {
    "name": "solc",
    "version": "0.4.23+commit.124ca40d.Emscripten.clang"
  },
  "schemaVersion": "2.0.0",
  "updatedAt": "2018-05-17T06:55:59.337Z"
}