{
  "contractName": "EIP20",
  "abi": [
    {
      "constant": true,
      "inputs": [],
      "name": "name",
      "outputs": [
        {
          "name": "",
          "type": "string"
        }
      ],
      "payable": false,
      "stateMutability": "view",
      "type": "function"
    },
    {
      "constant": true,
      "inputs": [],
      "name": "totalSupply",
      "outputs": [
        {
          "name": "",
          "type": "uint256"
        }
      ],
      "payable": false,
      "stateMutability": "view",
      "type": "function"
    },
    {
      "constant": true,
      "inputs": [],
      "name": "issuer",
      "outputs": [
        {
          "name": "",
          "type": "address"
        }
      ],
      "payable": false,
      "stateMutability": "view",
      "type": "function"
    },
    {
      "constant": true,
      "inputs": [],
      "name": "isTransferable",
      "outputs": [
        {
          "name": "",
          "type": "bool"
        }
      ],
      "payable": false,
      "stateMutability": "view",
      "type": "function"
    },
    {
      "constant": true,
      "inputs": [
        {
          "name": "",
          "type": "address"
        }
      ],
      "name": "balances",
      "outputs": [
        {
          "name": "",
          "type": "uint256"
        }
      ],
      "payable": false,
      "stateMutability": "view",
      "type": "function"
    },
    {
      "constant": true,
      "inputs": [],
      "name": "decimals",
      "outputs": [
        {
          "name": "",
          "type": "uint8"
        }
      ],
      "payable": false,
      "stateMutability": "view",
      "type": "function"
    },
    {
      "constant": true,
      "inputs": [
        {
          "name": "",
          "type": "address"
        },
        {
          "name": "",
          "type": "address"
        }
      ],
      "name": "allowed",
      "outputs": [
        {
          "name": "",
          "type": "uint256"
        }
      ],
      "payable": false,
      "stateMutability": "view",
      "type": "function"
    },
    {
      "constant": true,
      "inputs": [],
      "name": "symbol",
      "outputs": [
        {
          "name": "",
          "type": "string"
        }
      ],
      "payable": false,
      "stateMutability": "view",
      "type": "function"
    },
    {
      "constant": true,
      "inputs": [],
      "name": "isPointsOnly",
      "outputs": [
        {
          "name": "",
          "type": "bool"
        }
      ],
      "payable": false,
      "stateMutability": "view",
      "type": "function"
    },
    {
      "constant": true,
      "inputs": [],
      "name": "exchangeRateToEth",
      "outputs": [
        {
          "name": "",
          "type": "string"
        }
      ],
      "payable": false,
      "stateMutability": "view",
      "type": "function"
    },
    {
      "inputs": [
        {
          "name": "_initialAmount",
          "type": "uint256"
        },
        {
          "name": "_tokenName",
          "type": "string"
        },
        {
          "name": "_decimalUnits",
          "type": "uint8"
        },
        {
          "name": "_tokenSymbol",
          "type": "string"
        },
        {
          "name": "_exchangeRateToEth",
          "type": "string"
        },
        {
          "name": "_isPointsOnly",
          "type": "bool"
        },
        {
          "name": "_issuer",
          "type": "address"
        },
        {
          "name": "_isTransferable",
          "type": "bool"
        }
      ],
      "payable": false,
      "stateMutability": "nonpayable",
      "type": "constructor"
    },
    {
      "anonymous": false,
      "inputs": [
        {
          "indexed": false,
          "name": "to",
          "type": "address"
        },
        {
          "indexed": false,
          "name": "value",
          "type": "uint256"
        }
      ],
      "name": "LogSell",
      "type": "event"
    },
    {
      "anonymous": false,
      "inputs": [
        {
          "indexed": true,
          "name": "_from",
          "type": "address"
        },
        {
          "indexed": true,
          "name": "_to",
          "type": "address"
        },
        {
          "indexed": false,
          "name": "_value",
          "type": "uint256"
        }
      ],
      "name": "Transfer",
      "type": "event"
    },
    {
      "anonymous": false,
      "inputs": [
        {
          "indexed": true,
          "name": "_owner",
          "type": "address"
        },
        {
          "indexed": true,
          "name": "_spender",
          "type": "address"
        },
        {
          "indexed": false,
          "name": "_value",
          "type": "uint256"
        }
      ],
      "name": "Approval",
      "type": "event"
    },
    {
      "constant": false,
      "inputs": [
        {
          "name": "_to",
          "type": "address"
        },
        {
          "name": "_value",
          "type": "uint256"
        }
      ],
      "name": "transfer",
      "outputs": [
        {
          "name": "success",
          "type": "bool"
        }
      ],
      "payable": false,
      "stateMutability": "nonpayable",
      "type": "function"
    },
    {
      "constant": false,
      "inputs": [
        {
          "name": "_from",
          "type": "address"
        },
        {
          "name": "_to",
          "type": "address"
        },
        {
          "name": "_value",
          "type": "uint256"
        }
      ],
      "name": "transferFrom",
      "outputs": [
        {
          "name": "success",
          "type": "bool"
        }
      ],
      "payable": false,
      "stateMutability": "nonpayable",
      "type": "function"
    },
    {
      "constant": true,
      "inputs": [
        {
          "name": "_owner",
          "type": "address"
        }
      ],
      "name": "balanceOf",
      "outputs": [
        {
          "name": "balance",
          "type": "uint256"
        }
      ],
      "payable": false,
      "stateMutability": "view",
      "type": "function"
    },
    {
      "constant": false,
      "inputs": [
        {
          "name": "_spender",
          "type": "address"
        },
        {
          "name": "_value",
          "type": "uint256"
        }
      ],
      "name": "approve",
      "outputs": [
        {
          "name": "success",
          "type": "bool"
        }
      ],
      "payable": false,
      "stateMutability": "nonpayable",
      "type": "function"
    },
    {
      "constant": true,
      "inputs": [
        {
          "name": "_owner",
          "type": "address"
        },
        {
          "name": "_spender",
          "type": "address"
        }
      ],
      "name": "allowance",
      "outputs": [
        {
          "name": "remaining",
          "type": "uint256"
        }
      ],
      "payable": false,
      "stateMutability": "view",
      "type": "function"
    },
    {
      "constant": false,
      "inputs": [
        {
          "name": "_amount",
          "type": "uint256"
        }
      ],
      "name": "buyOrder",
      "outputs": [
        {
          "name": "success",
          "type": "bool"
        }
      ],
      "payable": true,
      "stateMutability": "payable",
      "type": "function"
    },
    {
      "constant": false,
      "inputs": [
        {
          "name": "_from",
          "type": "address"
        },
        {
          "name": "_to",
          "type": "address"
        },
        {
          "name": "_amount",
          "type": "uint256"
        }
      ],
      "name": "processBuyOrder",
      "outputs": [
        {
          "name": "success",
          "type": "bool"
        }
      ],
      "payable": false,
      "stateMutability": "nonpayable",
      "type": "function"
    },
    {
      "constant": false,
      "inputs": [
        {
          "name": "_amount",
          "type": "uint256"
        },
        {
          "name": "_value",
          "type": "uint256"
        }
      ],
      "name": "sellOrder",
      "outputs": [
        {
          "name": "success",
          "type": "bool"
        }
      ],
      "payable": true,
      "stateMutability": "payable",
      "type": "function"
    },
    {
      "constant": false,
      "inputs": [
        {
          "name": "_seller",
          "type": "address"
        },
        {
          "name": "_issuer",
          "type": "address"
        },
        {
          "name": "_amountToken",
          "type": "uint256"
        },
        {
          "name": "_valueEth",
          "type": "uint256"
        }
      ],
      "name": "processSellOrder",
      "outputs": [
        {
          "name": "success",
          "type": "bool"
        }
      ],
      "payable": false,
      "stateMutability": "nonpayable",
      "type": "function"
    }
  ],
  "bytecode": "0x606060405234156200001057600080fd5b60405162001661380380620016618339810160405280805190602001909190805182019190602001805190602001909190805182019190602001805182019190602001805190602001909190805190602001909190805190602001909190505087600260003373ffffffffffffffffffffffffffffffffffffffff1673ffffffffffffffffffffffffffffffffffffffff16815260200190815260200160002081905550876000819055508660049080519060200190620000d3929190620001a4565b5085600560006101000a81548160ff021916908360ff160217905550846006908051906020019062000107929190620001a4565b50836007908051906020019062000120929190620001a4565b5082600860006101000a81548160ff02191690831515021790555081600160006101000a81548173ffffffffffffffffffffffffffffffffffffffff021916908373ffffffffffffffffffffffffffffffffffffffff16021790555080600860016101000a81548160ff021916908315150217905550505050505050505062000253565b828054600181600116156101000203166002900490600052602060002090601f016020900481019282601f10620001e757805160ff191683800117855562000218565b8280016001018555821562000218579182015b8281111562000217578251825591602001919060010190620001fa565b5b5090506200022791906200022b565b5090565b6200025091905b808211156200024c57600081600090555060010162000232565b5090565b90565b6113fe80620002636000396000f300606060405260043610610107576000357c0100000000000000000000000000000000000000000000000000000000900463ffffffff16806306fdde031461010c578063095ea7b31461019a57806318160ddd146101f45780631d1438481461021d5780632121dc751461027257806322f85eaa1461029f57806323b872dd146102cf57806327e235e314610348578063313ce5671461039557806351e18585146103c45780635c6581651461043d57806370a08231146104a957806377a4485f146104f657806395d89b4114610578578063a9059cbb14610606578063cba9be0c14610660578063cd61a95a1461068d578063dd62ed3e146106c6578063f01600fa14610732575b600080fd5b341561011757600080fd5b61011f6107c0565b6040518080602001828103825283818151815260200191508051906020019080838360005b8381101561015f578082015181840152602081019050610144565b50505050905090810190601f16801561018c5780820380516001836020036101000a031916815260200191505b509250505060405180910390f35b34156101a557600080fd5b6101da600480803573ffffffffffffffffffffffffffffffffffffffff1690602001909190803590602001909190505061085e565b604051808215151515815260200191505060405180910390f35b34156101ff57600080fd5b610207610950565b6040518082815260200191505060405180910390f35b341561022857600080fd5b610230610956565b604051808273ffffffffffffffffffffffffffffffffffffffff1673ffffffffffffffffffffffffffffffffffffffff16815260200191505060405180910390f35b341561027d57600080fd5b61028561097c565b604051808215151515815260200191505060405180910390f35b6102b5600480803590602001909190505061098f565b604051808215151515815260200191505060405180910390f35b34156102da57600080fd5b61032e600480803573ffffffffffffffffffffffffffffffffffffffff1690602001909190803573ffffffffffffffffffffffffffffffffffffffff169060200190919080359060200190919050506109d5565b604051808215151515815260200191505060405180910390f35b341561035357600080fd5b61037f600480803573ffffffffffffffffffffffffffffffffffffffff16906020019091905050610c6f565b6040518082815260200191505060405180910390f35b34156103a057600080fd5b6103a8610c87565b604051808260ff1660ff16815260200191505060405180910390f35b34156103cf57600080fd5b610423600480803573ffffffffffffffffffffffffffffffffffffffff1690602001909190803573ffffffffffffffffffffffffffffffffffffffff16906020019091908035906020019091905050610c9a565b604051808215151515815260200191505060405180910390f35b341561044857600080fd5b610493600480803573ffffffffffffffffffffffffffffffffffffffff1690602001909190803573ffffffffffffffffffffffffffffffffffffffff16906020019091905050610df4565b6040518082815260200191505060405180910390f35b34156104b457600080fd5b6104e0600480803573ffffffffffffffffffffffffffffffffffffffff16906020019091905050610e19565b6040518082815260200191505060405180910390f35b341561050157600080fd5b61055e600480803573ffffffffffffffffffffffffffffffffffffffff1690602001909190803573ffffffffffffffffffffffffffffffffffffffff16906020019091908035906020019091908035906020019091905050610e62565b604051808215151515815260200191505060405180910390f35b341561058357600080fd5b61058b611068565b6040518080602001828103825283818151815260200191508051906020019080838360005b838110156105cb5780820151818401526020810190506105b0565b50505050905090810190601f1680156105f85780820380516001836020036101000a031916815260200191505b509250505060405180910390f35b341561061157600080fd5b610646600480803573ffffffffffffffffffffffffffffffffffffffff16906020019091908035906020019091905050611106565b604051808215151515815260200191505060405180910390f35b341561066b57600080fd5b61067361125f565b604051808215151515815260200191505060405180910390f35b6106ac6004808035906020019091908035906020019091905050611272565b604051808215151515815260200191505060405180910390f35b34156106d157600080fd5b61071c600480803573ffffffffffffffffffffffffffffffffffffffff1690602001909190803573ffffffffffffffffffffffffffffffffffffffff169060200190919050506112ad565b6040518082815260200191505060405180910390f35b341561073d57600080fd5b610745611334565b6040518080602001828103825283818151815260200191508051906020019080838360005b8381101561078557808201518184015260208101905061076a565b50505050905090810190601f1680156107b25780820380516001836020036101000a031916815260200191505b509250505060405180910390f35b60048054600181600116156101000203166002900480601f0160208091040260200160405190810160405280929190818152602001828054600181600116156101000203166002900480156108565780601f1061082b57610100808354040283529160200191610856565b820191906000526020600020905b81548152906001019060200180831161083957829003601f168201915b505050505081565b600081600360003373ffffffffffffffffffffffffffffffffffffffff1673ffffffffffffffffffffffffffffffffffffffff16815260200190815260200160002060008573ffffffffffffffffffffffffffffffffffffffff1673ffffffffffffffffffffffffffffffffffffffff168152602001908152602001600020819055508273ffffffffffffffffffffffffffffffffffffffff163373ffffffffffffffffffffffffffffffffffffffff167f8c5be1e5ebec7d5bd14f71427d1e84f3dd0314c0f7b2291e5b200ac8c7c3b925846040518082815260200191505060405180910390a36001905092915050565b60005481565b600160009054906101000a900473ffffffffffffffffffffffffffffffffffffffff1681565b600860019054906101000a900460ff1681565b60008034141561099e57600080fd5b6109cb600160009054906101000a900473ffffffffffffffffffffffffffffffffffffffff163384610c9a565b5060019050919050565b600080600360008673ffffffffffffffffffffffffffffffffffffffff1673ffffffffffffffffffffffffffffffffffffffff16815260200190815260200160002060003373ffffffffffffffffffffffffffffffffffffffff1673ffffffffffffffffffffffffffffffffffffffff16815260200190815260200160002054905082600260008773ffffffffffffffffffffffffffffffffffffffff1673ffffffffffffffffffffffffffffffffffffffff1681526020019081526020016000205410158015610aa65750828110155b1515610ab157600080fd5b82600260008673ffffffffffffffffffffffffffffffffffffffff1673ffffffffffffffffffffffffffffffffffffffff1681526020019081526020016000206000828254019250508190555082600260008773ffffffffffffffffffffffffffffffffffffffff1673ffffffffffffffffffffffffffffffffffffffff168152602001908152602001600020600082825403925050819055507fffffffffffffffffffffffffffffffffffffffffffffffffffffffffffffffff811015610bfe5782600360008773ffffffffffffffffffffffffffffffffffffffff1673ffffffffffffffffffffffffffffffffffffffff16815260200190815260200160002060003373ffffffffffffffffffffffffffffffffffffffff1673ffffffffffffffffffffffffffffffffffffffff168152602001908152602001600020600082825403925050819055505b8373ffffffffffffffffffffffffffffffffffffffff168573ffffffffffffffffffffffffffffffffffffffff167fddf252ad1be2c89b69c2b068fc378daa952ba7f163c4a11628f55a4df523b3ef856040518082815260200191505060405180910390a360019150509392505050565b60026020528060005260406000206000915090505481565b600560009054906101000a900460ff1681565b600081600260008673ffffffffffffffffffffffffffffffffffffffff1673ffffffffffffffffffffffffffffffffffffffff1681526020019081526020016000205410151515610cea57600080fd5b81600260008573ffffffffffffffffffffffffffffffffffffffff1673ffffffffffffffffffffffffffffffffffffffff1681526020019081526020016000206000828254019250508190555081600260008673ffffffffffffffffffffffffffffffffffffffff1673ffffffffffffffffffffffffffffffffffffffff168152602001908152602001600020600082825403925050819055508273ffffffffffffffffffffffffffffffffffffffff168473ffffffffffffffffffffffffffffffffffffffff167fddf252ad1be2c89b69c2b068fc378daa952ba7f163c4a11628f55a4df523b3ef846040518082815260200191505060405180910390a3600190509392505050565b6003602052816000526040600020602052806000526040600020600091509150505481565b6000600260008373ffffffffffffffffffffffffffffffffffffffff1673ffffffffffffffffffffffffffffffffffffffff168152602001908152602001600020549050919050565b600082600260008773ffffffffffffffffffffffffffffffffffffffff1673ffffffffffffffffffffffffffffffffffffffff1681526020019081526020016000205410151515610eb257600080fd5b82600260008673ffffffffffffffffffffffffffffffffffffffff1673ffffffffffffffffffffffffffffffffffffffff1681526020019081526020016000206000828254019250508190555082600260008773ffffffffffffffffffffffffffffffffffffffff1673ffffffffffffffffffffffffffffffffffffffff168152602001908152602001600020600082825403925050819055508373ffffffffffffffffffffffffffffffffffffffff168573ffffffffffffffffffffffffffffffffffffffff167fddf252ad1be2c89b69c2b068fc378daa952ba7f163c4a11628f55a4df523b3ef856040518082815260200191505060405180910390a38473ffffffffffffffffffffffffffffffffffffffff166108fc839081150290604051600060405180830381858888f193505050501515610ff157600080fd5b7f6d74b7d23d2b62eb76d93aaf6a23906533fd8896f2e79560523cf55d7e65547f8583604051808373ffffffffffffffffffffffffffffffffffffffff1673ffffffffffffffffffffffffffffffffffffffff1681526020018281526020019250505060405180910390a160019050949350505050565b60068054600181600116156101000203166002900480601f0160208091040260200160405190810160405280929190818152602001828054600181600116156101000203166002900480156110fe5780601f106110d3576101008083540402835291602001916110fe565b820191906000526020600020905b8154815290600101906020018083116110e157829003601f168201915b505050505081565b600081600260003373ffffffffffffffffffffffffffffffffffffffff1673ffffffffffffffffffffffffffffffffffffffff168152602001908152602001600020541015151561115657600080fd5b81600260003373ffffffffffffffffffffffffffffffffffffffff1673ffffffffffffffffffffffffffffffffffffffff1681526020019081526020016000206000828254039250508190555081600260008573ffffffffffffffffffffffffffffffffffffffff1673ffffffffffffffffffffffffffffffffffffffff168152602001908152602001600020600082825401925050819055508273ffffffffffffffffffffffffffffffffffffffff163373ffffffffffffffffffffffffffffffffffffffff167fddf252ad1be2c89b69c2b068fc378daa952ba7f163c4a11628f55a4df523b3ef846040518082815260200191505060405180910390a36001905092915050565b600860009054906101000a900460ff1681565b60006112a233600160009054906101000a900473ffffffffffffffffffffffffffffffffffffffff168585610e62565b506001905092915050565b6000600360008473ffffffffffffffffffffffffffffffffffffffff1673ffffffffffffffffffffffffffffffffffffffff16815260200190815260200160002060008373ffffffffffffffffffffffffffffffffffffffff1673ffffffffffffffffffffffffffffffffffffffff16815260200190815260200160002054905092915050565b60078054600181600116156101000203166002900480601f0160208091040260200160405190810160405280929190818152602001828054600181600116156101000203166002900480156113ca5780601f1061139f576101008083540402835291602001916113ca565b820191906000526020600020905b8154815290600101906020018083116113ad57829003601f168201915b5050505050815600a165627a7a723058204be799927a2314588a0971df10881779c5e24e8a9559f5544e4dbb3c5d6f291a0029",
  "source": "/*\r\nImplements EIP20 token standard: https://github.com/ethereum/EIPs/blob/master/EIPS/eip-20.md\r\n.*/\r\n\r\n\r\npragma solidity ^0.4.21;\r\n\r\nimport \"./EIP20Interface.sol\";\r\n\r\n\r\ncontract EIP20 is EIP20Interface {\r\n\r\n    address public issuer;\r\n    uint256 constant private MAX_UINT256 = 2**256 - 1;\r\n    mapping (address => uint256) public balances;\r\n    mapping (address => mapping (address => uint256)) public allowed;\r\n    /*\r\n    NOTE:\r\n    The following variables are OPTIONAL vanities. One does not have to include them.\r\n    They allow one to customise the token contract & in no way influences the core functionality.\r\n    Some wallets/interfaces might not even bother to look at this information.\r\n    */\r\n    string public name;                   //fancy name: eg TRUMP COIN\r\n    uint8 public decimals;                //How many decimals to show.\r\n    string public symbol;                 //An identifier: eg TMP\r\n    string public exchangeRateToEth;      //Token to Eth exchange rate (0.5 means 2 Tokens = 1 Eth)\r\n    bool public isPointsOnly;             //Used as tokens, not a currency and non-exchangeable\r\n    bool public isTransferable;           //Trasnferability between users\r\n\r\n    event LogSell(address to, uint value);\r\n\r\n    function EIP20(\r\n        uint256 _initialAmount,\r\n        string _tokenName,\r\n        uint8 _decimalUnits,\r\n        string _tokenSymbol,\r\n        string _exchangeRateToEth,\r\n        bool _isPointsOnly,\r\n        address _issuer,\r\n        bool _isTransferable\r\n    ) public {\r\n        balances[msg.sender] = _initialAmount;               // Give the creator all initial tokens\r\n        totalSupply = _initialAmount;                        // Update total supply\r\n        name = _tokenName;                                   // Set the name for display purposes\r\n        decimals = _decimalUnits;                            // Amount of decimals for display purposes\r\n        symbol = _tokenSymbol;                               // Set the symbol for display purposes\r\n        exchangeRateToEth = _exchangeRateToEth;              // Set a fixed exchange exhange rate (otherwise assume floating or pointsOnly)\r\n        isPointsOnly = _isPointsOnly;                        // Points only, not an exchangeable currency\r\n        issuer = _issuer;\r\n        isTransferable = _isTransferable;\r\n    }\r\n\r\n    function transfer(address _to, uint256 _value) public returns (bool success) {\r\n        require(balances[msg.sender] >= _value);\r\n        balances[msg.sender] -= _value;\r\n        balances[_to] += _value;\r\n        emit Transfer(msg.sender, _to, _value); //solhint-disable-line indent, no-unused-vars\r\n        return true;\r\n    }\r\n\r\n    function transferFrom(address _from, address _to, uint256 _value) public returns (bool success) {\r\n        uint256 allowance = allowed[_from][msg.sender];\r\n        require(balances[_from] >= _value && allowance >= _value);\r\n        balances[_to] += _value;\r\n        balances[_from] -= _value;\r\n        if (allowance < MAX_UINT256) {\r\n            allowed[_from][msg.sender] -= _value;\r\n        }\r\n        emit Transfer(_from, _to, _value); //solhint-disable-line indent, no-unused-vars\r\n        return true;\r\n    }\r\n\r\n    function balanceOf(address _owner) public view returns (uint256 balance) {\r\n        return balances[_owner];\r\n    }\r\n\r\n    function approve(address _spender, uint256 _value) public returns (bool success) {\r\n        allowed[msg.sender][_spender] = _value;\r\n        emit Approval(msg.sender, _spender, _value); //solhint-disable-line indent, no-unused-vars\r\n        return true;\r\n    }\r\n\r\n    function allowance(address _owner, address _spender) public view returns (uint256 remaining) {\r\n        return allowed[_owner][_spender];\r\n    }\r\n\r\n    //buy tokens - send them from contract owner to buyer\r\n    function buyOrder(uint256 _amount) public payable returns (bool success) {\r\n        // reject payments of 0 ETH\r\n        if (msg.value == 0) {\r\n          revert();\r\n        }\r\n        processBuyOrder(issuer, msg.sender, _amount);\r\n        return true;\r\n    }\r\n\r\n    // A relaxed version of the TransferFrom Method for demo purposes - need to understand properly how allowances work...\r\n    function processBuyOrder(address _from, address _to, uint256 _amount) public returns (bool success) {\r\n        require(balances[_from] >= _amount);\r\n        balances[_to] += _amount;\r\n        balances[_from] -= _amount;\r\n        emit Transfer(_from, _to, _amount); //solhint-disable-line indent, no-unused-vars\r\n        return true;\r\n    }\r\n\r\n    //sell tokens - (very insecure!!) send eth from contract to buyer - obviously this is insecure. needs a separate exchange contract\r\n    function sellOrder(uint256 _amount, uint256 _value) public payable returns (bool success) {\r\n        processSellOrder(msg.sender, issuer, _amount, _value);\r\n        return true;\r\n    }\r\n\r\n    // A relaxed version of the TransferFrom Method for demo purposes - need to understand properly how allowances work...\r\n    function processSellOrder(address _seller, address _issuer, uint256 _amountToken, uint256 _valueEth) public returns (bool success) {\r\n        require(balances[_seller] >= _amountToken);\r\n        balances[_issuer] += _amountToken;\r\n        balances[_seller] -= _amountToken;\r\n\r\n        emit Transfer(_seller, _issuer, _amountToken); //solhint-disable-line indent, no-unused-vars\r\n\r\n        // Send eth to _to address\r\n        _seller.transfer(_valueEth);\r\n        emit LogSell(_seller, _valueEth);\r\n\r\n        return true;\r\n    }\r\n\r\n}\r\n",
  "sourcePath": "C:\\Users\\john.durrant\\EE-Prototype\\blockchain-prototypes-framework\\contracts\\EIP20\\EIP20.sol",
  "compiler": {
    "name": "solc",
    "version": "0.4.21+commit.dfe3193c.Emscripten.clang"
  },
  "schemaVersion": "2.0.0",
  "updatedAt": "2018-05-23T07:42:47.675Z"
}