{
  "contractName": "EIP20Factory",
  "abi": [
    {
      "constant": true,
      "inputs": [
        {
          "name": "",
          "type": "address"
        },
        {
          "name": "",
          "type": "uint256"
        }
      ],
      "name": "created",
      "outputs": [
        {
          "name": "",
          "type": "address"
        }
      ],
      "payable": false,
      "stateMutability": "view",
      "type": "function"
    },
    {
      "constant": true,
      "inputs": [
        {
          "name": "",
          "type": "address"
        }
      ],
      "name": "isEIP20",
      "outputs": [
        {
          "name": "",
          "type": "bool"
        }
      ],
      "payable": false,
      "stateMutability": "view",
      "type": "function"
    },
    {
      "constant": true,
      "inputs": [],
      "name": "EIP20ByteCode",
      "outputs": [
        {
          "name": "",
          "type": "bytes"
        }
      ],
      "payable": false,
      "stateMutability": "view",
      "type": "function"
    },
    {
      "constant": true,
      "inputs": [
        {
          "name": "",
          "type": "uint256"
        }
      ],
      "name": "eip20Contracts",
      "outputs": [
        {
          "name": "",
          "type": "address"
        }
      ],
      "payable": false,
      "stateMutability": "view",
      "type": "function"
    },
    {
      "inputs": [],
      "payable": false,
      "stateMutability": "nonpayable",
      "type": "constructor"
    },
    {
      "constant": true,
      "inputs": [
        {
          "name": "_tokenContract",
          "type": "address"
        }
      ],
      "name": "verifyEIP20",
      "outputs": [
        {
          "name": "",
          "type": "bool"
        }
      ],
      "payable": false,
      "stateMutability": "view",
      "type": "function"
    },
    {
      "constant": false,
      "inputs": [
        {
          "name": "_initialAmount",
          "type": "uint256"
        },
        {
          "name": "_name",
          "type": "string"
        },
        {
          "name": "_decimals",
          "type": "uint8"
        },
        {
          "name": "_symbol",
          "type": "string"
        },
        {
          "name": "_exchangeRateToEth",
          "type": "string"
        },
        {
          "name": "_isPointsOnly",
          "type": "bool"
        }
      ],
      "name": "createEIP20",
      "outputs": [
        {
          "name": "",
          "type": "address"
        }
      ],
      "payable": false,
      "stateMutability": "nonpayable",
      "type": "function"
    },
    {
      "constant": true,
      "inputs": [],
      "name": "allEIP20Contracts",
      "outputs": [
        {
          "name": "",
          "type": "address[]"
        }
      ],
      "payable": false,
      "stateMutability": "view",
      "type": "function"
    }
  ],
  "bytecode": "0x608060405234801561001057600080fd5b50611c36806100206000396000f300608060405260043610610083576000357c0100000000000000000000000000000000000000000000000000000000900463ffffffff1680635f8dead314610088578063706438d1146101155780637cf6283814610170578063ad1aaa5014610200578063c93c79151461026d578063cd4d6895146103c5578063f21294a514610420575b600080fd5b34801561009457600080fd5b506100d3600480360381019080803573ffffffffffffffffffffffffffffffffffffffff1690602001909291908035906020019092919050505061048c565b604051808273ffffffffffffffffffffffffffffffffffffffff1673ffffffffffffffffffffffffffffffffffffffff16815260200191505060405180910390f35b34801561012157600080fd5b50610156600480360381019080803573ffffffffffffffffffffffffffffffffffffffff1690602001909291905050506104d9565b604051808215151515815260200191505060405180910390f35b34801561017c57600080fd5b506101856104f9565b6040518080602001828103825283818151815260200191508051906020019080838360005b838110156101c55780820151818401526020810190506101aa565b50505050905090810190601f1680156101f25780820380516001836020036101000a031916815260200191505b509250505060405180910390f35b34801561020c57600080fd5b5061022b60048036038101908080359060200190929190505050610597565b604051808273ffffffffffffffffffffffffffffffffffffffff1673ffffffffffffffffffffffffffffffffffffffff16815260200191505060405180910390f35b34801561027957600080fd5b5061038360048036038101908080359060200190929190803590602001908201803590602001908080601f0160208091040260200160405190810160405280939291908181526020018383808284378201915050505050509192919290803560ff169060200190929190803590602001908201803590602001908080601f0160208091040260200160405190810160405280939291908181526020018383808284378201915050505050509192919290803590602001908201803590602001908080601f01602080910402602001604051908101604052809392919081815260200183838082843782019150505050505091929192908035151590602001909291905050506105d5565b604051808273ffffffffffffffffffffffffffffffffffffffff1673ffffffffffffffffffffffffffffffffffffffff16815260200191505060405180910390f35b3480156103d157600080fd5b50610406600480360381019080803573ffffffffffffffffffffffffffffffffffffffff1690602001909291905050506109b9565b604051808215151515815260200191505060405180910390f35b34801561042c57600080fd5b50610435610b2c565b6040518080602001828103825283818151815260200191508051906020019060200280838360005b8381101561047857808201518184015260208101905061045d565b505050509050019250505060405180910390f35b6001602052816000526040600020818154811015156104a757fe5b906000526020600020016000915091509054906101000a900473ffffffffffffffffffffffffffffffffffffffff1681565b60026020528060005260406000206000915054906101000a900460ff1681565b60038054600181600116156101000203166002900480601f01602080910402602001604051908101604052809291908181526020018280546001816001161561010002031660029004801561058f5780601f106105645761010080835404028352916020019161058f565b820191906000526020600020905b81548152906001019060200180831161057257829003601f168201915b505050505081565b6000818154811015156105a657fe5b906000526020600020016000915054906101000a900473ffffffffffffffffffffffffffffffffffffffff1681565b6000808787878787876105e6610be5565b80878152602001806020018660ff1660ff168152602001806020018060200185151515158152602001848103845289818151815260200191508051906020019080838360005b8381101561064757808201518184015260208101905061062c565b50505050905090810190601f1680156106745780820380516001836020036101000a031916815260200191505b50848103835287818151815260200191508051906020019080838360005b838110156106ad578082015181840152602081019050610692565b50505050905090810190601f1680156106da5780820380516001836020036101000a031916815260200191505b50848103825286818151815260200191508051906020019080838360005b838110156107135780820151818401526020810190506106f8565b50505050905090810190601f1680156107405780820380516001836020036101000a031916815260200191505b509950505050505050505050604051809103906000f080158015610768573d6000803e3d6000fd5b509050600160003373ffffffffffffffffffffffffffffffffffffffff1673ffffffffffffffffffffffffffffffffffffffff1681526020019081526020016000208190806001815401808255809150509060018203906000526020600020016000909192909190916101000a81548173ffffffffffffffffffffffffffffffffffffffff021916908373ffffffffffffffffffffffffffffffffffffffff1602179055505060008190806001815401808255809150509060018203906000526020600020016000909192909190916101000a81548173ffffffffffffffffffffffffffffffffffffffff021916908373ffffffffffffffffffffffffffffffffffffffff160217905550506001600260008373ffffffffffffffffffffffffffffffffffffffff1673ffffffffffffffffffffffffffffffffffffffff16815260200190815260200160002060006101000a81548160ff0219169083151502179055508073ffffffffffffffffffffffffffffffffffffffff1663a9059cbb338a6040518363ffffffff167c0100000000000000000000000000000000000000000000000000000000028152600401808373ffffffffffffffffffffffffffffffffffffffff1673ffffffffffffffffffffffffffffffffffffffff16815260200182815260200192505050602060405180830381600087803b15801561096f57600080fd5b505af1158015610983573d6000803e3d6000fd5b505050506040513d602081101561099957600080fd5b810190808051906020019092919050505050809150509695505050505050565b6000606060006109c884610bba565b9150600380546001816001161561010002031660029004905082511415156109f35760009250610b25565b600090505b8151811015610b20576003818154600181600116156101000203166002900481101515610a2157fe5b815460011615610a405790600052602060002090602091828204019190065b9054901a7f0100000000000000000000000000000000000000000000000000000000000000027effffffffffffffffffffffffffffffffffffffffffffffffffffffffffffff19168282815181101515610a9657fe5b9060200101517f010000000000000000000000000000000000000000000000000000000000000090047f0100000000000000000000000000000000000000000000000000000000000000027effffffffffffffffffffffffffffffffffffffffffffffffffffffffffffff1916141515610b135760009250610b25565b80806001019150506109f8565b600192505b5050919050565b60606000805480602002602001604051908101604052809291908181526020018280548015610bb057602002820191906000526020600020905b8160009054906101000a900473ffffffffffffffffffffffffffffffffffffffff1673ffffffffffffffffffffffffffffffffffffffff1681526020019060010190808311610b66575b5050505050905090565b6060813b6040519150601f19601f602083010116820160405280825280600060208401853c50919050565b60405161101580610bf683390190560060806040523480156200001157600080fd5b50604051620010153803806200101583398101806040528101908080519060200190929190805182019291906020018051906020019092919080518201929190602001805182019291906020018051906020019092919050505085600160003373ffffffffffffffffffffffffffffffffffffffff1673ffffffffffffffffffffffffffffffffffffffff16815260200190815260200160002081905550856000819055508460039080519060200190620000ce92919062000142565b5083600460006101000a81548160ff021916908360ff16021790555082600590805190602001906200010292919062000142565b5081600690805190602001906200011b92919062000142565b5080600760006101000a81548160ff021916908315150217905550505050505050620001f1565b828054600181600116156101000203166002900490600052602060002090601f016020900481019282601f106200018557805160ff1916838001178555620001b6565b82800160010185558215620001b6579182015b82811115620001b557825182559160200191906001019062000198565b5b509050620001c59190620001c9565b5090565b620001ee91905b80821115620001ea576000816000905550600101620001d0565b5090565b90565b610e1480620002016000396000f3006080604052600436106100c5576000357c0100000000000000000000000000000000000000000000000000000000900463ffffffff16806306fdde03146100ca578063095ea7b31461015a57806318160ddd146101bf57806323b872dd146101ea57806327e235e31461026f578063313ce567146102c65780635c658165146102f757806370a082311461036e57806395d89b41146103c5578063a9059cbb14610455578063cba9be0c146104ba578063dd62ed3e146104e9578063f01600fa14610560575b600080fd5b3480156100d657600080fd5b506100df6105f0565b6040518080602001828103825283818151815260200191508051906020019080838360005b8381101561011f578082015181840152602081019050610104565b50505050905090810190601f16801561014c5780820380516001836020036101000a031916815260200191505b509250505060405180910390f35b34801561016657600080fd5b506101a5600480360381019080803573ffffffffffffffffffffffffffffffffffffffff1690602001909291908035906020019092919050505061068e565b604051808215151515815260200191505060405180910390f35b3480156101cb57600080fd5b506101d4610780565b6040518082815260200191505060405180910390f35b3480156101f657600080fd5b50610255600480360381019080803573ffffffffffffffffffffffffffffffffffffffff169060200190929190803573ffffffffffffffffffffffffffffffffffffffff16906020019092919080359060200190929190505050610786565b604051808215151515815260200191505060405180910390f35b34801561027b57600080fd5b506102b0600480360381019080803573ffffffffffffffffffffffffffffffffffffffff169060200190929190505050610a20565b6040518082815260200191505060405180910390f35b3480156102d257600080fd5b506102db610a38565b604051808260ff1660ff16815260200191505060405180910390f35b34801561030357600080fd5b50610358600480360381019080803573ffffffffffffffffffffffffffffffffffffffff169060200190929190803573ffffffffffffffffffffffffffffffffffffffff169060200190929190505050610a4b565b6040518082815260200191505060405180910390f35b34801561037a57600080fd5b506103af600480360381019080803573ffffffffffffffffffffffffffffffffffffffff169060200190929190505050610a70565b6040518082815260200191505060405180910390f35b3480156103d157600080fd5b506103da610ab9565b6040518080602001828103825283818151815260200191508051906020019080838360005b8381101561041a5780820151818401526020810190506103ff565b50505050905090810190601f1680156104475780820380516001836020036101000a031916815260200191505b509250505060405180910390f35b34801561046157600080fd5b506104a0600480360381019080803573ffffffffffffffffffffffffffffffffffffffff16906020019092919080359060200190929190505050610b57565b604051808215151515815260200191505060405180910390f35b3480156104c657600080fd5b506104cf610cb0565b604051808215151515815260200191505060405180910390f35b3480156104f557600080fd5b5061054a600480360381019080803573ffffffffffffffffffffffffffffffffffffffff169060200190929190803573ffffffffffffffffffffffffffffffffffffffff169060200190929190505050610cc3565b6040518082815260200191505060405180910390f35b34801561056c57600080fd5b50610575610d4a565b6040518080602001828103825283818151815260200191508051906020019080838360005b838110156105b557808201518184015260208101905061059a565b50505050905090810190601f1680156105e25780820380516001836020036101000a031916815260200191505b509250505060405180910390f35b60038054600181600116156101000203166002900480601f0160208091040260200160405190810160405280929190818152602001828054600181600116156101000203166002900480156106865780601f1061065b57610100808354040283529160200191610686565b820191906000526020600020905b81548152906001019060200180831161066957829003601f168201915b505050505081565b600081600260003373ffffffffffffffffffffffffffffffffffffffff1673ffffffffffffffffffffffffffffffffffffffff16815260200190815260200160002060008573ffffffffffffffffffffffffffffffffffffffff1673ffffffffffffffffffffffffffffffffffffffff168152602001908152602001600020819055508273ffffffffffffffffffffffffffffffffffffffff163373ffffffffffffffffffffffffffffffffffffffff167f8c5be1e5ebec7d5bd14f71427d1e84f3dd0314c0f7b2291e5b200ac8c7c3b925846040518082815260200191505060405180910390a36001905092915050565b60005481565b600080600260008673ffffffffffffffffffffffffffffffffffffffff1673ffffffffffffffffffffffffffffffffffffffff16815260200190815260200160002060003373ffffffffffffffffffffffffffffffffffffffff1673ffffffffffffffffffffffffffffffffffffffff16815260200190815260200160002054905082600160008773ffffffffffffffffffffffffffffffffffffffff1673ffffffffffffffffffffffffffffffffffffffff16815260200190815260200160002054101580156108575750828110155b151561086257600080fd5b82600160008673ffffffffffffffffffffffffffffffffffffffff1673ffffffffffffffffffffffffffffffffffffffff1681526020019081526020016000206000828254019250508190555082600160008773ffffffffffffffffffffffffffffffffffffffff1673ffffffffffffffffffffffffffffffffffffffff168152602001908152602001600020600082825403925050819055507fffffffffffffffffffffffffffffffffffffffffffffffffffffffffffffffff8110156109af5782600260008773ffffffffffffffffffffffffffffffffffffffff1673ffffffffffffffffffffffffffffffffffffffff16815260200190815260200160002060003373ffffffffffffffffffffffffffffffffffffffff1673ffffffffffffffffffffffffffffffffffffffff168152602001908152602001600020600082825403925050819055505b8373ffffffffffffffffffffffffffffffffffffffff168573ffffffffffffffffffffffffffffffffffffffff167fddf252ad1be2c89b69c2b068fc378daa952ba7f163c4a11628f55a4df523b3ef856040518082815260200191505060405180910390a360019150509392505050565b60016020528060005260406000206000915090505481565b600460009054906101000a900460ff1681565b6002602052816000526040600020602052806000526040600020600091509150505481565b6000600160008373ffffffffffffffffffffffffffffffffffffffff1673ffffffffffffffffffffffffffffffffffffffff168152602001908152602001600020549050919050565b60058054600181600116156101000203166002900480601f016020809104026020016040519081016040528092919081815260200182805460018160011615610100020316600290048015610b4f5780601f10610b2457610100808354040283529160200191610b4f565b820191906000526020600020905b815481529060010190602001808311610b3257829003601f168201915b505050505081565b600081600160003373ffffffffffffffffffffffffffffffffffffffff1673ffffffffffffffffffffffffffffffffffffffff1681526020019081526020016000205410151515610ba757600080fd5b81600160003373ffffffffffffffffffffffffffffffffffffffff1673ffffffffffffffffffffffffffffffffffffffff1681526020019081526020016000206000828254039250508190555081600160008573ffffffffffffffffffffffffffffffffffffffff1673ffffffffffffffffffffffffffffffffffffffff168152602001908152602001600020600082825401925050819055508273ffffffffffffffffffffffffffffffffffffffff163373ffffffffffffffffffffffffffffffffffffffff167fddf252ad1be2c89b69c2b068fc378daa952ba7f163c4a11628f55a4df523b3ef846040518082815260200191505060405180910390a36001905092915050565b600760009054906101000a900460ff1681565b6000600260008473ffffffffffffffffffffffffffffffffffffffff1673ffffffffffffffffffffffffffffffffffffffff16815260200190815260200160002060008373ffffffffffffffffffffffffffffffffffffffff1673ffffffffffffffffffffffffffffffffffffffff16815260200190815260200160002054905092915050565b60068054600181600116156101000203166002900480601f016020809104026020016040519081016040528092919081815260200182805460018160011615610100020316600290048015610de05780601f10610db557610100808354040283529160200191610de0565b820191906000526020600020905b815481529060010190602001808311610dc357829003601f168201915b5050505050815600a165627a7a723058207b878030495908da8e3d7b7354dcd0bc65cb3b07cfdeae30cc971c18870a3e3d0029a165627a7a72305820f30eb9533a4b40bffdd56a2ae6e48436c5f78508f2967849e8e298216088c6710029",
  "source": "import \"./EIP20.sol\";\r\n\r\npragma solidity ^0.4.21;\r\n\r\n\r\ncontract EIP20Factory {\r\n\r\n    address[] public eip20Contracts; //using for demo, use mapping in production\r\n    mapping(address => address[]) public created;\r\n    mapping(address => bool) public isEIP20; //verify without having to do a bytecode check.\r\n    bytes public EIP20ByteCode; // solhint-disable-line var-name-mixedcase\r\n\r\n    function EIP20Factory() public {\r\n        //upon creation of the factory, deploy a EIP20 (parameters are meaningless) and store the bytecode provably.\r\n        // address verifiedToken = createEIP20(10000, \"Verify Token\", 3, \"VTX\"); //use unit tests instead of this\r\n        // EIP20ByteCode = codeAt(verifiedToken); //use unit tests instead of this\r\n    }\r\n\r\n    //verifies if a contract that has been deployed is a Human Standard Token.\r\n    //NOTE: This is a very expensive function, and should only be used in an eth_call. ~800k gas\r\n    function verifyEIP20(address _tokenContract) public view returns (bool) {\r\n        bytes memory fetchedTokenByteCode = codeAt(_tokenContract);\r\n\r\n        if (fetchedTokenByteCode.length != EIP20ByteCode.length) {\r\n            return false; //clear mismatch\r\n        }\r\n\r\n      //starting iterating through it if lengths match\r\n        for (uint i = 0; i < fetchedTokenByteCode.length; i++) {\r\n            if (fetchedTokenByteCode[i] != EIP20ByteCode[i]) {\r\n                return false;\r\n            }\r\n        }\r\n        return true;\r\n    }\r\n\r\n    function createEIP20(uint256 _initialAmount, string _name, uint8 _decimals, string _symbol, string _exchangeRateToEth,\r\n    bool _isPointsOnly)\r\n        public\r\n    returns (address) {\r\n\r\n        EIP20 newToken = (new EIP20(_initialAmount, _name, _decimals, _symbol, _exchangeRateToEth, _isPointsOnly));\r\n        created[msg.sender].push(address(newToken));\r\n        eip20Contracts.push(newToken);\r\n        isEIP20[address(newToken)] = true;\r\n        //the factory will own the created tokens. You must transfer them.\r\n        newToken.transfer(msg.sender, _initialAmount);\r\n        return address(newToken);\r\n    }\r\n\r\n    //for now, keeping this internal. Ideally there should also be a live version of this that\r\n    // any contract can use, lib-style.\r\n    //retrieves the bytecode at a specific address.\r\n    function codeAt(address _addr) internal view returns (bytes outputCode) {\r\n        assembly { // solhint-disable-line no-inline-assembly\r\n            // retrieve the size of the code, this needs assembly\r\n            let size := extcodesize(_addr)\r\n            // allocate output byte array - this could also be done without assembly\r\n            // by using outputCode = new bytes(size)\r\n            outputCode := mload(0x40)\r\n            // new \"memory end\" including padding\r\n            mstore(0x40, add(outputCode, and(add(add(size, 0x20), 0x1f), not(0x1f))))\r\n            // store length in memory\r\n            mstore(outputCode, size)\r\n            // actually retrieve the code, this needs assembly\r\n            extcodecopy(_addr, add(outputCode, 0x20), 0, size)\r\n        }\r\n    }\r\n\r\n    // for demo purposes this is fine, but perhaps use the mapper in production\r\n    function allEIP20Contracts() public constant returns (address[]) {\r\n        return eip20Contracts;\r\n    }\r\n\r\n\r\n}\r\n",
  "sourcePath": "C:\\Users\\John\\EE-Proto\\blockchain-prototypes-framework\\contracts\\EIP20\\EIP20Factory.sol",
  "compiler": {
    "name": "solc",
    "version": "0.4.23+commit.124ca40d.Emscripten.clang"
  },
  "schemaVersion": "2.0.0",
  "updatedAt": "2018-05-16T19:35:31.650Z"
}