{
  "contractName": "EIP20Factory",
  "abi": [
    {
      "constant": true,
      "inputs": [
        {
          "name": "",
          "type": "address"
        },
        {
          "name": "",
          "type": "uint256"
        }
      ],
      "name": "created",
      "outputs": [
        {
          "name": "",
          "type": "address"
        }
      ],
      "payable": false,
      "stateMutability": "view",
      "type": "function"
    },
    {
      "constant": true,
      "inputs": [
        {
          "name": "",
          "type": "address"
        }
      ],
      "name": "isEIP20",
      "outputs": [
        {
          "name": "",
          "type": "bool"
        }
      ],
      "payable": false,
      "stateMutability": "view",
      "type": "function"
    },
    {
      "constant": true,
      "inputs": [],
      "name": "EIP20ByteCode",
      "outputs": [
        {
          "name": "",
          "type": "bytes"
        }
      ],
      "payable": false,
      "stateMutability": "view",
      "type": "function"
    },
    {
      "constant": true,
      "inputs": [
        {
          "name": "",
          "type": "uint256"
        }
      ],
      "name": "eip20Contracts",
      "outputs": [
        {
          "name": "",
          "type": "address"
        }
      ],
      "payable": false,
      "stateMutability": "view",
      "type": "function"
    },
    {
      "inputs": [],
      "payable": false,
      "stateMutability": "nonpayable",
      "type": "constructor"
    },
    {
      "constant": true,
      "inputs": [
        {
          "name": "_tokenContract",
          "type": "address"
        }
      ],
      "name": "verifyEIP20",
      "outputs": [
        {
          "name": "",
          "type": "bool"
        }
      ],
      "payable": false,
      "stateMutability": "view",
      "type": "function"
    },
    {
      "constant": false,
      "inputs": [
        {
          "name": "_initialAmount",
          "type": "uint256"
        },
        {
          "name": "_name",
          "type": "string"
        },
        {
          "name": "_decimals",
          "type": "uint8"
        },
        {
          "name": "_symbol",
          "type": "string"
        },
        {
          "name": "_exchangeRateToEth",
          "type": "string"
        },
        {
          "name": "_isPointsOnly",
          "type": "bool"
        },
        {
          "name": "_issuer",
          "type": "address"
        }
      ],
      "name": "createEIP20",
      "outputs": [
        {
          "name": "",
          "type": "address"
        }
      ],
      "payable": false,
      "stateMutability": "nonpayable",
      "type": "function"
    },
    {
      "constant": true,
      "inputs": [],
      "name": "allEIP20Contracts",
      "outputs": [
        {
          "name": "",
          "type": "address[]"
        }
      ],
      "payable": false,
      "stateMutability": "view",
      "type": "function"
    }
  ],
  "bytecode": "0x608060405234801561001057600080fd5b50611fd2806100206000396000f300608060405260043610610083576000357c0100000000000000000000000000000000000000000000000000000000900463ffffffff1680635f8dead314610088578063706438d1146101155780637cf6283814610170578063ad1aaa5014610200578063cd4d68951461026d578063d26f3860146102c8578063f21294a514610440575b600080fd5b34801561009457600080fd5b506100d3600480360381019080803573ffffffffffffffffffffffffffffffffffffffff169060200190929190803590602001909291905050506104ac565b604051808273ffffffffffffffffffffffffffffffffffffffff1673ffffffffffffffffffffffffffffffffffffffff16815260200191505060405180910390f35b34801561012157600080fd5b50610156600480360381019080803573ffffffffffffffffffffffffffffffffffffffff1690602001909291905050506104f9565b604051808215151515815260200191505060405180910390f35b34801561017c57600080fd5b50610185610519565b6040518080602001828103825283818151815260200191508051906020019080838360005b838110156101c55780820151818401526020810190506101aa565b50505050905090810190601f1680156101f25780820380516001836020036101000a031916815260200191505b509250505060405180910390f35b34801561020c57600080fd5b5061022b600480360381019080803590602001909291905050506105b7565b604051808273ffffffffffffffffffffffffffffffffffffffff1673ffffffffffffffffffffffffffffffffffffffff16815260200191505060405180910390f35b34801561027957600080fd5b506102ae600480360381019080803573ffffffffffffffffffffffffffffffffffffffff1690602001909291905050506105f5565b604051808215151515815260200191505060405180910390f35b3480156102d457600080fd5b506103fe60048036038101908080359060200190929190803590602001908201803590602001908080601f0160208091040260200160405190810160405280939291908181526020018383808284378201915050505050509192919290803560ff169060200190929190803590602001908201803590602001908080601f0160208091040260200160405190810160405280939291908181526020018383808284378201915050505050509192919290803590602001908201803590602001908080601f0160208091040260200160405190810160405280939291908181526020018383808284378201915050505050509192919290803515159060200190929190803573ffffffffffffffffffffffffffffffffffffffff169060200190929190505050610768565b604051808273ffffffffffffffffffffffffffffffffffffffff1673ffffffffffffffffffffffffffffffffffffffff16815260200191505060405180910390f35b34801561044c57600080fd5b50610455610b81565b6040518080602001828103825283818151815260200191508051906020019060200280838360005b8381101561049857808201518184015260208101905061047d565b505050509050019250505060405180910390f35b6001602052816000526040600020818154811015156104c757fe5b906000526020600020016000915091509054906101000a900473ffffffffffffffffffffffffffffffffffffffff1681565b60026020528060005260406000206000915054906101000a900460ff1681565b60038054600181600116156101000203166002900480601f0160208091040260200160405190810160405280929190818152602001828054600181600116156101000203166002900480156105af5780601f10610584576101008083540402835291602001916105af565b820191906000526020600020905b81548152906001019060200180831161059257829003601f168201915b505050505081565b6000818154811015156105c657fe5b906000526020600020016000915054906101000a900473ffffffffffffffffffffffffffffffffffffffff1681565b60006060600061060484610c0f565b91506003805460018160011615610100020316600290049050825114151561062f5760009250610761565b600090505b815181101561075c57600381815460018160011615610100020316600290048110151561065d57fe5b81546001161561067c5790600052602060002090602091828204019190065b9054901a7f0100000000000000000000000000000000000000000000000000000000000000027effffffffffffffffffffffffffffffffffffffffffffffffffffffffffffff191682828151811015156106d257fe5b9060200101517f010000000000000000000000000000000000000000000000000000000000000090047f0100000000000000000000000000000000000000000000000000000000000000027effffffffffffffffffffffffffffffffffffffffffffffffffffffffffffff191614151561074f5760009250610761565b8080600101915050610634565b600192505b5050919050565b6000808888888888888861077a610c3a565b80888152602001806020018760ff1660ff1681526020018060200180602001861515151581526020018573ffffffffffffffffffffffffffffffffffffffff1673ffffffffffffffffffffffffffffffffffffffff16815260200184810384528a818151815260200191508051906020019080838360005b8381101561080d5780820151818401526020810190506107f2565b50505050905090810190601f16801561083a5780820380516001836020036101000a031916815260200191505b50848103835288818151815260200191508051906020019080838360005b83811015610873578082015181840152602081019050610858565b50505050905090810190601f1680156108a05780820380516001836020036101000a031916815260200191505b50848103825287818151815260200191508051906020019080838360005b838110156108d95780820151818401526020810190506108be565b50505050905090810190601f1680156109065780820380516001836020036101000a031916815260200191505b509a5050505050505050505050604051809103906000f08015801561092f573d6000803e3d6000fd5b509050600160003373ffffffffffffffffffffffffffffffffffffffff1673ffffffffffffffffffffffffffffffffffffffff1681526020019081526020016000208190806001815401808255809150509060018203906000526020600020016000909192909190916101000a81548173ffffffffffffffffffffffffffffffffffffffff021916908373ffffffffffffffffffffffffffffffffffffffff1602179055505060008190806001815401808255809150509060018203906000526020600020016000909192909190916101000a81548173ffffffffffffffffffffffffffffffffffffffff021916908373ffffffffffffffffffffffffffffffffffffffff160217905550506001600260008373ffffffffffffffffffffffffffffffffffffffff1673ffffffffffffffffffffffffffffffffffffffff16815260200190815260200160002060006101000a81548160ff0219169083151502179055508073ffffffffffffffffffffffffffffffffffffffff1663a9059cbb338b6040518363ffffffff167c0100000000000000000000000000000000000000000000000000000000028152600401808373ffffffffffffffffffffffffffffffffffffffff1673ffffffffffffffffffffffffffffffffffffffff16815260200182815260200192505050602060405180830381600087803b158015610b3657600080fd5b505af1158015610b4a573d6000803e3d6000fd5b505050506040513d6020811015610b6057600080fd5b81019080805190602001909291905050505080915050979650505050505050565b60606000805480602002602001604051908101604052809291908181526020018280548015610c0557602002820191906000526020600020905b8160009054906101000a900473ffffffffffffffffffffffffffffffffffffffff1673ffffffffffffffffffffffffffffffffffffffff1681526020019060010190808311610bbb575b5050505050905090565b6060813b6040519150601f19601f602083010116820160405280825280600060208401853c50919050565b60405161135c80610c4b83390190560060806040523480156200001157600080fd5b506040516200135c3803806200135c8339810180604052810190808051906020019092919080518201929190602001805190602001909291908051820192919060200180518201929190602001805190602001909291908051906020019092919050505086600260003373ffffffffffffffffffffffffffffffffffffffff1673ffffffffffffffffffffffffffffffffffffffff16815260200190815260200160002081905550866000819055508560049080519060200190620000d89291906200018e565b5084600560006101000a81548160ff021916908360ff16021790555083600690805190602001906200010c9291906200018e565b508260079080519060200190620001259291906200018e565b5081600860006101000a81548160ff02191690831515021790555080600160006101000a81548173ffffffffffffffffffffffffffffffffffffffff021916908373ffffffffffffffffffffffffffffffffffffffff160217905550505050505050506200023d565b828054600181600116156101000203166002900490600052602060002090601f016020900481019282601f10620001d157805160ff191683800117855562000202565b8280016001018555821562000202579182015b8281111562000201578251825591602001919060010190620001e4565b5b50905062000211919062000215565b5090565b6200023a91905b80821115620002365760008160009055506001016200021c565b5090565b90565b61110f806200024d6000396000f3006080604052600436106100e6576000357c0100000000000000000000000000000000000000000000000000000000900463ffffffff16806306fdde03146100eb578063095ea7b31461017b57806318160ddd146101e05780631d1438481461020b57806322f85eaa1461026257806323b872dd1461029a57806327e235e31461031f578063313ce5671461037657806351e18585146103a75780635c6581651461042c57806370a08231146104a357806395d89b41146104fa578063a9059cbb1461058a578063cba9be0c146105ef578063dd62ed3e1461061e578063f01600fa14610695575b600080fd5b3480156100f757600080fd5b50610100610725565b6040518080602001828103825283818151815260200191508051906020019080838360005b83811015610140578082015181840152602081019050610125565b50505050905090810190601f16801561016d5780820380516001836020036101000a031916815260200191505b509250505060405180910390f35b34801561018757600080fd5b506101c6600480360381019080803573ffffffffffffffffffffffffffffffffffffffff169060200190929190803590602001909291905050506107c3565b604051808215151515815260200191505060405180910390f35b3480156101ec57600080fd5b506101f56108b5565b6040518082815260200191505060405180910390f35b34801561021757600080fd5b506102206108bb565b604051808273ffffffffffffffffffffffffffffffffffffffff1673ffffffffffffffffffffffffffffffffffffffff16815260200191505060405180910390f35b610280600480360381019080803590602001909291905050506108e1565b604051808215151515815260200191505060405180910390f35b3480156102a657600080fd5b50610305600480360381019080803573ffffffffffffffffffffffffffffffffffffffff169060200190929190803573ffffffffffffffffffffffffffffffffffffffff16906020019092919080359060200190929190505050610927565b604051808215151515815260200191505060405180910390f35b34801561032b57600080fd5b50610360600480360381019080803573ffffffffffffffffffffffffffffffffffffffff169060200190929190505050610bc1565b6040518082815260200191505060405180910390f35b34801561038257600080fd5b5061038b610bd9565b604051808260ff1660ff16815260200191505060405180910390f35b3480156103b357600080fd5b50610412600480360381019080803573ffffffffffffffffffffffffffffffffffffffff169060200190929190803573ffffffffffffffffffffffffffffffffffffffff16906020019092919080359060200190929190505050610bec565b604051808215151515815260200191505060405180910390f35b34801561043857600080fd5b5061048d600480360381019080803573ffffffffffffffffffffffffffffffffffffffff169060200190929190803573ffffffffffffffffffffffffffffffffffffffff169060200190929190505050610d46565b6040518082815260200191505060405180910390f35b3480156104af57600080fd5b506104e4600480360381019080803573ffffffffffffffffffffffffffffffffffffffff169060200190929190505050610d6b565b6040518082815260200191505060405180910390f35b34801561050657600080fd5b5061050f610db4565b6040518080602001828103825283818151815260200191508051906020019080838360005b8381101561054f578082015181840152602081019050610534565b50505050905090810190601f16801561057c5780820380516001836020036101000a031916815260200191505b509250505060405180910390f35b34801561059657600080fd5b506105d5600480360381019080803573ffffffffffffffffffffffffffffffffffffffff16906020019092919080359060200190929190505050610e52565b604051808215151515815260200191505060405180910390f35b3480156105fb57600080fd5b50610604610fab565b604051808215151515815260200191505060405180910390f35b34801561062a57600080fd5b5061067f600480360381019080803573ffffffffffffffffffffffffffffffffffffffff169060200190929190803573ffffffffffffffffffffffffffffffffffffffff169060200190929190505050610fbe565b6040518082815260200191505060405180910390f35b3480156106a157600080fd5b506106aa611045565b6040518080602001828103825283818151815260200191508051906020019080838360005b838110156106ea5780820151818401526020810190506106cf565b50505050905090810190601f1680156107175780820380516001836020036101000a031916815260200191505b509250505060405180910390f35b60048054600181600116156101000203166002900480601f0160208091040260200160405190810160405280929190818152602001828054600181600116156101000203166002900480156107bb5780601f10610790576101008083540402835291602001916107bb565b820191906000526020600020905b81548152906001019060200180831161079e57829003601f168201915b505050505081565b600081600360003373ffffffffffffffffffffffffffffffffffffffff1673ffffffffffffffffffffffffffffffffffffffff16815260200190815260200160002060008573ffffffffffffffffffffffffffffffffffffffff1673ffffffffffffffffffffffffffffffffffffffff168152602001908152602001600020819055508273ffffffffffffffffffffffffffffffffffffffff163373ffffffffffffffffffffffffffffffffffffffff167f8c5be1e5ebec7d5bd14f71427d1e84f3dd0314c0f7b2291e5b200ac8c7c3b925846040518082815260200191505060405180910390a36001905092915050565b60005481565b600160009054906101000a900473ffffffffffffffffffffffffffffffffffffffff1681565b6000803414156108f057600080fd5b61091d600160009054906101000a900473ffffffffffffffffffffffffffffffffffffffff163384610bec565b5060019050919050565b600080600360008673ffffffffffffffffffffffffffffffffffffffff1673ffffffffffffffffffffffffffffffffffffffff16815260200190815260200160002060003373ffffffffffffffffffffffffffffffffffffffff1673ffffffffffffffffffffffffffffffffffffffff16815260200190815260200160002054905082600260008773ffffffffffffffffffffffffffffffffffffffff1673ffffffffffffffffffffffffffffffffffffffff16815260200190815260200160002054101580156109f85750828110155b1515610a0357600080fd5b82600260008673ffffffffffffffffffffffffffffffffffffffff1673ffffffffffffffffffffffffffffffffffffffff1681526020019081526020016000206000828254019250508190555082600260008773ffffffffffffffffffffffffffffffffffffffff1673ffffffffffffffffffffffffffffffffffffffff168152602001908152602001600020600082825403925050819055507fffffffffffffffffffffffffffffffffffffffffffffffffffffffffffffffff811015610b505782600360008773ffffffffffffffffffffffffffffffffffffffff1673ffffffffffffffffffffffffffffffffffffffff16815260200190815260200160002060003373ffffffffffffffffffffffffffffffffffffffff1673ffffffffffffffffffffffffffffffffffffffff168152602001908152602001600020600082825403925050819055505b8373ffffffffffffffffffffffffffffffffffffffff168573ffffffffffffffffffffffffffffffffffffffff167fddf252ad1be2c89b69c2b068fc378daa952ba7f163c4a11628f55a4df523b3ef856040518082815260200191505060405180910390a360019150509392505050565b60026020528060005260406000206000915090505481565b600560009054906101000a900460ff1681565b600081600260008673ffffffffffffffffffffffffffffffffffffffff1673ffffffffffffffffffffffffffffffffffffffff1681526020019081526020016000205410151515610c3c57600080fd5b81600260008573ffffffffffffffffffffffffffffffffffffffff1673ffffffffffffffffffffffffffffffffffffffff1681526020019081526020016000206000828254019250508190555081600260008673ffffffffffffffffffffffffffffffffffffffff1673ffffffffffffffffffffffffffffffffffffffff168152602001908152602001600020600082825403925050819055508273ffffffffffffffffffffffffffffffffffffffff168473ffffffffffffffffffffffffffffffffffffffff167fddf252ad1be2c89b69c2b068fc378daa952ba7f163c4a11628f55a4df523b3ef846040518082815260200191505060405180910390a3600190509392505050565b6003602052816000526040600020602052806000526040600020600091509150505481565b6000600260008373ffffffffffffffffffffffffffffffffffffffff1673ffffffffffffffffffffffffffffffffffffffff168152602001908152602001600020549050919050565b60068054600181600116156101000203166002900480601f016020809104026020016040519081016040528092919081815260200182805460018160011615610100020316600290048015610e4a5780601f10610e1f57610100808354040283529160200191610e4a565b820191906000526020600020905b815481529060010190602001808311610e2d57829003601f168201915b505050505081565b600081600260003373ffffffffffffffffffffffffffffffffffffffff1673ffffffffffffffffffffffffffffffffffffffff1681526020019081526020016000205410151515610ea257600080fd5b81600260003373ffffffffffffffffffffffffffffffffffffffff1673ffffffffffffffffffffffffffffffffffffffff1681526020019081526020016000206000828254039250508190555081600260008573ffffffffffffffffffffffffffffffffffffffff1673ffffffffffffffffffffffffffffffffffffffff168152602001908152602001600020600082825401925050819055508273ffffffffffffffffffffffffffffffffffffffff163373ffffffffffffffffffffffffffffffffffffffff167fddf252ad1be2c89b69c2b068fc378daa952ba7f163c4a11628f55a4df523b3ef846040518082815260200191505060405180910390a36001905092915050565b600860009054906101000a900460ff1681565b6000600360008473ffffffffffffffffffffffffffffffffffffffff1673ffffffffffffffffffffffffffffffffffffffff16815260200190815260200160002060008373ffffffffffffffffffffffffffffffffffffffff1673ffffffffffffffffffffffffffffffffffffffff16815260200190815260200160002054905092915050565b60078054600181600116156101000203166002900480601f0160208091040260200160405190810160405280929190818152602001828054600181600116156101000203166002900480156110db5780601f106110b0576101008083540402835291602001916110db565b820191906000526020600020905b8154815290600101906020018083116110be57829003601f168201915b5050505050815600a165627a7a72305820b5fba5c8ab22160eb482da6a5508af136ea8a99b92984fb8975d7f201f1776100029a165627a7a72305820c7890f79ce80c1fe211144a6b260eda6720bd8eedb628aef48c9439ed803a94c0029",
  "source": "import \"./EIP20.sol\";\r\n\r\npragma solidity ^0.4.21;\r\n\r\n\r\ncontract EIP20Factory {\r\n\r\n    address[] public eip20Contracts; //using for demo, use mapping in production\r\n    mapping(address => address[]) public created;\r\n    mapping(address => bool) public isEIP20; //verify without having to do a bytecode check.\r\n    bytes public EIP20ByteCode; // solhint-disable-line var-name-mixedcase\r\n\r\n    function EIP20Factory() public {\r\n        //upon creation of the factory, deploy a EIP20 (parameters are meaningless) and store the bytecode provably.\r\n        // address verifiedToken = createEIP20(10000, \"Verify Token\", 3, \"VTX\"); //use unit tests instead of this\r\n        // EIP20ByteCode = codeAt(verifiedToken); //use unit tests instead of this\r\n    }\r\n\r\n    //verifies if a contract that has been deployed is a Human Standard Token.\r\n    //NOTE: This is a very expensive function, and should only be used in an eth_call. ~800k gas\r\n    function verifyEIP20(address _tokenContract) public view returns (bool) {\r\n        bytes memory fetchedTokenByteCode = codeAt(_tokenContract);\r\n\r\n        if (fetchedTokenByteCode.length != EIP20ByteCode.length) {\r\n            return false; //clear mismatch\r\n        }\r\n\r\n      //starting iterating through it if lengths match\r\n        for (uint i = 0; i < fetchedTokenByteCode.length; i++) {\r\n            if (fetchedTokenByteCode[i] != EIP20ByteCode[i]) {\r\n                return false;\r\n            }\r\n        }\r\n        return true;\r\n    }\r\n\r\n    function createEIP20(uint256 _initialAmount, string _name, uint8 _decimals, string _symbol, string _exchangeRateToEth,\r\n    bool _isPointsOnly, address _issuer)\r\n        public\r\n    returns (address) {\r\n\r\n        EIP20 newToken = (new EIP20(_initialAmount, _name, _decimals, _symbol, _exchangeRateToEth, _isPointsOnly, _issuer));\r\n        created[msg.sender].push(address(newToken));\r\n        eip20Contracts.push(newToken);\r\n        isEIP20[address(newToken)] = true;\r\n        //the factory will own the created tokens. You must transfer them.\r\n        newToken.transfer(msg.sender, _initialAmount);\r\n        return address(newToken);\r\n    }\r\n\r\n    //for now, keeping this internal. Ideally there should also be a live version of this that\r\n    // any contract can use, lib-style.\r\n    //retrieves the bytecode at a specific address.\r\n    function codeAt(address _addr) internal view returns (bytes outputCode) {\r\n        assembly { // solhint-disable-line no-inline-assembly\r\n            // retrieve the size of the code, this needs assembly\r\n            let size := extcodesize(_addr)\r\n            // allocate output byte array - this could also be done without assembly\r\n            // by using outputCode = new bytes(size)\r\n            outputCode := mload(0x40)\r\n            // new \"memory end\" including padding\r\n            mstore(0x40, add(outputCode, and(add(add(size, 0x20), 0x1f), not(0x1f))))\r\n            // store length in memory\r\n            mstore(outputCode, size)\r\n            // actually retrieve the code, this needs assembly\r\n            extcodecopy(_addr, add(outputCode, 0x20), 0, size)\r\n        }\r\n    }\r\n\r\n    // for demo purposes this is fine, but perhaps use the mapper in production\r\n    function allEIP20Contracts() public constant returns (address[]) {\r\n        return eip20Contracts;\r\n    }\r\n\r\n\r\n}\r\n",
  "sourcePath": "C:\\Users\\John\\EE-Proto\\blockchain-prototypes-framework\\contracts\\EIP20\\EIP20Factory.sol",
  "compiler": {
    "name": "solc",
    "version": "0.4.23+commit.124ca40d.Emscripten.clang"
  },
  "schemaVersion": "2.0.0",
  "updatedAt": "2018-05-18T22:13:31.858Z"
}