{
  "contractName": "EIP20",
  "abi": [
    {
      "constant": true,
      "inputs": [],
      "name": "name",
      "outputs": [
        {
          "name": "",
          "type": "string"
        }
      ],
      "payable": false,
      "stateMutability": "view",
      "type": "function"
    },
    {
      "constant": true,
      "inputs": [],
      "name": "totalSupply",
      "outputs": [
        {
          "name": "",
          "type": "uint256"
        }
      ],
      "payable": false,
      "stateMutability": "view",
      "type": "function"
    },
    {
      "constant": true,
      "inputs": [],
      "name": "issuer",
      "outputs": [
        {
          "name": "",
          "type": "address"
        }
      ],
      "payable": false,
      "stateMutability": "view",
      "type": "function"
    },
    {
      "constant": true,
      "inputs": [
        {
          "name": "",
          "type": "address"
        }
      ],
      "name": "balances",
      "outputs": [
        {
          "name": "",
          "type": "uint256"
        }
      ],
      "payable": false,
      "stateMutability": "view",
      "type": "function"
    },
    {
      "constant": true,
      "inputs": [],
      "name": "decimals",
      "outputs": [
        {
          "name": "",
          "type": "uint8"
        }
      ],
      "payable": false,
      "stateMutability": "view",
      "type": "function"
    },
    {
      "constant": true,
      "inputs": [
        {
          "name": "",
          "type": "address"
        },
        {
          "name": "",
          "type": "address"
        }
      ],
      "name": "allowed",
      "outputs": [
        {
          "name": "",
          "type": "uint256"
        }
      ],
      "payable": false,
      "stateMutability": "view",
      "type": "function"
    },
    {
      "constant": true,
      "inputs": [],
      "name": "symbol",
      "outputs": [
        {
          "name": "",
          "type": "string"
        }
      ],
      "payable": false,
      "stateMutability": "view",
      "type": "function"
    },
    {
      "constant": true,
      "inputs": [],
      "name": "isPointsOnly",
      "outputs": [
        {
          "name": "",
          "type": "bool"
        }
      ],
      "payable": false,
      "stateMutability": "view",
      "type": "function"
    },
    {
      "constant": true,
      "inputs": [],
      "name": "exchangeRateToEth",
      "outputs": [
        {
          "name": "",
          "type": "string"
        }
      ],
      "payable": false,
      "stateMutability": "view",
      "type": "function"
    },
    {
      "inputs": [
        {
          "name": "_initialAmount",
          "type": "uint256"
        },
        {
          "name": "_tokenName",
          "type": "string"
        },
        {
          "name": "_decimalUnits",
          "type": "uint8"
        },
        {
          "name": "_tokenSymbol",
          "type": "string"
        },
        {
          "name": "_exchangeRateToEth",
          "type": "string"
        },
        {
          "name": "_isPointsOnly",
          "type": "bool"
        },
        {
          "name": "_issuer",
          "type": "address"
        }
      ],
      "payable": false,
      "stateMutability": "nonpayable",
      "type": "constructor"
    },
    {
      "anonymous": false,
      "inputs": [
        {
          "indexed": false,
          "name": "to",
          "type": "address"
        },
        {
          "indexed": false,
          "name": "value",
          "type": "uint256"
        }
      ],
      "name": "LogSell",
      "type": "event"
    },
    {
      "anonymous": false,
      "inputs": [
        {
          "indexed": true,
          "name": "_from",
          "type": "address"
        },
        {
          "indexed": true,
          "name": "_to",
          "type": "address"
        },
        {
          "indexed": false,
          "name": "_value",
          "type": "uint256"
        }
      ],
      "name": "Transfer",
      "type": "event"
    },
    {
      "anonymous": false,
      "inputs": [
        {
          "indexed": true,
          "name": "_owner",
          "type": "address"
        },
        {
          "indexed": true,
          "name": "_spender",
          "type": "address"
        },
        {
          "indexed": false,
          "name": "_value",
          "type": "uint256"
        }
      ],
      "name": "Approval",
      "type": "event"
    },
    {
      "constant": false,
      "inputs": [
        {
          "name": "_to",
          "type": "address"
        },
        {
          "name": "_value",
          "type": "uint256"
        }
      ],
      "name": "transfer",
      "outputs": [
        {
          "name": "success",
          "type": "bool"
        }
      ],
      "payable": false,
      "stateMutability": "nonpayable",
      "type": "function"
    },
    {
      "constant": false,
      "inputs": [
        {
          "name": "_from",
          "type": "address"
        },
        {
          "name": "_to",
          "type": "address"
        },
        {
          "name": "_value",
          "type": "uint256"
        }
      ],
      "name": "transferFrom",
      "outputs": [
        {
          "name": "success",
          "type": "bool"
        }
      ],
      "payable": false,
      "stateMutability": "nonpayable",
      "type": "function"
    },
    {
      "constant": true,
      "inputs": [
        {
          "name": "_owner",
          "type": "address"
        }
      ],
      "name": "balanceOf",
      "outputs": [
        {
          "name": "balance",
          "type": "uint256"
        }
      ],
      "payable": false,
      "stateMutability": "view",
      "type": "function"
    },
    {
      "constant": false,
      "inputs": [
        {
          "name": "_spender",
          "type": "address"
        },
        {
          "name": "_value",
          "type": "uint256"
        }
      ],
      "name": "approve",
      "outputs": [
        {
          "name": "success",
          "type": "bool"
        }
      ],
      "payable": false,
      "stateMutability": "nonpayable",
      "type": "function"
    },
    {
      "constant": true,
      "inputs": [
        {
          "name": "_owner",
          "type": "address"
        },
        {
          "name": "_spender",
          "type": "address"
        }
      ],
      "name": "allowance",
      "outputs": [
        {
          "name": "remaining",
          "type": "uint256"
        }
      ],
      "payable": false,
      "stateMutability": "view",
      "type": "function"
    },
    {
      "constant": false,
      "inputs": [
        {
          "name": "_amount",
          "type": "uint256"
        }
      ],
      "name": "buyOrder",
      "outputs": [
        {
          "name": "success",
          "type": "bool"
        }
      ],
      "payable": true,
      "stateMutability": "payable",
      "type": "function"
    },
    {
      "constant": false,
      "inputs": [
        {
          "name": "_from",
          "type": "address"
        },
        {
          "name": "_to",
          "type": "address"
        },
        {
          "name": "_amount",
          "type": "uint256"
        }
      ],
      "name": "processBuyOrder",
      "outputs": [
        {
          "name": "success",
          "type": "bool"
        }
      ],
      "payable": false,
      "stateMutability": "nonpayable",
      "type": "function"
    },
    {
      "constant": false,
      "inputs": [
        {
          "name": "_amount",
          "type": "uint256"
        },
        {
          "name": "_value",
          "type": "uint256"
        }
      ],
      "name": "sellOrder",
      "outputs": [
        {
          "name": "success",
          "type": "bool"
        }
      ],
      "payable": true,
      "stateMutability": "payable",
      "type": "function"
    },
    {
      "constant": false,
      "inputs": [
        {
          "name": "_seller",
          "type": "address"
        },
        {
          "name": "_issuer",
          "type": "address"
        },
        {
          "name": "_amountToken",
          "type": "uint256"
        },
        {
          "name": "_valueEth",
          "type": "uint256"
        }
      ],
      "name": "processSellOrder",
      "outputs": [
        {
          "name": "success",
          "type": "bool"
        }
      ],
      "payable": false,
      "stateMutability": "nonpayable",
      "type": "function"
    }
  ],
  "bytecode": "0x60806040523480156200001157600080fd5b506040516200168b3803806200168b8339810180604052810190808051906020019092919080518201929190602001805190602001909291908051820192919060200180518201929190602001805190602001909291908051906020019092919050505086600260003373ffffffffffffffffffffffffffffffffffffffff1673ffffffffffffffffffffffffffffffffffffffff16815260200190815260200160002081905550866000819055508560049080519060200190620000d89291906200018e565b5084600560006101000a81548160ff021916908360ff16021790555083600690805190602001906200010c9291906200018e565b508260079080519060200190620001259291906200018e565b5081600860006101000a81548160ff02191690831515021790555080600160006101000a81548173ffffffffffffffffffffffffffffffffffffffff021916908373ffffffffffffffffffffffffffffffffffffffff160217905550505050505050506200023d565b828054600181600116156101000203166002900490600052602060002090601f016020900481019282601f10620001d157805160ff191683800117855562000202565b8280016001018555821562000202579182015b8281111562000201578251825591602001919060010190620001e4565b5b50905062000211919062000215565b5090565b6200023a91905b80821115620002365760008160009055506001016200021c565b5090565b90565b61143e806200024d6000396000f3006080604052600436106100fc576000357c0100000000000000000000000000000000000000000000000000000000900463ffffffff16806306fdde0314610101578063095ea7b31461019157806318160ddd146101f65780631d1438481461022157806322f85eaa1461027857806323b872dd146102b057806327e235e314610335578063313ce5671461038c57806351e18585146103bd5780635c6581651461044257806370a08231146104b957806377a4485f1461051057806395d89b411461059f578063a9059cbb1461062f578063cba9be0c14610694578063cd61a95a146106c3578063dd62ed3e14610705578063f01600fa1461077c575b600080fd5b34801561010d57600080fd5b5061011661080c565b6040518080602001828103825283818151815260200191508051906020019080838360005b8381101561015657808201518184015260208101905061013b565b50505050905090810190601f1680156101835780820380516001836020036101000a031916815260200191505b509250505060405180910390f35b34801561019d57600080fd5b506101dc600480360381019080803573ffffffffffffffffffffffffffffffffffffffff169060200190929190803590602001909291905050506108aa565b604051808215151515815260200191505060405180910390f35b34801561020257600080fd5b5061020b61099c565b6040518082815260200191505060405180910390f35b34801561022d57600080fd5b506102366109a2565b604051808273ffffffffffffffffffffffffffffffffffffffff1673ffffffffffffffffffffffffffffffffffffffff16815260200191505060405180910390f35b610296600480360381019080803590602001909291905050506109c8565b604051808215151515815260200191505060405180910390f35b3480156102bc57600080fd5b5061031b600480360381019080803573ffffffffffffffffffffffffffffffffffffffff169060200190929190803573ffffffffffffffffffffffffffffffffffffffff16906020019092919080359060200190929190505050610a0e565b604051808215151515815260200191505060405180910390f35b34801561034157600080fd5b50610376600480360381019080803573ffffffffffffffffffffffffffffffffffffffff169060200190929190505050610ca8565b6040518082815260200191505060405180910390f35b34801561039857600080fd5b506103a1610cc0565b604051808260ff1660ff16815260200191505060405180910390f35b3480156103c957600080fd5b50610428600480360381019080803573ffffffffffffffffffffffffffffffffffffffff169060200190929190803573ffffffffffffffffffffffffffffffffffffffff16906020019092919080359060200190929190505050610cd3565b604051808215151515815260200191505060405180910390f35b34801561044e57600080fd5b506104a3600480360381019080803573ffffffffffffffffffffffffffffffffffffffff169060200190929190803573ffffffffffffffffffffffffffffffffffffffff169060200190929190505050610e2d565b6040518082815260200191505060405180910390f35b3480156104c557600080fd5b506104fa600480360381019080803573ffffffffffffffffffffffffffffffffffffffff169060200190929190505050610e52565b6040518082815260200191505060405180910390f35b34801561051c57600080fd5b50610585600480360381019080803573ffffffffffffffffffffffffffffffffffffffff169060200190929190803573ffffffffffffffffffffffffffffffffffffffff1690602001909291908035906020019092919080359060200190929190505050610e9b565b604051808215151515815260200191505060405180910390f35b3480156105ab57600080fd5b506105b46110a8565b6040518080602001828103825283818151815260200191508051906020019080838360005b838110156105f45780820151818401526020810190506105d9565b50505050905090810190601f1680156106215780820380516001836020036101000a031916815260200191505b509250505060405180910390f35b34801561063b57600080fd5b5061067a600480360381019080803573ffffffffffffffffffffffffffffffffffffffff16906020019092919080359060200190929190505050611146565b604051808215151515815260200191505060405180910390f35b3480156106a057600080fd5b506106a961129f565b604051808215151515815260200191505060405180910390f35b6106eb60048036038101908080359060200190929190803590602001909291905050506112b2565b604051808215151515815260200191505060405180910390f35b34801561071157600080fd5b50610766600480360381019080803573ffffffffffffffffffffffffffffffffffffffff169060200190929190803573ffffffffffffffffffffffffffffffffffffffff1690602001909291905050506112ed565b6040518082815260200191505060405180910390f35b34801561078857600080fd5b50610791611374565b6040518080602001828103825283818151815260200191508051906020019080838360005b838110156107d15780820151818401526020810190506107b6565b50505050905090810190601f1680156107fe5780820380516001836020036101000a031916815260200191505b509250505060405180910390f35b60048054600181600116156101000203166002900480601f0160208091040260200160405190810160405280929190818152602001828054600181600116156101000203166002900480156108a25780601f10610877576101008083540402835291602001916108a2565b820191906000526020600020905b81548152906001019060200180831161088557829003601f168201915b505050505081565b600081600360003373ffffffffffffffffffffffffffffffffffffffff1673ffffffffffffffffffffffffffffffffffffffff16815260200190815260200160002060008573ffffffffffffffffffffffffffffffffffffffff1673ffffffffffffffffffffffffffffffffffffffff168152602001908152602001600020819055508273ffffffffffffffffffffffffffffffffffffffff163373ffffffffffffffffffffffffffffffffffffffff167f8c5be1e5ebec7d5bd14f71427d1e84f3dd0314c0f7b2291e5b200ac8c7c3b925846040518082815260200191505060405180910390a36001905092915050565b60005481565b600160009054906101000a900473ffffffffffffffffffffffffffffffffffffffff1681565b6000803414156109d757600080fd5b610a04600160009054906101000a900473ffffffffffffffffffffffffffffffffffffffff163384610cd3565b5060019050919050565b600080600360008673ffffffffffffffffffffffffffffffffffffffff1673ffffffffffffffffffffffffffffffffffffffff16815260200190815260200160002060003373ffffffffffffffffffffffffffffffffffffffff1673ffffffffffffffffffffffffffffffffffffffff16815260200190815260200160002054905082600260008773ffffffffffffffffffffffffffffffffffffffff1673ffffffffffffffffffffffffffffffffffffffff1681526020019081526020016000205410158015610adf5750828110155b1515610aea57600080fd5b82600260008673ffffffffffffffffffffffffffffffffffffffff1673ffffffffffffffffffffffffffffffffffffffff1681526020019081526020016000206000828254019250508190555082600260008773ffffffffffffffffffffffffffffffffffffffff1673ffffffffffffffffffffffffffffffffffffffff168152602001908152602001600020600082825403925050819055507fffffffffffffffffffffffffffffffffffffffffffffffffffffffffffffffff811015610c375782600360008773ffffffffffffffffffffffffffffffffffffffff1673ffffffffffffffffffffffffffffffffffffffff16815260200190815260200160002060003373ffffffffffffffffffffffffffffffffffffffff1673ffffffffffffffffffffffffffffffffffffffff168152602001908152602001600020600082825403925050819055505b8373ffffffffffffffffffffffffffffffffffffffff168573ffffffffffffffffffffffffffffffffffffffff167fddf252ad1be2c89b69c2b068fc378daa952ba7f163c4a11628f55a4df523b3ef856040518082815260200191505060405180910390a360019150509392505050565b60026020528060005260406000206000915090505481565b600560009054906101000a900460ff1681565b600081600260008673ffffffffffffffffffffffffffffffffffffffff1673ffffffffffffffffffffffffffffffffffffffff1681526020019081526020016000205410151515610d2357600080fd5b81600260008573ffffffffffffffffffffffffffffffffffffffff1673ffffffffffffffffffffffffffffffffffffffff1681526020019081526020016000206000828254019250508190555081600260008673ffffffffffffffffffffffffffffffffffffffff1673ffffffffffffffffffffffffffffffffffffffff168152602001908152602001600020600082825403925050819055508273ffffffffffffffffffffffffffffffffffffffff168473ffffffffffffffffffffffffffffffffffffffff167fddf252ad1be2c89b69c2b068fc378daa952ba7f163c4a11628f55a4df523b3ef846040518082815260200191505060405180910390a3600190509392505050565b6003602052816000526040600020602052806000526040600020600091509150505481565b6000600260008373ffffffffffffffffffffffffffffffffffffffff1673ffffffffffffffffffffffffffffffffffffffff168152602001908152602001600020549050919050565b600082600260008773ffffffffffffffffffffffffffffffffffffffff1673ffffffffffffffffffffffffffffffffffffffff1681526020019081526020016000205410151515610eeb57600080fd5b82600260008673ffffffffffffffffffffffffffffffffffffffff1673ffffffffffffffffffffffffffffffffffffffff1681526020019081526020016000206000828254019250508190555082600260008773ffffffffffffffffffffffffffffffffffffffff1673ffffffffffffffffffffffffffffffffffffffff168152602001908152602001600020600082825403925050819055508373ffffffffffffffffffffffffffffffffffffffff168573ffffffffffffffffffffffffffffffffffffffff167fddf252ad1be2c89b69c2b068fc378daa952ba7f163c4a11628f55a4df523b3ef856040518082815260200191505060405180910390a38473ffffffffffffffffffffffffffffffffffffffff166108fc839081150290604051600060405180830381858888f19350505050158015611030573d6000803e3d6000fd5b507f6d74b7d23d2b62eb76d93aaf6a23906533fd8896f2e79560523cf55d7e65547f8583604051808373ffffffffffffffffffffffffffffffffffffffff1673ffffffffffffffffffffffffffffffffffffffff1681526020018281526020019250505060405180910390a160019050949350505050565b60068054600181600116156101000203166002900480601f01602080910402602001604051908101604052809291908181526020018280546001816001161561010002031660029004801561113e5780601f106111135761010080835404028352916020019161113e565b820191906000526020600020905b81548152906001019060200180831161112157829003601f168201915b505050505081565b600081600260003373ffffffffffffffffffffffffffffffffffffffff1673ffffffffffffffffffffffffffffffffffffffff168152602001908152602001600020541015151561119657600080fd5b81600260003373ffffffffffffffffffffffffffffffffffffffff1673ffffffffffffffffffffffffffffffffffffffff1681526020019081526020016000206000828254039250508190555081600260008573ffffffffffffffffffffffffffffffffffffffff1673ffffffffffffffffffffffffffffffffffffffff168152602001908152602001600020600082825401925050819055508273ffffffffffffffffffffffffffffffffffffffff163373ffffffffffffffffffffffffffffffffffffffff167fddf252ad1be2c89b69c2b068fc378daa952ba7f163c4a11628f55a4df523b3ef846040518082815260200191505060405180910390a36001905092915050565b600860009054906101000a900460ff1681565b60006112e233600160009054906101000a900473ffffffffffffffffffffffffffffffffffffffff168585610e9b565b506001905092915050565b6000600360008473ffffffffffffffffffffffffffffffffffffffff1673ffffffffffffffffffffffffffffffffffffffff16815260200190815260200160002060008373ffffffffffffffffffffffffffffffffffffffff1673ffffffffffffffffffffffffffffffffffffffff16815260200190815260200160002054905092915050565b60078054600181600116156101000203166002900480601f01602080910402602001604051908101604052809291908181526020018280546001816001161561010002031660029004801561140a5780601f106113df5761010080835404028352916020019161140a565b820191906000526020600020905b8154815290600101906020018083116113ed57829003601f168201915b5050505050815600a165627a7a72305820d5369abdd030667e1e76949f1fdc6793c50022c47da05d162b940645342d69e80029",
  "source": "/*\r\nImplements EIP20 token standard: https://github.com/ethereum/EIPs/blob/master/EIPS/eip-20.md\r\n.*/\r\n\r\n\r\npragma solidity ^0.4.21;\r\n\r\nimport \"./EIP20Interface.sol\";\r\n\r\n\r\ncontract EIP20 is EIP20Interface {\r\n\r\n    address public issuer;\r\n    uint256 constant private MAX_UINT256 = 2**256 - 1;\r\n    mapping (address => uint256) public balances;\r\n    mapping (address => mapping (address => uint256)) public allowed;\r\n    /*\r\n    NOTE:\r\n    The following variables are OPTIONAL vanities. One does not have to include them.\r\n    They allow one to customise the token contract & in no way influences the core functionality.\r\n    Some wallets/interfaces might not even bother to look at this information.\r\n    */\r\n    string public name;                   //fancy name: eg TRUMP COIN\r\n    uint8 public decimals;                //How many decimals to show.\r\n    string public symbol;                 //An identifier: eg TMP\r\n    string public exchangeRateToEth;      //Token to Eth exchange rate (0.5 means 2 Tokens = 1 Eth)\r\n    bool public isPointsOnly;             //Used as tokens, not a currency and non-exchangeable\r\n\r\n    event LogSell(address to, uint value);\r\n\r\n    function EIP20(\r\n        uint256 _initialAmount,\r\n        string _tokenName,\r\n        uint8 _decimalUnits,\r\n        string _tokenSymbol,\r\n        string _exchangeRateToEth,\r\n        bool _isPointsOnly,\r\n        address _issuer\r\n    ) public {\r\n        balances[msg.sender] = _initialAmount;               // Give the creator all initial tokens\r\n        totalSupply = _initialAmount;                        // Update total supply\r\n        name = _tokenName;                                   // Set the name for display purposes\r\n        decimals = _decimalUnits;                            // Amount of decimals for display purposes\r\n        symbol = _tokenSymbol;                               // Set the symbol for display purposes\r\n        exchangeRateToEth = _exchangeRateToEth;              // Set a fixed exchange exhange rate (otherwise assume floating or pointsOnly)\r\n        isPointsOnly = _isPointsOnly;                        // Points only, not an exchangeable currency\r\n        issuer = _issuer;\r\n    }\r\n\r\n    function transfer(address _to, uint256 _value) public returns (bool success) {\r\n        require(balances[msg.sender] >= _value);\r\n        balances[msg.sender] -= _value;\r\n        balances[_to] += _value;\r\n        emit Transfer(msg.sender, _to, _value); //solhint-disable-line indent, no-unused-vars\r\n        return true;\r\n    }\r\n\r\n    function transferFrom(address _from, address _to, uint256 _value) public returns (bool success) {\r\n        uint256 allowance = allowed[_from][msg.sender];\r\n        require(balances[_from] >= _value && allowance >= _value);\r\n        balances[_to] += _value;\r\n        balances[_from] -= _value;\r\n        if (allowance < MAX_UINT256) {\r\n            allowed[_from][msg.sender] -= _value;\r\n        }\r\n        emit Transfer(_from, _to, _value); //solhint-disable-line indent, no-unused-vars\r\n        return true;\r\n    }\r\n\r\n    function balanceOf(address _owner) public view returns (uint256 balance) {\r\n        return balances[_owner];\r\n    }\r\n\r\n    function approve(address _spender, uint256 _value) public returns (bool success) {\r\n        allowed[msg.sender][_spender] = _value;\r\n        emit Approval(msg.sender, _spender, _value); //solhint-disable-line indent, no-unused-vars\r\n        return true;\r\n    }\r\n\r\n    function allowance(address _owner, address _spender) public view returns (uint256 remaining) {\r\n        return allowed[_owner][_spender];\r\n    }\r\n\r\n    //buy tokens - send them from contract owner to buyer\r\n    function buyOrder(uint256 _amount) public payable returns (bool success) {\r\n        // reject payments of 0 ETH\r\n        if (msg.value == 0) {\r\n          revert();\r\n        }\r\n        processBuyOrder(issuer, msg.sender, _amount);\r\n        return true;\r\n    }\r\n\r\n    // A relaxed version of the TransferFrom Method for demo purposes - need to understand properly how allowances work...\r\n    function processBuyOrder(address _from, address _to, uint256 _amount) public returns (bool success) {\r\n        require(balances[_from] >= _amount);\r\n        balances[_to] += _amount;\r\n        balances[_from] -= _amount;\r\n        emit Transfer(_from, _to, _amount); //solhint-disable-line indent, no-unused-vars\r\n        return true;\r\n    }\r\n\r\n    //sell tokens - (very insecure!!) send eth from contract to buyer - obviously this is insecure. needs a separate exchange contract\r\n    function sellOrder(uint256 _amount, uint256 _value) public payable returns (bool success) {\r\n        processSellOrder(msg.sender, issuer, _amount, _value);\r\n        return true;\r\n    }\r\n\r\n    // A relaxed version of the TransferFrom Method for demo purposes - need to understand properly how allowances work...\r\n    function processSellOrder(address _seller, address _issuer, uint256 _amountToken, uint256 _valueEth) public returns (bool success) {\r\n        require(balances[_seller] >= _amountToken);\r\n        balances[_issuer] += _amountToken;\r\n        balances[_seller] -= _amountToken;\r\n\r\n        emit Transfer(_seller, _issuer, _amountToken); //solhint-disable-line indent, no-unused-vars\r\n\r\n        // Send eth to _to address\r\n        _seller.transfer(_valueEth);\r\n        emit LogSell(_seller, _valueEth);\r\n\r\n        return true;\r\n    }\r\n\r\n}\r\n",
  "sourcePath": "C:\\Users\\John\\EE-Proto\\blockchain-prototypes-framework\\contracts\\EIP20\\EIP20.sol",
  "compiler": {
    "name": "solc",
    "version": "0.4.23+commit.124ca40d.Emscripten.clang"
  },
  "schemaVersion": "2.0.0",
  "updatedAt": "2018-05-19T23:35:23.896Z"
}