{
  "contractName": "EIP20Factory",
  "abi": [
    {
      "constant": true,
      "inputs": [
        {
          "name": "",
          "type": "address"
        },
        {
          "name": "",
          "type": "uint256"
        }
      ],
      "name": "created",
      "outputs": [
        {
          "name": "",
          "type": "address"
        }
      ],
      "payable": false,
      "stateMutability": "view",
      "type": "function"
    },
    {
      "constant": true,
      "inputs": [
        {
          "name": "",
          "type": "address"
        }
      ],
      "name": "isEIP20",
      "outputs": [
        {
          "name": "",
          "type": "bool"
        }
      ],
      "payable": false,
      "stateMutability": "view",
      "type": "function"
    },
    {
      "constant": true,
      "inputs": [],
      "name": "EIP20ByteCode",
      "outputs": [
        {
          "name": "",
          "type": "bytes"
        }
      ],
      "payable": false,
      "stateMutability": "view",
      "type": "function"
    },
    {
      "constant": true,
      "inputs": [
        {
          "name": "",
          "type": "uint256"
        }
      ],
      "name": "eip20Contracts",
      "outputs": [
        {
          "name": "",
          "type": "address"
        }
      ],
      "payable": false,
      "stateMutability": "view",
      "type": "function"
    },
    {
      "inputs": [],
      "payable": false,
      "stateMutability": "nonpayable",
      "type": "constructor"
    },
    {
      "constant": true,
      "inputs": [
        {
          "name": "_tokenContract",
          "type": "address"
        }
      ],
      "name": "verifyEIP20",
      "outputs": [
        {
          "name": "",
          "type": "bool"
        }
      ],
      "payable": false,
      "stateMutability": "view",
      "type": "function"
    },
    {
      "constant": false,
      "inputs": [
        {
          "name": "_initialAmount",
          "type": "uint256"
        },
        {
          "name": "_name",
          "type": "string"
        },
        {
          "name": "_decimals",
          "type": "uint8"
        },
        {
          "name": "_symbol",
          "type": "string"
        },
        {
          "name": "_exchangeRateToEth",
          "type": "string"
        },
        {
          "name": "_isPointsOnly",
          "type": "bool"
        },
        {
          "name": "_issuer",
          "type": "address"
        },
        {
          "name": "_isTransferable",
          "type": "bool"
        }
      ],
      "name": "createEIP20",
      "outputs": [
        {
          "name": "",
          "type": "address"
        }
      ],
      "payable": false,
      "stateMutability": "nonpayable",
      "type": "function"
    },
    {
      "constant": true,
      "inputs": [],
      "name": "allEIP20Contracts",
      "outputs": [
        {
          "name": "",
          "type": "address[]"
        }
      ],
      "payable": false,
      "stateMutability": "view",
      "type": "function"
    }
  ],
  "bytecode": "0x608060405234801561001057600080fd5b5061238c806100206000396000f300608060405260043610610083576000357c0100000000000000000000000000000000000000000000000000000000900463ffffffff16806348749c7d146100885780635f8dead31461020c578063706438d1146102995780637cf62838146102f4578063ad1aaa5014610384578063cd4d6895146103f1578063f21294a51461044c575b600080fd5b34801561009457600080fd5b506101ca60048036038101908080359060200190929190803590602001908201803590602001908080601f0160208091040260200160405190810160405280939291908181526020018383808284378201915050505050509192919290803560ff169060200190929190803590602001908201803590602001908080601f0160208091040260200160405190810160405280939291908181526020018383808284378201915050505050509192919290803590602001908201803590602001908080601f0160208091040260200160405190810160405280939291908181526020018383808284378201915050505050509192919290803515159060200190929190803573ffffffffffffffffffffffffffffffffffffffff1690602001909291908035151590602001909291905050506104b8565b604051808273ffffffffffffffffffffffffffffffffffffffff1673ffffffffffffffffffffffffffffffffffffffff16815260200191505060405180910390f35b34801561021857600080fd5b50610257600480360381019080803573ffffffffffffffffffffffffffffffffffffffff169060200190929190803590602001909291905050506108de565b604051808273ffffffffffffffffffffffffffffffffffffffff1673ffffffffffffffffffffffffffffffffffffffff16815260200191505060405180910390f35b3480156102a557600080fd5b506102da600480360381019080803573ffffffffffffffffffffffffffffffffffffffff16906020019092919050505061092b565b604051808215151515815260200191505060405180910390f35b34801561030057600080fd5b5061030961094b565b6040518080602001828103825283818151815260200191508051906020019080838360005b8381101561034957808201518184015260208101905061032e565b50505050905090810190601f1680156103765780820380516001836020036101000a031916815260200191505b509250505060405180910390f35b34801561039057600080fd5b506103af600480360381019080803590602001909291905050506109e9565b604051808273ffffffffffffffffffffffffffffffffffffffff1673ffffffffffffffffffffffffffffffffffffffff16815260200191505060405180910390f35b3480156103fd57600080fd5b50610432600480360381019080803573ffffffffffffffffffffffffffffffffffffffff169060200190929190505050610a27565b604051808215151515815260200191505060405180910390f35b34801561045857600080fd5b50610461610b9a565b6040518080602001828103825283818151815260200191508051906020019060200280838360005b838110156104a4578082015181840152602081019050610489565b505050509050019250505060405180910390f35b60008089898989898989896104cb610c53565b80898152602001806020018860ff1660ff1681526020018060200180602001871515151581526020018673ffffffffffffffffffffffffffffffffffffffff1673ffffffffffffffffffffffffffffffffffffffff1681526020018515151515815260200184810384528b818151815260200191508051906020019080838360005b8381101561056857808201518184015260208101905061054d565b50505050905090810190601f1680156105955780820380516001836020036101000a031916815260200191505b50848103835289818151815260200191508051906020019080838360005b838110156105ce5780820151818401526020810190506105b3565b50505050905090810190601f1680156105fb5780820380516001836020036101000a031916815260200191505b50848103825288818151815260200191508051906020019080838360005b83811015610634578082015181840152602081019050610619565b50505050905090810190601f1680156106615780820380516001836020036101000a031916815260200191505b509b505050505050505050505050604051809103906000f08015801561068b573d6000803e3d6000fd5b509050600160003373ffffffffffffffffffffffffffffffffffffffff1673ffffffffffffffffffffffffffffffffffffffff1681526020019081526020016000208190806001815401808255809150509060018203906000526020600020016000909192909190916101000a81548173ffffffffffffffffffffffffffffffffffffffff021916908373ffffffffffffffffffffffffffffffffffffffff1602179055505060008190806001815401808255809150509060018203906000526020600020016000909192909190916101000a81548173ffffffffffffffffffffffffffffffffffffffff021916908373ffffffffffffffffffffffffffffffffffffffff160217905550506001600260008373ffffffffffffffffffffffffffffffffffffffff1673ffffffffffffffffffffffffffffffffffffffff16815260200190815260200160002060006101000a81548160ff0219169083151502179055508073ffffffffffffffffffffffffffffffffffffffff1663a9059cbb338c6040518363ffffffff167c0100000000000000000000000000000000000000000000000000000000028152600401808373ffffffffffffffffffffffffffffffffffffffff1673ffffffffffffffffffffffffffffffffffffffff16815260200182815260200192505050602060405180830381600087803b15801561089257600080fd5b505af11580156108a6573d6000803e3d6000fd5b505050506040513d60208110156108bc57600080fd5b8101908080519060200190929190505050508091505098975050505050505050565b6001602052816000526040600020818154811015156108f957fe5b906000526020600020016000915091509054906101000a900473ffffffffffffffffffffffffffffffffffffffff1681565b60026020528060005260406000206000915054906101000a900460ff1681565b60038054600181600116156101000203166002900480601f0160208091040260200160405190810160405280929190818152602001828054600181600116156101000203166002900480156109e15780601f106109b6576101008083540402835291602001916109e1565b820191906000526020600020905b8154815290600101906020018083116109c457829003601f168201915b505050505081565b6000818154811015156109f857fe5b906000526020600020016000915054906101000a900473ffffffffffffffffffffffffffffffffffffffff1681565b600060606000610a3684610c28565b915060038054600181600116156101000203166002900490508251141515610a615760009250610b93565b600090505b8151811015610b8e576003818154600181600116156101000203166002900481101515610a8f57fe5b815460011615610aae5790600052602060002090602091828204019190065b9054901a7f0100000000000000000000000000000000000000000000000000000000000000027effffffffffffffffffffffffffffffffffffffffffffffffffffffffffffff19168282815181101515610b0457fe5b9060200101517f010000000000000000000000000000000000000000000000000000000000000090047f0100000000000000000000000000000000000000000000000000000000000000027effffffffffffffffffffffffffffffffffffffffffffffffffffffffffffff1916141515610b815760009250610b93565b8080600101915050610a66565b600192505b5050919050565b60606000805480602002602001604051908101604052809291908181526020018280548015610c1e57602002820191906000526020600020905b8160009054906101000a900473ffffffffffffffffffffffffffffffffffffffff1673ffffffffffffffffffffffffffffffffffffffff1681526020019060010190808311610bd4575b5050505050905090565b6060813b6040519150601f19601f602083010116820160405280825280600060208401853c50919050565b6040516116fd80610c6483390190560060806040523480156200001157600080fd5b50604051620016fd380380620016fd833981018060405281019080805190602001909291908051820192919060200180519060200190929190805182019291906020018051820192919060200180519060200190929190805190602001909291908051906020019092919050505087600260003373ffffffffffffffffffffffffffffffffffffffff1673ffffffffffffffffffffffffffffffffffffffff16815260200190815260200160002081905550876000819055508660049080519060200190620000e2929190620001b3565b5085600560006101000a81548160ff021916908360ff160217905550846006908051906020019062000116929190620001b3565b5083600790805190602001906200012f929190620001b3565b5082600860006101000a81548160ff02191690831515021790555081600160006101000a81548173ffffffffffffffffffffffffffffffffffffffff021916908373ffffffffffffffffffffffffffffffffffffffff16021790555080600860016101000a81548160ff021916908315150217905550505050505050505062000262565b828054600181600116156101000203166002900490600052602060002090601f016020900481019282601f10620001f657805160ff191683800117855562000227565b8280016001018555821562000227579182015b828111156200022657825182559160200191906001019062000209565b5b5090506200023691906200023a565b5090565b6200025f91905b808211156200025b57600081600090555060010162000241565b5090565b90565b61148b80620002726000396000f300608060405260043610610107576000357c0100000000000000000000000000000000000000000000000000000000900463ffffffff16806306fdde031461010c578063095ea7b31461019c57806318160ddd146102015780631d1438481461022c5780632121dc751461028357806322f85eaa146102b257806323b872dd146102ea57806327e235e31461036f578063313ce567146103c657806351e18585146103f75780635c6581651461047c57806370a08231146104f357806377a4485f1461054a57806395d89b41146105d9578063a9059cbb14610669578063cba9be0c146106ce578063cd61a95a146106fd578063dd62ed3e1461073f578063f01600fa146107b6575b600080fd5b34801561011857600080fd5b50610121610846565b6040518080602001828103825283818151815260200191508051906020019080838360005b83811015610161578082015181840152602081019050610146565b50505050905090810190601f16801561018e5780820380516001836020036101000a031916815260200191505b509250505060405180910390f35b3480156101a857600080fd5b506101e7600480360381019080803573ffffffffffffffffffffffffffffffffffffffff169060200190929190803590602001909291905050506108e4565b604051808215151515815260200191505060405180910390f35b34801561020d57600080fd5b506102166109d6565b6040518082815260200191505060405180910390f35b34801561023857600080fd5b506102416109dc565b604051808273ffffffffffffffffffffffffffffffffffffffff1673ffffffffffffffffffffffffffffffffffffffff16815260200191505060405180910390f35b34801561028f57600080fd5b50610298610a02565b604051808215151515815260200191505060405180910390f35b6102d060048036038101908080359060200190929190505050610a15565b604051808215151515815260200191505060405180910390f35b3480156102f657600080fd5b50610355600480360381019080803573ffffffffffffffffffffffffffffffffffffffff169060200190929190803573ffffffffffffffffffffffffffffffffffffffff16906020019092919080359060200190929190505050610a5b565b604051808215151515815260200191505060405180910390f35b34801561037b57600080fd5b506103b0600480360381019080803573ffffffffffffffffffffffffffffffffffffffff169060200190929190505050610cf5565b6040518082815260200191505060405180910390f35b3480156103d257600080fd5b506103db610d0d565b604051808260ff1660ff16815260200191505060405180910390f35b34801561040357600080fd5b50610462600480360381019080803573ffffffffffffffffffffffffffffffffffffffff169060200190929190803573ffffffffffffffffffffffffffffffffffffffff16906020019092919080359060200190929190505050610d20565b604051808215151515815260200191505060405180910390f35b34801561048857600080fd5b506104dd600480360381019080803573ffffffffffffffffffffffffffffffffffffffff169060200190929190803573ffffffffffffffffffffffffffffffffffffffff169060200190929190505050610e7a565b6040518082815260200191505060405180910390f35b3480156104ff57600080fd5b50610534600480360381019080803573ffffffffffffffffffffffffffffffffffffffff169060200190929190505050610e9f565b6040518082815260200191505060405180910390f35b34801561055657600080fd5b506105bf600480360381019080803573ffffffffffffffffffffffffffffffffffffffff169060200190929190803573ffffffffffffffffffffffffffffffffffffffff1690602001909291908035906020019092919080359060200190929190505050610ee8565b604051808215151515815260200191505060405180910390f35b3480156105e557600080fd5b506105ee6110f5565b6040518080602001828103825283818151815260200191508051906020019080838360005b8381101561062e578082015181840152602081019050610613565b50505050905090810190601f16801561065b5780820380516001836020036101000a031916815260200191505b509250505060405180910390f35b34801561067557600080fd5b506106b4600480360381019080803573ffffffffffffffffffffffffffffffffffffffff16906020019092919080359060200190929190505050611193565b604051808215151515815260200191505060405180910390f35b3480156106da57600080fd5b506106e36112ec565b604051808215151515815260200191505060405180910390f35b61072560048036038101908080359060200190929190803590602001909291905050506112ff565b604051808215151515815260200191505060405180910390f35b34801561074b57600080fd5b506107a0600480360381019080803573ffffffffffffffffffffffffffffffffffffffff169060200190929190803573ffffffffffffffffffffffffffffffffffffffff16906020019092919050505061133a565b6040518082815260200191505060405180910390f35b3480156107c257600080fd5b506107cb6113c1565b6040518080602001828103825283818151815260200191508051906020019080838360005b8381101561080b5780820151818401526020810190506107f0565b50505050905090810190601f1680156108385780820380516001836020036101000a031916815260200191505b509250505060405180910390f35b60048054600181600116156101000203166002900480601f0160208091040260200160405190810160405280929190818152602001828054600181600116156101000203166002900480156108dc5780601f106108b1576101008083540402835291602001916108dc565b820191906000526020600020905b8154815290600101906020018083116108bf57829003601f168201915b505050505081565b600081600360003373ffffffffffffffffffffffffffffffffffffffff1673ffffffffffffffffffffffffffffffffffffffff16815260200190815260200160002060008573ffffffffffffffffffffffffffffffffffffffff1673ffffffffffffffffffffffffffffffffffffffff168152602001908152602001600020819055508273ffffffffffffffffffffffffffffffffffffffff163373ffffffffffffffffffffffffffffffffffffffff167f8c5be1e5ebec7d5bd14f71427d1e84f3dd0314c0f7b2291e5b200ac8c7c3b925846040518082815260200191505060405180910390a36001905092915050565b60005481565b600160009054906101000a900473ffffffffffffffffffffffffffffffffffffffff1681565b600860019054906101000a900460ff1681565b600080341415610a2457600080fd5b610a51600160009054906101000a900473ffffffffffffffffffffffffffffffffffffffff163384610d20565b5060019050919050565b600080600360008673ffffffffffffffffffffffffffffffffffffffff1673ffffffffffffffffffffffffffffffffffffffff16815260200190815260200160002060003373ffffffffffffffffffffffffffffffffffffffff1673ffffffffffffffffffffffffffffffffffffffff16815260200190815260200160002054905082600260008773ffffffffffffffffffffffffffffffffffffffff1673ffffffffffffffffffffffffffffffffffffffff1681526020019081526020016000205410158015610b2c5750828110155b1515610b3757600080fd5b82600260008673ffffffffffffffffffffffffffffffffffffffff1673ffffffffffffffffffffffffffffffffffffffff1681526020019081526020016000206000828254019250508190555082600260008773ffffffffffffffffffffffffffffffffffffffff1673ffffffffffffffffffffffffffffffffffffffff168152602001908152602001600020600082825403925050819055507fffffffffffffffffffffffffffffffffffffffffffffffffffffffffffffffff811015610c845782600360008773ffffffffffffffffffffffffffffffffffffffff1673ffffffffffffffffffffffffffffffffffffffff16815260200190815260200160002060003373ffffffffffffffffffffffffffffffffffffffff1673ffffffffffffffffffffffffffffffffffffffff168152602001908152602001600020600082825403925050819055505b8373ffffffffffffffffffffffffffffffffffffffff168573ffffffffffffffffffffffffffffffffffffffff167fddf252ad1be2c89b69c2b068fc378daa952ba7f163c4a11628f55a4df523b3ef856040518082815260200191505060405180910390a360019150509392505050565b60026020528060005260406000206000915090505481565b600560009054906101000a900460ff1681565b600081600260008673ffffffffffffffffffffffffffffffffffffffff1673ffffffffffffffffffffffffffffffffffffffff1681526020019081526020016000205410151515610d7057600080fd5b81600260008573ffffffffffffffffffffffffffffffffffffffff1673ffffffffffffffffffffffffffffffffffffffff1681526020019081526020016000206000828254019250508190555081600260008673ffffffffffffffffffffffffffffffffffffffff1673ffffffffffffffffffffffffffffffffffffffff168152602001908152602001600020600082825403925050819055508273ffffffffffffffffffffffffffffffffffffffff168473ffffffffffffffffffffffffffffffffffffffff167fddf252ad1be2c89b69c2b068fc378daa952ba7f163c4a11628f55a4df523b3ef846040518082815260200191505060405180910390a3600190509392505050565b6003602052816000526040600020602052806000526040600020600091509150505481565b6000600260008373ffffffffffffffffffffffffffffffffffffffff1673ffffffffffffffffffffffffffffffffffffffff168152602001908152602001600020549050919050565b600082600260008773ffffffffffffffffffffffffffffffffffffffff1673ffffffffffffffffffffffffffffffffffffffff1681526020019081526020016000205410151515610f3857600080fd5b82600260008673ffffffffffffffffffffffffffffffffffffffff1673ffffffffffffffffffffffffffffffffffffffff1681526020019081526020016000206000828254019250508190555082600260008773ffffffffffffffffffffffffffffffffffffffff1673ffffffffffffffffffffffffffffffffffffffff168152602001908152602001600020600082825403925050819055508373ffffffffffffffffffffffffffffffffffffffff168573ffffffffffffffffffffffffffffffffffffffff167fddf252ad1be2c89b69c2b068fc378daa952ba7f163c4a11628f55a4df523b3ef856040518082815260200191505060405180910390a38473ffffffffffffffffffffffffffffffffffffffff166108fc839081150290604051600060405180830381858888f1935050505015801561107d573d6000803e3d6000fd5b507f6d74b7d23d2b62eb76d93aaf6a23906533fd8896f2e79560523cf55d7e65547f8583604051808373ffffffffffffffffffffffffffffffffffffffff1673ffffffffffffffffffffffffffffffffffffffff1681526020018281526020019250505060405180910390a160019050949350505050565b60068054600181600116156101000203166002900480601f01602080910402602001604051908101604052809291908181526020018280546001816001161561010002031660029004801561118b5780601f106111605761010080835404028352916020019161118b565b820191906000526020600020905b81548152906001019060200180831161116e57829003601f168201915b505050505081565b600081600260003373ffffffffffffffffffffffffffffffffffffffff1673ffffffffffffffffffffffffffffffffffffffff16815260200190815260200160002054101515156111e357600080fd5b81600260003373ffffffffffffffffffffffffffffffffffffffff1673ffffffffffffffffffffffffffffffffffffffff1681526020019081526020016000206000828254039250508190555081600260008573ffffffffffffffffffffffffffffffffffffffff1673ffffffffffffffffffffffffffffffffffffffff168152602001908152602001600020600082825401925050819055508273ffffffffffffffffffffffffffffffffffffffff163373ffffffffffffffffffffffffffffffffffffffff167fddf252ad1be2c89b69c2b068fc378daa952ba7f163c4a11628f55a4df523b3ef846040518082815260200191505060405180910390a36001905092915050565b600860009054906101000a900460ff1681565b600061132f33600160009054906101000a900473ffffffffffffffffffffffffffffffffffffffff168585610ee8565b506001905092915050565b6000600360008473ffffffffffffffffffffffffffffffffffffffff1673ffffffffffffffffffffffffffffffffffffffff16815260200190815260200160002060008373ffffffffffffffffffffffffffffffffffffffff1673ffffffffffffffffffffffffffffffffffffffff16815260200190815260200160002054905092915050565b60078054600181600116156101000203166002900480601f0160208091040260200160405190810160405280929190818152602001828054600181600116156101000203166002900480156114575780601f1061142c57610100808354040283529160200191611457565b820191906000526020600020905b81548152906001019060200180831161143a57829003601f168201915b5050505050815600a165627a7a72305820d7d2a7fda39cc6f6583728b32f22cb79e5964eea05f0415683013bd3a68e00c20029a165627a7a723058200ea6eab71771ac10f2f5d5e5ba3c8c7ac7afd6c4864341ae00cf325da34833f90029",
  "source": "import \"./EIP20.sol\";\r\n\r\npragma solidity ^0.4.21;\r\n\r\n\r\ncontract EIP20Factory {\r\n\r\n    address[] public eip20Contracts; //using for demo, use mapping in production\r\n    mapping(address => address[]) public created;\r\n    mapping(address => bool) public isEIP20; //verify without having to do a bytecode check.\r\n    bytes public EIP20ByteCode; // solhint-disable-line var-name-mixedcase\r\n\r\n    function EIP20Factory() public {\r\n        //upon creation of the factory, deploy a EIP20 (parameters are meaningless) and store the bytecode provably.\r\n        // address verifiedToken = createEIP20(10000, \"Verify Token\", 3, \"VTX\"); //use unit tests instead of this\r\n        // EIP20ByteCode = codeAt(verifiedToken); //use unit tests instead of this\r\n    }\r\n\r\n    //verifies if a contract that has been deployed is a Human Standard Token.\r\n    //NOTE: This is a very expensive function, and should only be used in an eth_call. ~800k gas\r\n    function verifyEIP20(address _tokenContract) public view returns (bool) {\r\n        bytes memory fetchedTokenByteCode = codeAt(_tokenContract);\r\n\r\n        if (fetchedTokenByteCode.length != EIP20ByteCode.length) {\r\n            return false; //clear mismatch\r\n        }\r\n\r\n      //starting iterating through it if lengths match\r\n        for (uint i = 0; i < fetchedTokenByteCode.length; i++) {\r\n            if (fetchedTokenByteCode[i] != EIP20ByteCode[i]) {\r\n                return false;\r\n            }\r\n        }\r\n        return true;\r\n    }\r\n\r\n    function createEIP20(uint256 _initialAmount, string _name, uint8 _decimals, string _symbol, string _exchangeRateToEth,\r\n    bool _isPointsOnly, address _issuer, bool _isTransferable)\r\n        public\r\n    returns (address) {\r\n\r\n        EIP20 newToken = (new EIP20(_initialAmount, _name, _decimals, _symbol, _exchangeRateToEth, _isPointsOnly, _issuer, _isTransferable));\r\n        created[msg.sender].push(address(newToken));\r\n        eip20Contracts.push(newToken);\r\n        isEIP20[address(newToken)] = true;\r\n        //the factory will own the created tokens. You must transfer them.\r\n        newToken.transfer(msg.sender, _initialAmount);\r\n        return address(newToken);\r\n    }\r\n\r\n    //for now, keeping this internal. Ideally there should also be a live version of this that\r\n    // any contract can use, lib-style.\r\n    //retrieves the bytecode at a specific address.\r\n    function codeAt(address _addr) internal view returns (bytes outputCode) {\r\n        assembly { // solhint-disable-line no-inline-assembly\r\n            // retrieve the size of the code, this needs assembly\r\n            let size := extcodesize(_addr)\r\n            // allocate output byte array - this could also be done without assembly\r\n            // by using outputCode = new bytes(size)\r\n            outputCode := mload(0x40)\r\n            // new \"memory end\" including padding\r\n            mstore(0x40, add(outputCode, and(add(add(size, 0x20), 0x1f), not(0x1f))))\r\n            // store length in memory\r\n            mstore(outputCode, size)\r\n            // actually retrieve the code, this needs assembly\r\n            extcodecopy(_addr, add(outputCode, 0x20), 0, size)\r\n        }\r\n    }\r\n\r\n    // for demo purposes this is fine, but perhaps use the mapper in production\r\n    function allEIP20Contracts() public constant returns (address[]) {\r\n        return eip20Contracts;\r\n    }\r\n\r\n\r\n}\r\n",
  "sourcePath": "C:\\Users\\John\\EE-Proto\\blockchain-prototypes-framework\\contracts\\EIP20\\EIP20Factory.sol",
  "compiler": {
    "name": "solc",
    "version": "0.4.23+commit.124ca40d.Emscripten.clang"
  },
  "schemaVersion": "2.0.0",
  "updatedAt": "2018-06-07T06:53:11.063Z"
}