{
  "contractName": "EscrowFactory",
  "abi": [
    {
      "constant": true,
      "inputs": [
        {
          "name": "",
          "type": "uint256"
        }
      ],
      "name": "escrowContracts",
      "outputs": [
        {
          "name": "",
          "type": "address"
        }
      ],
      "payable": false,
      "stateMutability": "view",
      "type": "function"
    },
    {
      "inputs": [],
      "payable": false,
      "stateMutability": "nonpayable",
      "type": "constructor"
    },
    {
      "anonymous": false,
      "inputs": [
        {
          "indexed": false,
          "name": "escrowContract",
          "type": "address"
        },
        {
          "indexed": false,
          "name": "owner",
          "type": "address"
        },
        {
          "indexed": false,
          "name": "numEscrowContracts",
          "type": "uint256"
        },
        {
          "indexed": false,
          "name": "allEscrowContracts",
          "type": "address[]"
        }
      ],
      "name": "EscrowCreated",
      "type": "event"
    },
    {
      "constant": false,
      "inputs": [
        {
          "name": "_sellerAddress",
          "type": "address"
        },
        {
          "name": "_buyerAddress",
          "type": "address"
        },
        {
          "name": "_feePercent",
          "type": "uint256"
        },
        {
          "name": "_saleItem",
          "type": "string"
        }
      ],
      "name": "createEscrow",
      "outputs": [],
      "payable": false,
      "stateMutability": "nonpayable",
      "type": "function"
    },
    {
      "constant": true,
      "inputs": [],
      "name": "allEscrowContracts",
      "outputs": [
        {
          "name": "",
          "type": "address[]"
        }
      ],
      "payable": false,
      "stateMutability": "view",
      "type": "function"
    }
  ],
  "bytecode": "0x6060604052341561000f57600080fd5b61122e8061001e6000396000f300606060405260043610610057576000357c0100000000000000000000000000000000000000000000000000000000900463ffffffff1680637be87b9e1461005c578063d0e2dfba14610100578063eebff2e514610163575b600080fd5b341561006757600080fd5b6100fe600480803573ffffffffffffffffffffffffffffffffffffffff1690602001909190803573ffffffffffffffffffffffffffffffffffffffff1690602001909190803590602001909190803590602001908201803590602001908080601f016020809104026020016040519081016040528093929190818152602001838380828437820191505050505050919050506101cd565b005b341561010b57600080fd5b610121600480803590602001909190505061048e565b604051808273ffffffffffffffffffffffffffffffffffffffff1673ffffffffffffffffffffffffffffffffffffffff16815260200191505060405180910390f35b341561016e57600080fd5b6101766104cd565b6040518080602001828103825283818151815260200191508051906020019060200280838360005b838110156101b957808201518184015260208101905061019e565b505050509050019250505060405180910390f35b600033858585856101dc610561565b808673ffffffffffffffffffffffffffffffffffffffff1673ffffffffffffffffffffffffffffffffffffffff1681526020018573ffffffffffffffffffffffffffffffffffffffff1673ffffffffffffffffffffffffffffffffffffffff1681526020018473ffffffffffffffffffffffffffffffffffffffff1673ffffffffffffffffffffffffffffffffffffffff16815260200183815260200180602001828103825283818151815260200191508051906020019080838360005b838110156102b557808201518184015260208101905061029a565b50505050905090810190601f1680156102e25780820380516001836020036101000a031916815260200191505b509650505050505050604051809103906000f080151561030157600080fd5b9050600080548060010182816103179190610571565b9160005260206000209001600083909190916101000a81548173ffffffffffffffffffffffffffffffffffffffff021916908373ffffffffffffffffffffffffffffffffffffffff160217905550507fdbdceddd8bc4860b21c888f904d7059597bf6bec110269f192cacad88548da3f81336000805490506000604051808573ffffffffffffffffffffffffffffffffffffffff1673ffffffffffffffffffffffffffffffffffffffff1681526020018473ffffffffffffffffffffffffffffffffffffffff1673ffffffffffffffffffffffffffffffffffffffff16815260200183815260200180602001828103825283818154815260200191508054801561047657602002820191906000526020600020905b8160009054906101000a900473ffffffffffffffffffffffffffffffffffffffff1673ffffffffffffffffffffffffffffffffffffffff168152602001906001019080831161042c575b50509550505050505060405180910390a15050505050565b60008181548110151561049d57fe5b90600052602060002090016000915054906101000a900473ffffffffffffffffffffffffffffffffffffffff1681565b6104d561059d565b600080548060200260200160405190810160405280929190818152602001828054801561055757602002820191906000526020600020905b8160009054906101000a900473ffffffffffffffffffffffffffffffffffffffff1673ffffffffffffffffffffffffffffffffffffffff168152602001906001019080831161050d575b5050505050905090565b604051610c2c806105d783390190565b8154818355818115116105985781836000526020600020918201910161059791906105b1565b5b505050565b602060405190810160405280600081525090565b6105d391905b808211156105cf5760008160009055506001016105b7565b5090565b90560060606040526000600760026101000a81548160ff021916908315150217905550341561002a57600080fd5b604051610c2c380380610c2c8339810160405280805190602001909190805190602001909190805190602001909190805190602001909190805182019190505060008210806100795750601982115b1561008357600080fd5b33600560006101000a81548173ffffffffffffffffffffffffffffffffffffffff021916908373ffffffffffffffffffffffffffffffffffffffff16021790555083600260006101000a81548173ffffffffffffffffffffffffffffffffffffffff021916908373ffffffffffffffffffffffffffffffffffffffff16021790555082600360006101000a81548173ffffffffffffffffffffffffffffffffffffffff021916908373ffffffffffffffffffffffffffffffffffffffff1602179055508160048190555080600690805190602001906101639291906101af565b5084600160006101000a81548173ffffffffffffffffffffffffffffffffffffffff021916908373ffffffffffffffffffffffffffffffffffffffff1602179055505050505050610254565b828054600181600116156101000203166002900490600052602060002090601f016020900481019282601f106101f057805160ff191683800117855561021e565b8280016001018555821561021e579182015b8281111561021d578251825591602001919060010190610202565b5b50905061022b919061022f565b5090565b61025191905b8082111561024d576000816000905550600101610235565b5090565b90565b6109c9806102636000396000f300606060405260043610610099576000357c0100000000000000000000000000000000000000000000000000000000900463ffffffff16806312424e3f1461009e5780633d9b2ae6146100b357806344834aca1461010857806344dc24ca1461015d5780637fd6f15c1461017257806385e012091461019b5780638da5cb5b146101f057806394f1ff8e14610245578063f7ca28471461024f575b600080fd5b34156100a957600080fd5b6100b16102dd565b005b34156100be57600080fd5b6100c661048f565b604051808273ffffffffffffffffffffffffffffffffffffffff1673ffffffffffffffffffffffffffffffffffffffff16815260200191505060405180910390f35b341561011357600080fd5b61011b6104b5565b604051808273ffffffffffffffffffffffffffffffffffffffff1673ffffffffffffffffffffffffffffffffffffffff16815260200191505060405180910390f35b341561016857600080fd5b6101706104db565b005b341561017d57600080fd5b6101856105fe565b6040518082815260200191505060405180910390f35b34156101a657600080fd5b6101ae610604565b604051808273ffffffffffffffffffffffffffffffffffffffff1673ffffffffffffffffffffffffffffffffffffffff16815260200191505060405180910390f35b34156101fb57600080fd5b61020361062a565b604051808273ffffffffffffffffffffffffffffffffffffffff1673ffffffffffffffffffffffffffffffffffffffff16815260200191505060405180910390f35b61024d610650565b005b341561025a57600080fd5b610262610720565b6040518080602001828103825283818151815260200191508051906020019080838360005b838110156102a2578082015181840152602081019050610287565b50505050905090810190601f1680156102cf5780820380516001836020036101000a031916815260200191505b509250505060405180910390f35b6000806000600360009054906101000a900473ffffffffffffffffffffffffffffffffffffffff1673ffffffffffffffffffffffffffffffffffffffff1673ffffffffffffffffffffffffffffffffffffffff16815260200190815260200160002054141561034b57600080fd5b600360009054906101000a900473ffffffffffffffffffffffffffffffffffffffff1673ffffffffffffffffffffffffffffffffffffffff163373ffffffffffffffffffffffffffffffffffffffff1614156103c1576001600760016101000a81548160ff021916908315150217905550610434565b600260009054906101000a900473ffffffffffffffffffffffffffffffffffffffff1673ffffffffffffffffffffffffffffffffffffffff163373ffffffffffffffffffffffffffffffffffffffff161415610433576001600760006101000a81548160ff0219169083151502179055505b5b600760009054906101000a900460ff16801561045c5750600760019054906101000a900460ff165b1561048d576104696107be565b610471610849565b6001600760026101000a81548160ff0219169083151502179055505b565b600260009054906101000a900473ffffffffffffffffffffffffffffffffffffffff1681565b600360009054906101000a900473ffffffffffffffffffffffffffffffffffffffff1681565b600360009054906101000a900473ffffffffffffffffffffffffffffffffffffffff1673ffffffffffffffffffffffffffffffffffffffff163373ffffffffffffffffffffffffffffffffffffffff161415610551576000600760016101000a81548160ff0219169083151502179055506105c4565b600260009054906101000a900473ffffffffffffffffffffffffffffffffffffffff1673ffffffffffffffffffffffffffffffffffffffff163373ffffffffffffffffffffffffffffffffffffffff1614156105c3576000600760006101000a81548160ff0219169083151502179055505b5b600760009054906101000a900460ff161580156105ee5750600760019054906101000a900460ff16155b156105fc576105fb610925565b5b565b60045481565b600560009054906101000a900473ffffffffffffffffffffffffffffffffffffffff1681565b600160009054906101000a900473ffffffffffffffffffffffffffffffffffffffff1681565b600360009054906101000a900473ffffffffffffffffffffffffffffffffffffffff1673ffffffffffffffffffffffffffffffffffffffff163373ffffffffffffffffffffffffffffffffffffffff1614156107195734600080600360009054906101000a900473ffffffffffffffffffffffffffffffffffffffff1673ffffffffffffffffffffffffffffffffffffffff1673ffffffffffffffffffffffffffffffffffffffff1681526020019081526020016000206000828254019250508190555061071e565b600080fd5b565b60068054600181600116156101000203166002900480601f0160208091040260200160405190810160405280929190818152602001828054600181600116156101000203166002900480156107b65780601f1061078b576101008083540402835291602001916107b6565b820191906000526020600020905b81548152906001019060200180831161079957829003601f168201915b505050505081565b600560009054906101000a900473ffffffffffffffffffffffffffffffffffffffff1673ffffffffffffffffffffffffffffffffffffffff166108fc60646004543073ffffffffffffffffffffffffffffffffffffffff16310281151561082157fe5b049081150290604051600060405180830381858888f19350505050151561084757600080fd5b565b600260009054906101000a900473ffffffffffffffffffffffffffffffffffffffff1673ffffffffffffffffffffffffffffffffffffffff166108fc3073ffffffffffffffffffffffffffffffffffffffff16319081150290604051600060405180830381858888f1935050505015610923576000806000600360009054906101000a900473ffffffffffffffffffffffffffffffffffffffff1673ffffffffffffffffffffffffffffffffffffffff1673ffffffffffffffffffffffffffffffffffffffff168152602001908152602001600020819055505b565b60001515600760019054906101000a900460ff16151514801561095b575060001515600760009054906101000a900460ff161515145b1561099b57600360009054906101000a900473ffffffffffffffffffffffffffffffffffffffff1673ffffffffffffffffffffffffffffffffffffffff16ff5b5600a165627a7a72305820c24bc5cb50448177562d2014d34008210bdd2a3e5fe3de3da3c04445280487830029a165627a7a72305820af24884389a73f1992d575a499feb242e95c800a29d8f099a2343353f52c5e160029",
  "source": "pragma solidity ^0.4.8;\r\n\r\nimport { Escrow } from './Escrow.sol';\r\n\r\ncontract EscrowFactory {\r\n    address[] public escrowContracts;\r\n\r\n    event EscrowCreated(address escrowContract, address owner, uint numEscrowContracts, address[] allEscrowContracts);\r\n\r\n    function EscrowFactory () public {\r\n    }\r\n\r\n    function createEscrow(address _sellerAddress, address _buyerAddress, uint _feePercent, string _saleItem) public {\r\n        Escrow newEscrow = new Escrow(msg.sender, _sellerAddress, _buyerAddress, _feePercent, _saleItem);\r\n        escrowContracts.push(newEscrow);\r\n\r\n        EscrowCreated(newEscrow, msg.sender, escrowContracts.length, escrowContracts);\r\n    }\r\n\r\n    function allEscrowContracts() public constant returns (address[]) {\r\n        return escrowContracts;\r\n    }\r\n}\r\n",
  "sourcePath": "C:\\Users\\John\\EE-Prototyping\\blockchain-prototypes-framework\\contracts\\escrow\\EscrowFactory.sol",
  "compiler": {
    "name": "solc",
    "version": "0.4.19+commit.c4cbbb05.Emscripten.clang"
  },
  "schemaVersion": "2.0.0",
  "updatedAt": "2018-05-03T07:12:45.230Z"
}