{
  "contractName": "Escrow",
  "abi": [
    {
      "constant": true,
      "inputs": [],
      "name": "sellerAddress",
      "outputs": [
        {
          "name": "",
          "type": "address"
        }
      ],
      "payable": false,
      "stateMutability": "view",
      "type": "function"
    },
    {
      "constant": true,
      "inputs": [],
      "name": "buyerAddress",
      "outputs": [
        {
          "name": "",
          "type": "address"
        }
      ],
      "payable": false,
      "stateMutability": "view",
      "type": "function"
    },
    {
      "constant": true,
      "inputs": [],
      "name": "feePercent",
      "outputs": [
        {
          "name": "",
          "type": "uint256"
        }
      ],
      "payable": false,
      "stateMutability": "view",
      "type": "function"
    },
    {
      "constant": true,
      "inputs": [],
      "name": "escrowProviderAddress",
      "outputs": [
        {
          "name": "",
          "type": "address"
        }
      ],
      "payable": false,
      "stateMutability": "view",
      "type": "function"
    },
    {
      "constant": true,
      "inputs": [],
      "name": "owner",
      "outputs": [
        {
          "name": "",
          "type": "address"
        }
      ],
      "payable": false,
      "stateMutability": "view",
      "type": "function"
    },
    {
      "constant": true,
      "inputs": [],
      "name": "saleItem",
      "outputs": [
        {
          "name": "",
          "type": "string"
        }
      ],
      "payable": false,
      "stateMutability": "view",
      "type": "function"
    },
    {
      "inputs": [
        {
          "name": "_owner",
          "type": "address"
        },
        {
          "name": "_sellerAddress",
          "type": "address"
        },
        {
          "name": "_buyerAddress",
          "type": "address"
        },
        {
          "name": "_feePercent",
          "type": "uint256"
        },
        {
          "name": "_saleItem",
          "type": "string"
        }
      ],
      "payable": false,
      "stateMutability": "nonpayable",
      "type": "constructor"
    },
    {
      "constant": false,
      "inputs": [],
      "name": "depositBuyerFunds",
      "outputs": [],
      "payable": true,
      "stateMutability": "payable",
      "type": "function"
    },
    {
      "constant": false,
      "inputs": [],
      "name": "approve",
      "outputs": [],
      "payable": false,
      "stateMutability": "nonpayable",
      "type": "function"
    },
    {
      "constant": false,
      "inputs": [],
      "name": "voidContract",
      "outputs": [],
      "payable": false,
      "stateMutability": "nonpayable",
      "type": "function"
    }
  ],
  "bytecode": "0x60606040526000600760026101000a81548160ff021916908315150217905550341561002a57600080fd5b604051610c2c380380610c2c8339810160405280805190602001909190805190602001909190805190602001909190805190602001909190805182019190505060008210806100795750601982115b1561008357600080fd5b33600560006101000a81548173ffffffffffffffffffffffffffffffffffffffff021916908373ffffffffffffffffffffffffffffffffffffffff16021790555083600260006101000a81548173ffffffffffffffffffffffffffffffffffffffff021916908373ffffffffffffffffffffffffffffffffffffffff16021790555082600360006101000a81548173ffffffffffffffffffffffffffffffffffffffff021916908373ffffffffffffffffffffffffffffffffffffffff1602179055508160048190555080600690805190602001906101639291906101af565b5084600160006101000a81548173ffffffffffffffffffffffffffffffffffffffff021916908373ffffffffffffffffffffffffffffffffffffffff1602179055505050505050610254565b828054600181600116156101000203166002900490600052602060002090601f016020900481019282601f106101f057805160ff191683800117855561021e565b8280016001018555821561021e579182015b8281111561021d578251825591602001919060010190610202565b5b50905061022b919061022f565b5090565b61025191905b8082111561024d576000816000905550600101610235565b5090565b90565b6109c9806102636000396000f300606060405260043610610099576000357c0100000000000000000000000000000000000000000000000000000000900463ffffffff16806312424e3f1461009e5780633d9b2ae6146100b357806344834aca1461010857806344dc24ca1461015d5780637fd6f15c1461017257806385e012091461019b5780638da5cb5b146101f057806394f1ff8e14610245578063f7ca28471461024f575b600080fd5b34156100a957600080fd5b6100b16102dd565b005b34156100be57600080fd5b6100c661048f565b604051808273ffffffffffffffffffffffffffffffffffffffff1673ffffffffffffffffffffffffffffffffffffffff16815260200191505060405180910390f35b341561011357600080fd5b61011b6104b5565b604051808273ffffffffffffffffffffffffffffffffffffffff1673ffffffffffffffffffffffffffffffffffffffff16815260200191505060405180910390f35b341561016857600080fd5b6101706104db565b005b341561017d57600080fd5b6101856105fe565b6040518082815260200191505060405180910390f35b34156101a657600080fd5b6101ae610604565b604051808273ffffffffffffffffffffffffffffffffffffffff1673ffffffffffffffffffffffffffffffffffffffff16815260200191505060405180910390f35b34156101fb57600080fd5b61020361062a565b604051808273ffffffffffffffffffffffffffffffffffffffff1673ffffffffffffffffffffffffffffffffffffffff16815260200191505060405180910390f35b61024d610650565b005b341561025a57600080fd5b610262610720565b6040518080602001828103825283818151815260200191508051906020019080838360005b838110156102a2578082015181840152602081019050610287565b50505050905090810190601f1680156102cf5780820380516001836020036101000a031916815260200191505b509250505060405180910390f35b6000806000600360009054906101000a900473ffffffffffffffffffffffffffffffffffffffff1673ffffffffffffffffffffffffffffffffffffffff1673ffffffffffffffffffffffffffffffffffffffff16815260200190815260200160002054141561034b57600080fd5b600360009054906101000a900473ffffffffffffffffffffffffffffffffffffffff1673ffffffffffffffffffffffffffffffffffffffff163373ffffffffffffffffffffffffffffffffffffffff1614156103c1576001600760016101000a81548160ff021916908315150217905550610434565b600260009054906101000a900473ffffffffffffffffffffffffffffffffffffffff1673ffffffffffffffffffffffffffffffffffffffff163373ffffffffffffffffffffffffffffffffffffffff161415610433576001600760006101000a81548160ff0219169083151502179055505b5b600760009054906101000a900460ff16801561045c5750600760019054906101000a900460ff165b1561048d576104696107be565b610471610849565b6001600760026101000a81548160ff0219169083151502179055505b565b600260009054906101000a900473ffffffffffffffffffffffffffffffffffffffff1681565b600360009054906101000a900473ffffffffffffffffffffffffffffffffffffffff1681565b600360009054906101000a900473ffffffffffffffffffffffffffffffffffffffff1673ffffffffffffffffffffffffffffffffffffffff163373ffffffffffffffffffffffffffffffffffffffff161415610551576000600760016101000a81548160ff0219169083151502179055506105c4565b600260009054906101000a900473ffffffffffffffffffffffffffffffffffffffff1673ffffffffffffffffffffffffffffffffffffffff163373ffffffffffffffffffffffffffffffffffffffff1614156105c3576000600760006101000a81548160ff0219169083151502179055505b5b600760009054906101000a900460ff161580156105ee5750600760019054906101000a900460ff16155b156105fc576105fb610925565b5b565b60045481565b600560009054906101000a900473ffffffffffffffffffffffffffffffffffffffff1681565b600160009054906101000a900473ffffffffffffffffffffffffffffffffffffffff1681565b600360009054906101000a900473ffffffffffffffffffffffffffffffffffffffff1673ffffffffffffffffffffffffffffffffffffffff163373ffffffffffffffffffffffffffffffffffffffff1614156107195734600080600360009054906101000a900473ffffffffffffffffffffffffffffffffffffffff1673ffffffffffffffffffffffffffffffffffffffff1673ffffffffffffffffffffffffffffffffffffffff1681526020019081526020016000206000828254019250508190555061071e565b600080fd5b565b60068054600181600116156101000203166002900480601f0160208091040260200160405190810160405280929190818152602001828054600181600116156101000203166002900480156107b65780601f1061078b576101008083540402835291602001916107b6565b820191906000526020600020905b81548152906001019060200180831161079957829003601f168201915b505050505081565b600560009054906101000a900473ffffffffffffffffffffffffffffffffffffffff1673ffffffffffffffffffffffffffffffffffffffff166108fc60646004543073ffffffffffffffffffffffffffffffffffffffff16310281151561082157fe5b049081150290604051600060405180830381858888f19350505050151561084757600080fd5b565b600260009054906101000a900473ffffffffffffffffffffffffffffffffffffffff1673ffffffffffffffffffffffffffffffffffffffff166108fc3073ffffffffffffffffffffffffffffffffffffffff16319081150290604051600060405180830381858888f1935050505015610923576000806000600360009054906101000a900473ffffffffffffffffffffffffffffffffffffffff1673ffffffffffffffffffffffffffffffffffffffff1673ffffffffffffffffffffffffffffffffffffffff168152602001908152602001600020819055505b565b60001515600760019054906101000a900460ff16151514801561095b575060001515600760009054906101000a900460ff161515145b1561099b57600360009054906101000a900473ffffffffffffffffffffffffffffffffffffffff1673ffffffffffffffffffffffffffffffffffffffff16ff5b5600a165627a7a7230582047504b7a4e9929ae37206eb4c3f98ba7b28990490e3221f9cf56e8e7748745430029",
  "source": "pragma solidity ^0.4.8;\r\n\r\ncontract Escrow {\r\n\r\n  // Store balances\r\n  mapping (address => uint) balances;\r\n\r\n  // Static\r\n  address public owner;\r\n  address public sellerAddress;\r\n  address public buyerAddress;\r\n  uint public feePercent;\r\n  address public escrowProviderAddress;\r\n  string public saleItem;\r\n\r\n  // State\r\n  bool sellerApprove;\r\n  bool buyerApprove;\r\n  bool escrowComplete = false;\r\n\r\n  // Constructor\r\n  function Escrow(address _owner, address _sellerAddress, address _buyerAddress, uint _feePercent, string _saleItem) public {\r\n        if (_feePercent < 0 || _feePercent > 25) {\r\n          revert();\r\n        }\r\n        escrowProviderAddress = msg.sender;\r\n        sellerAddress = _sellerAddress;\r\n        buyerAddress = _buyerAddress;\r\n        feePercent = _feePercent;\r\n        saleItem = _saleItem;\r\n        owner = _owner;\r\n  }\r\n\r\n  // buyer must place a deposit\r\n  function depositBuyerFunds() public payable {\r\n        if(msg.sender == buyerAddress) {\r\n          balances[buyerAddress] += msg.value;\r\n        }\r\n        else {\r\n          revert();\r\n        }\r\n    }\r\n\r\n  // Both buyer and seller must approve the deal, which sets up a chain reaction to complete\r\n  function approve() public {\r\n    if (balances[buyerAddress] == 0) {\r\n      revert();\r\n    }\r\n    if (msg.sender == buyerAddress) {\r\n      buyerApprove = true;\r\n    }\r\n    else if (msg.sender == sellerAddress) {\r\n      sellerApprove = true;\r\n    }\r\n    if (sellerApprove && buyerApprove) {\r\n      payFee();\r\n      paySeller();\r\n      escrowComplete = true;\r\n    }\r\n  }\r\n\r\n  // About the contract if buyer and seller agree\r\n  function voidContract() public {\r\n      if (msg.sender == buyerAddress) {\r\n        buyerApprove = false;\r\n      }\r\n      else if (msg.sender == sellerAddress) {\r\n        sellerApprove = false;\r\n      }\r\n      if (!sellerApprove && !buyerApprove) {\r\n        refundBuyer();\r\n      }\r\n  }\r\n\r\n  function paySeller() internal {\r\n    if (sellerAddress.send(address(this).balance)) {\r\n      balances[buyerAddress] = 0;\r\n    }\r\n  }\r\n\r\n  // Return funds to buyer if both parties agree contract is void\r\n  function refundBuyer() internal {\r\n    if (buyerApprove == false && sellerApprove == false) {\r\n      selfdestruct(buyerAddress);\r\n    }\r\n  }\r\n\r\n  // Pay fee to escrow service\r\n  function payFee() internal {\r\n      escrowProviderAddress.transfer(address(this).balance * feePercent / 100 ); //% fee\r\n  }\r\n\r\n}\r\n",
  "sourcePath": "C:\\Users\\john.durrant\\EE-Prototype\\blockchain-prototypes-framework\\contracts\\escrow\\Escrow.sol",
  "compiler": {
    "name": "solc",
    "version": "0.4.21+commit.dfe3193c.Emscripten.clang"
  },
  "schemaVersion": "2.0.0",
  "updatedAt": "2018-04-27T09:32:07.264Z"
}