{
  "contractName": "SmartVoucherFactory",
  "abi": [
    {
      "constant": true,
      "inputs": [
        {
          "name": "",
          "type": "uint256"
        }
      ],
      "name": "smartVoucherContracts",
      "outputs": [
        {
          "name": "",
          "type": "address"
        }
      ],
      "payable": false,
      "stateMutability": "view",
      "type": "function"
    },
    {
      "inputs": [],
      "payable": false,
      "stateMutability": "nonpayable",
      "type": "constructor"
    },
    {
      "anonymous": false,
      "inputs": [
        {
          "indexed": false,
          "name": "smartVoucherContract",
          "type": "address"
        },
        {
          "indexed": false,
          "name": "owner",
          "type": "address"
        },
        {
          "indexed": false,
          "name": "numSmartVoucher",
          "type": "uint256"
        },
        {
          "indexed": false,
          "name": "allSmartVoucherContracts",
          "type": "address[]"
        }
      ],
      "name": "SmartVoucherCreated",
      "type": "event"
    },
    {
      "constant": false,
      "inputs": [
        {
          "name": "_promotionName",
          "type": "string"
        }
      ],
      "name": "createSmartVoucher",
      "outputs": [],
      "payable": false,
      "stateMutability": "nonpayable",
      "type": "function"
    },
    {
      "constant": true,
      "inputs": [],
      "name": "allSmartVoucherContracts",
      "outputs": [
        {
          "name": "",
          "type": "address[]"
        }
      ],
      "payable": false,
      "stateMutability": "view",
      "type": "function"
    }
  ],
  "bytecode": "0x608060405234801561001057600080fd5b50610898806100206000396000f300608060405260043610610057576000357c0100000000000000000000000000000000000000000000000000000000900463ffffffff168063057589f31461005c5780636b9ff6a2146100c5578063de8a840214610132575b600080fd5b34801561006857600080fd5b506100c3600480360381019080803590602001908201803590602001908080601f016020809104026020016040519081016040528093929190818152602001838380828437820191505050505050919291929050505061019e565b005b3480156100d157600080fd5b506100f0600480360381019080803590602001909291905050506103f6565b604051808273ffffffffffffffffffffffffffffffffffffffff1673ffffffffffffffffffffffffffffffffffffffff16815260200191505060405180910390f35b34801561013e57600080fd5b50610147610434565b6040518080602001828103825283818151815260200191508051906020019060200280838360005b8381101561018a57808201518184015260208101905061016f565b505050509050019250505060405180910390f35b600033826101aa6104c2565b808373ffffffffffffffffffffffffffffffffffffffff1673ffffffffffffffffffffffffffffffffffffffff16815260200180602001828103825283818151815260200191508051906020019080838360005b838110156102195780820151818401526020810190506101fe565b50505050905090810190601f1680156102465780820380516001836020036101000a031916815260200191505b509350505050604051809103906000f080158015610268573d6000803e3d6000fd5b50905060008190806001815401808255809150509060018203906000526020600020016000909192909190916101000a81548173ffffffffffffffffffffffffffffffffffffffff021916908373ffffffffffffffffffffffffffffffffffffffff160217905550507f1e04201a40eda32d3ee820d0b1020a699f346c1aec2e65c99cb219d4cb47221581336000805490506000604051808573ffffffffffffffffffffffffffffffffffffffff1673ffffffffffffffffffffffffffffffffffffffff1681526020018473ffffffffffffffffffffffffffffffffffffffff1673ffffffffffffffffffffffffffffffffffffffff1681526020018381526020018060200182810382528381815481526020019150805480156103e157602002820191906000526020600020905b8160009054906101000a900473ffffffffffffffffffffffffffffffffffffffff1673ffffffffffffffffffffffffffffffffffffffff1681526020019060010190808311610397575b50509550505050505060405180910390a15050565b60008181548110151561040557fe5b906000526020600020016000915054906101000a900473ffffffffffffffffffffffffffffffffffffffff1681565b606060008054806020026020016040519081016040528092919081815260200182805480156104b857602002820191906000526020600020905b8160009054906101000a900473ffffffffffffffffffffffffffffffffffffffff1673ffffffffffffffffffffffffffffffffffffffff168152602001906001019080831161046e575b5050505050905090565b60405161039a806104d3833901905600608060405234801561001057600080fd5b5060405161039a38038061039a833981018060405281019080805190602001909291908051820192919050505060008273ffffffffffffffffffffffffffffffffffffffff16141561006157600080fd5b816000806101000a81548173ffffffffffffffffffffffffffffffffffffffff021916908373ffffffffffffffffffffffffffffffffffffffff16021790555080600190805190602001906100b79291906100bf565b505050610164565b828054600181600116156101000203166002900490600052602060002090601f016020900481019282601f1061010057805160ff191683800117855561012e565b8280016001018555821561012e579182015b8281111561012d578251825591602001919060010190610112565b5b50905061013b919061013f565b5090565b61016191905b8082111561015d576000816000905550600101610145565b5090565b90565b610227806101736000396000f30060806040526004361061004c576000357c0100000000000000000000000000000000000000000000000000000000900463ffffffff1680638da5cb5b14610051578063c46d4ce4146100a8575b600080fd5b34801561005d57600080fd5b50610066610138565b604051808273ffffffffffffffffffffffffffffffffffffffff1673ffffffffffffffffffffffffffffffffffffffff16815260200191505060405180910390f35b3480156100b457600080fd5b506100bd61015d565b6040518080602001828103825283818151815260200191508051906020019080838360005b838110156100fd5780820151818401526020810190506100e2565b50505050905090810190601f16801561012a5780820380516001836020036101000a031916815260200191505b509250505060405180910390f35b6000809054906101000a900473ffffffffffffffffffffffffffffffffffffffff1681565b60018054600181600116156101000203166002900480601f0160208091040260200160405190810160405280929190818152602001828054600181600116156101000203166002900480156101f35780601f106101c8576101008083540402835291602001916101f3565b820191906000526020600020905b8154815290600101906020018083116101d657829003601f168201915b5050505050815600a165627a7a723058201916736b4aaf520d2ed2aa5093361d9870c35ef027894924b549f09d64600eb90029a165627a7a72305820918eccf440a01bbb269ca3906531c822a5ac438fc7dd7016bfb359208cf186b70029",
  "source": "pragma solidity ^0.4.21;\r\n\r\nimport { SmartVoucher } from './SmartVoucher.sol';\r\n\r\ncontract SmartVoucherFactory {\r\n  address[] public smartVoucherContracts; // Stores all instances of the Smart Coupon Contract\r\n\r\n  event SmartVoucherCreated(address smartVoucherContract, address owner, uint numSmartVoucher, address[] allSmartVoucherContracts);\r\n\r\n  function SmartVoucherFactory() public {\r\n    // Empty constructor\r\n  }\r\n\r\n  function createSmartVoucher(string _promotionName) public {\r\n      SmartVoucher newSmartVoucher = new SmartVoucher(msg.sender, _promotionName);\r\n      smartVoucherContracts.push(newSmartVoucher);\r\n\r\n      emit SmartVoucherCreated(newSmartVoucher, msg.sender, smartVoucherContracts.length, smartVoucherContracts);\r\n  }\r\n\r\n  function allSmartVoucherContracts() public constant returns (address[]) {\r\n      return smartVoucherContracts;\r\n  }\r\n\r\n}\r\n",
  "sourcePath": "C:\\Users\\John\\EE-Proto\\blockchain-prototypes-framework\\contracts\\promotions\\SmartVoucherFactory.sol",
  "compiler": {
    "name": "solc",
    "version": "0.4.23+commit.124ca40d.Emscripten.clang"
  },
  "schemaVersion": "2.0.0",
  "updatedAt": "2018-06-02T11:40:03.502Z"
}