{
  "contractName": "SmartCoupon",
  "abi": [
    {
      "constant": true,
      "inputs": [
        {
          "name": "",
          "type": "uint256"
        }
      ],
      "name": "couponQualifyingProductSKUs",
      "outputs": [
        {
          "name": "",
          "type": "uint256"
        }
      ],
      "payable": false,
      "stateMutability": "view",
      "type": "function"
    },
    {
      "constant": true,
      "inputs": [],
      "name": "couponDiscountType",
      "outputs": [
        {
          "name": "",
          "type": "string"
        }
      ],
      "payable": false,
      "stateMutability": "view",
      "type": "function"
    },
    {
      "constant": true,
      "inputs": [],
      "name": "couponQualifyingSpend",
      "outputs": [
        {
          "name": "",
          "type": "uint256"
        }
      ],
      "payable": false,
      "stateMutability": "view",
      "type": "function"
    },
    {
      "constant": true,
      "inputs": [],
      "name": "couponExpiryBlock",
      "outputs": [
        {
          "name": "",
          "type": "uint256"
        }
      ],
      "payable": false,
      "stateMutability": "view",
      "type": "function"
    },
    {
      "constant": true,
      "inputs": [],
      "name": "couponPercentDiscount",
      "outputs": [
        {
          "name": "",
          "type": "uint256"
        }
      ],
      "payable": false,
      "stateMutability": "view",
      "type": "function"
    },
    {
      "constant": true,
      "inputs": [],
      "name": "owner",
      "outputs": [
        {
          "name": "",
          "type": "address"
        }
      ],
      "payable": false,
      "stateMutability": "view",
      "type": "function"
    },
    {
      "constant": true,
      "inputs": [],
      "name": "couponQualifyingCurrency",
      "outputs": [
        {
          "name": "",
          "type": "address"
        }
      ],
      "payable": false,
      "stateMutability": "view",
      "type": "function"
    },
    {
      "constant": true,
      "inputs": [],
      "name": "promotionName",
      "outputs": [
        {
          "name": "",
          "type": "string"
        }
      ],
      "payable": false,
      "stateMutability": "view",
      "type": "function"
    },
    {
      "constant": true,
      "inputs": [],
      "name": "couponPromoterFee",
      "outputs": [
        {
          "name": "",
          "type": "uint256"
        }
      ],
      "payable": false,
      "stateMutability": "view",
      "type": "function"
    },
    {
      "constant": true,
      "inputs": [],
      "name": "couponPromotersAllowed",
      "outputs": [
        {
          "name": "",
          "type": "bool"
        }
      ],
      "payable": false,
      "stateMutability": "view",
      "type": "function"
    },
    {
      "constant": true,
      "inputs": [],
      "name": "couponReusePolicy",
      "outputs": [
        {
          "name": "",
          "type": "string"
        }
      ],
      "payable": false,
      "stateMutability": "view",
      "type": "function"
    },
    {
      "constant": true,
      "inputs": [
        {
          "name": "",
          "type": "uint256"
        }
      ],
      "name": "matched",
      "outputs": [
        {
          "name": "",
          "type": "uint256"
        }
      ],
      "payable": false,
      "stateMutability": "view",
      "type": "function"
    },
    {
      "inputs": [
        {
          "name": "_owner",
          "type": "address"
        },
        {
          "name": "_promotionName",
          "type": "string"
        },
        {
          "name": "_couponQualifyingProductSKUs",
          "type": "uint256[]"
        },
        {
          "name": "_couponPercentDiscount",
          "type": "uint256"
        },
        {
          "name": "_couponQualifyingCurrency",
          "type": "address"
        },
        {
          "name": "_couponQualifyingSpend",
          "type": "uint256"
        },
        {
          "name": "_couponReusePolicy",
          "type": "string"
        },
        {
          "name": "_couponPromoterFee",
          "type": "uint256"
        },
        {
          "name": "_couponExpiryBlock",
          "type": "uint256"
        }
      ],
      "payable": false,
      "stateMutability": "nonpayable",
      "type": "constructor"
    },
    {
      "constant": true,
      "inputs": [],
      "name": "getAllCouponQualifyingProductSKUs",
      "outputs": [
        {
          "name": "",
          "type": "uint256[]"
        }
      ],
      "payable": false,
      "stateMutability": "view",
      "type": "function"
    },
    {
      "constant": false,
      "inputs": [
        {
          "name": "_productSKUs",
          "type": "uint256[]"
        }
      ],
      "name": "checkQualifyingProducts",
      "outputs": [
        {
          "name": "",
          "type": "uint256[]"
        }
      ],
      "payable": false,
      "stateMutability": "nonpayable",
      "type": "function"
    },
    {
      "constant": false,
      "inputs": [
        {
          "name": "_transactionRef",
          "type": "string"
        }
      ],
      "name": "redeemCoupon",
      "outputs": [
        {
          "name": "",
          "type": "bool"
        }
      ],
      "payable": false,
      "stateMutability": "nonpayable",
      "type": "function"
    }
  ],
  "bytecode": "0x60806040526040805190810160405280600f81526020017f70657263656e74446973636f756e74000000000000000000000000000000000081525060069080519060200190620000519291906200021e565b503480156200005f57600080fd5b5060405162000e6938038062000e6983398101806040528101908080519060200190929190805182019291906020018051820192919060200180519060200190929190805190602001909291908051906020019092919080518201929190602001805190602001909291908051906020019092919050505060008973ffffffffffffffffffffffffffffffffffffffff161415620000fc57600080fd5b438110156200010a57600080fd5b886000806101000a81548173ffffffffffffffffffffffffffffffffffffffff021916908373ffffffffffffffffffffffffffffffffffffffff1602179055508760019080519060200190620001629291906200021e565b5086600290805190602001906200017b929190620002a5565b508560038190555084600460006101000a81548173ffffffffffffffffffffffffffffffffffffffff021916908373ffffffffffffffffffffffffffffffffffffffff160217905550836005819055508260079080519060200190620001e39291906200021e565b5060008211600860006101000a81548160ff0219169083151502179055508160098190555080600a819055505050505050505050506200031f565b828054600181600116156101000203166002900490600052602060002090601f016020900481019282601f106200026157805160ff191683800117855562000292565b8280016001018555821562000292579182015b828111156200029157825182559160200191906001019062000274565b5b509050620002a19190620002f7565b5090565b828054828255906000526020600020908101928215620002e4579160200282015b82811115620002e3578251825591602001919060010190620002c6565b5b509050620002f39190620002f7565b5090565b6200031c91905b8082111562000318576000816000905550600101620002fe565b5090565b90565b610b3a806200032f6000396000f3006080604052600436106100db576000357c0100000000000000000000000000000000000000000000000000000000900463ffffffff168063282d7a3f146100e05780634e6f306514610121578063633883e0146101b15780636cc866e8146101dc5780636da4989f1461025d57806383863231146102885780638da5cb5b146102b3578063ab9155631461030a578063c2bda64914610361578063c46d4ce41461041c578063c604da25146104ac578063dc7f483f146104d7578063ee0c295e14610506578063f39376d314610596578063f87c955714610602575b600080fd5b3480156100ec57600080fd5b5061010b60048036038101908080359060200190929190505050610643565b6040518082815260200191505060405180910390f35b34801561012d57600080fd5b50610136610666565b6040518080602001828103825283818151815260200191508051906020019080838360005b8381101561017657808201518184015260208101905061015b565b50505050905090810190601f1680156101a35780820380516001836020036101000a031916815260200191505b509250505060405180910390f35b3480156101bd57600080fd5b506101c6610704565b6040518082815260200191505060405180910390f35b3480156101e857600080fd5b50610243600480360381019080803590602001908201803590602001908080601f016020809104026020016040519081016040528093929190818152602001838380828437820191505050505050919291929050505061070a565b604051808215151515815260200191505060405180910390f35b34801561026957600080fd5b5061027261077e565b6040518082815260200191505060405180910390f35b34801561029457600080fd5b5061029d610784565b6040518082815260200191505060405180910390f35b3480156102bf57600080fd5b506102c861078a565b604051808273ffffffffffffffffffffffffffffffffffffffff1673ffffffffffffffffffffffffffffffffffffffff16815260200191505060405180910390f35b34801561031657600080fd5b5061031f6107af565b604051808273ffffffffffffffffffffffffffffffffffffffff1673ffffffffffffffffffffffffffffffffffffffff16815260200191505060405180910390f35b34801561036d57600080fd5b506103c5600480360381019080803590602001908201803590602001908080602002602001604051908101604052809392919081815260200183836020028082843782019150505050505091929192905050506107d5565b6040518080602001828103825283818151815260200191508051906020019060200280838360005b838110156104085780820151818401526020810190506103ed565b505050509050019250505060405180910390f35b34801561042857600080fd5b506104316108f8565b6040518080602001828103825283818151815260200191508051906020019080838360005b83811015610471578082015181840152602081019050610456565b50505050905090810190601f16801561049e5780820380516001836020036101000a031916815260200191505b509250505060405180910390f35b3480156104b857600080fd5b506104c1610996565b6040518082815260200191505060405180910390f35b3480156104e357600080fd5b506104ec61099c565b604051808215151515815260200191505060405180910390f35b34801561051257600080fd5b5061051b6109af565b6040518080602001828103825283818151815260200191508051906020019080838360005b8381101561055b578082015181840152602081019050610540565b50505050905090810190601f1680156105885780820380516001836020036101000a031916815260200191505b509250505060405180910390f35b3480156105a257600080fd5b506105ab610a4d565b6040518080602001828103825283818151815260200191508051906020019060200280838360005b838110156105ee5780820151818401526020810190506105d3565b505050509050019250505060405180910390f35b34801561060e57600080fd5b5061062d60048036038101908080359060200190929190505050610aa5565b6040518082815260200191505060405180910390f35b60028181548110151561065257fe5b906000526020600020016000915090505481565b60068054600181600116156101000203166002900480601f0160208091040260200160405190810160405280929190818152602001828054600181600116156101000203166002900480156106fc5780601f106106d1576101008083540402835291602001916106fc565b820191906000526020600020905b8154815290600101906020018083116106df57829003601f168201915b505050505081565b60055481565b60008060009054906101000a900473ffffffffffffffffffffffffffffffffffffffff1673ffffffffffffffffffffffffffffffffffffffff163373ffffffffffffffffffffffffffffffffffffffff16141561076657600080fd5b600a5443111561077557600080fd5b60019050919050565b600a5481565b60035481565b6000809054906101000a900473ffffffffffffffffffffffffffffffffffffffff1681565b600460009054906101000a900473ffffffffffffffffffffffffffffffffffffffff1681565b6060600080600b60006107e89190610ac8565b600091505b60028054905082101561089e57600090505b83518210156108915760028281548110151561081757fe5b9060005260206000200154848281518110151561083057fe5b90602001906020020151141561088457600b848281518110151561085057fe5b9060200190602002015190806001815401808255809150509060018203906000526020600020016000909192909190915055505b80806001019150506107ff565b81806001019250506107ed565b600b8054806020026020016040519081016040528092919081815260200182805480156108ea57602002820191906000526020600020905b8154815260200190600101908083116108d6575b505050505092505050919050565b60018054600181600116156101000203166002900480601f01602080910402602001604051908101604052809291908181526020018280546001816001161561010002031660029004801561098e5780601f106109635761010080835404028352916020019161098e565b820191906000526020600020905b81548152906001019060200180831161097157829003601f168201915b505050505081565b60095481565b600860009054906101000a900460ff1681565b60078054600181600116156101000203166002900480601f016020809104026020016040519081016040528092919081815260200182805460018160011615610100020316600290048015610a455780601f10610a1a57610100808354040283529160200191610a45565b820191906000526020600020905b815481529060010190602001808311610a2857829003601f168201915b505050505081565b60606002805480602002602001604051908101604052809291908181526020018280548015610a9b57602002820191906000526020600020905b815481526020019060010190808311610a87575b5050505050905090565b600b81815481101515610ab457fe5b906000526020600020016000915090505481565b5080546000825590600052602060002090810190610ae69190610ae9565b50565b610b0b91905b80821115610b07576000816000905550600101610aef565b5090565b905600a165627a7a72305820f4478009cb3da4eb90950aa62009597ff86022bdc604b4cb4c8345fdea09facc0029",
  "source": "pragma solidity ^0.4.21;\r\n\r\ncontract SmartCoupon {\r\n\r\n  // static\r\n  address public owner;\r\n  string public promotionName;\r\n  uint[] public couponQualifyingProductSKUs;\r\n  uint public couponPercentDiscount;\r\n  address public couponQualifyingCurrency; // address of the Currency\r\n  uint public couponQualifyingSpend;\r\n  string public couponDiscountType = 'percentDiscount';\r\n  string public couponReusePolicy; // perhaps this should be enum 'single' / 'multi'\r\n  bool public couponPromotersAllowed;\r\n  uint public couponPromoterFee; // percentage for promoter\r\n  uint public couponExpiryBlock;\r\n\r\n  // states\r\n  uint[] public matched;\r\n  /* transactionRefs - store a list of addresses which have used this coupon.\r\n    If the coupon is single use then only allow one transaction on this\r\n  */\r\n\r\n  /* promoter addresses - need a way of recognising that a coupon was supplied by\r\n    a given promoter and this promoter needs to be paid.  I think that we would be best creating one\r\n    coupon per promoter?  Need promoter in dropdown list. Otherwise we wouldn't know\r\n    where it came from.\r\n  */\r\n\r\n  function SmartCoupon (\r\n    address _owner,\r\n    string _promotionName,\r\n    uint[] _couponQualifyingProductSKUs,\r\n    uint _couponPercentDiscount,\r\n    address _couponQualifyingCurrency,\r\n    uint _couponQualifyingSpend,\r\n    string _couponReusePolicy,\r\n    uint _couponPromoterFee,\r\n    uint _couponExpiryBlock\r\n    ) public {\r\n      if (_owner == 0) revert();\r\n      if (_couponExpiryBlock < block.number) revert();\r\n\r\n      owner = _owner;\r\n      promotionName = _promotionName;\r\n      couponQualifyingProductSKUs = _couponQualifyingProductSKUs;\r\n      couponPercentDiscount = _couponPercentDiscount;\r\n      couponQualifyingCurrency = _couponQualifyingCurrency;\r\n      couponQualifyingSpend = _couponQualifyingSpend;\r\n      couponReusePolicy = _couponReusePolicy;\r\n      couponPromotersAllowed = _couponPromoterFee > 0;\r\n      couponPromoterFee = _couponPromoterFee;\r\n      couponExpiryBlock = _couponExpiryBlock;\r\n  }\r\n\r\n  function getAllCouponQualifyingProductSKUs () public view returns (uint[]) {\r\n    return couponQualifyingProductSKUs;\r\n  }\r\n\r\n  function checkQualifyingProducts (uint[] _productSKUs) public returns (uint[]) {\r\n    // compare purchases against quilfying items and return a list of qualifiers\r\n    // doing nested array iterations like this may be a very bad idea, in solidity\r\n    // so this is purely for experimenting and learning. Maybe best to have this kind\r\n    // of logic off contract\r\n\r\n    delete matched; //reset matched\r\n    for (uint i = 0; i < couponQualifyingProductSKUs.length; i ++) {\r\n      for (uint n = 0; i < _productSKUs.length; n ++) {\r\n        if (_productSKUs[n] == couponQualifyingProductSKUs[i]) {\r\n          matched.push(_productSKUs[n]);\r\n        }\r\n      }\r\n    }\r\n    return matched;\r\n  }\r\n\r\n  function redeemCoupon (string _transactionRef) public onlyNotOwner onlyBeforeExpiry returns (bool) {\r\n    // obviously this is a placeholder\r\n    return true;\r\n  }\r\n\r\n  // modifiers\r\n  modifier onlyOwner {\r\n      if (msg.sender != owner) revert();\r\n      _;\r\n  }\r\n\r\n  modifier onlyNotOwner {\r\n      if (msg.sender == owner) revert();\r\n      _;\r\n  }\r\n\r\n  modifier onlyBeforeExpiry {\r\n      if (block.number > couponExpiryBlock) revert();\r\n      _;\r\n  }\r\n\r\n}\r\n",
  "sourcePath": "C:\\Users\\John\\EE-Proto\\blockchain-prototypes-framework\\contracts\\promotions\\SmartCoupon.sol",
  "compiler": {
    "name": "solc",
    "version": "0.4.23+commit.124ca40d.Emscripten.clang"
  },
  "schemaVersion": "2.0.0",
  "updatedAt": "2018-06-07T14:45:22.186Z"
}