{
  "contractName": "SmartCoupon",
  "abi": [
    {
      "constant": true,
      "inputs": [
        {
          "name": "",
          "type": "uint256"
        }
      ],
      "name": "couponQualifyingCurrencies",
      "outputs": [
        {
          "name": "",
          "type": "address"
        }
      ],
      "payable": false,
      "stateMutability": "view",
      "type": "function"
    },
    {
      "constant": true,
      "inputs": [
        {
          "name": "",
          "type": "uint256"
        }
      ],
      "name": "couponQualifyingProductSKUs",
      "outputs": [
        {
          "name": "",
          "type": "uint256"
        }
      ],
      "payable": false,
      "stateMutability": "view",
      "type": "function"
    },
    {
      "constant": true,
      "inputs": [],
      "name": "couponDiscountType",
      "outputs": [
        {
          "name": "",
          "type": "string"
        }
      ],
      "payable": false,
      "stateMutability": "view",
      "type": "function"
    },
    {
      "constant": true,
      "inputs": [],
      "name": "couponQualifyingSpend",
      "outputs": [
        {
          "name": "",
          "type": "uint256"
        }
      ],
      "payable": false,
      "stateMutability": "view",
      "type": "function"
    },
    {
      "constant": true,
      "inputs": [],
      "name": "couponExpiryBlock",
      "outputs": [
        {
          "name": "",
          "type": "uint256"
        }
      ],
      "payable": false,
      "stateMutability": "view",
      "type": "function"
    },
    {
      "constant": true,
      "inputs": [],
      "name": "couponPercentDiscount",
      "outputs": [
        {
          "name": "",
          "type": "uint256"
        }
      ],
      "payable": false,
      "stateMutability": "view",
      "type": "function"
    },
    {
      "constant": true,
      "inputs": [],
      "name": "owner",
      "outputs": [
        {
          "name": "",
          "type": "address"
        }
      ],
      "payable": false,
      "stateMutability": "view",
      "type": "function"
    },
    {
      "constant": true,
      "inputs": [],
      "name": "promotionName",
      "outputs": [
        {
          "name": "",
          "type": "string"
        }
      ],
      "payable": false,
      "stateMutability": "view",
      "type": "function"
    },
    {
      "constant": true,
      "inputs": [],
      "name": "couponPromoterFee",
      "outputs": [
        {
          "name": "",
          "type": "uint256"
        }
      ],
      "payable": false,
      "stateMutability": "view",
      "type": "function"
    },
    {
      "constant": true,
      "inputs": [],
      "name": "couponPromotersAllowed",
      "outputs": [
        {
          "name": "",
          "type": "bool"
        }
      ],
      "payable": false,
      "stateMutability": "view",
      "type": "function"
    },
    {
      "constant": true,
      "inputs": [],
      "name": "couponReusePolicy",
      "outputs": [
        {
          "name": "",
          "type": "string"
        }
      ],
      "payable": false,
      "stateMutability": "view",
      "type": "function"
    },
    {
      "inputs": [
        {
          "name": "_owner",
          "type": "address"
        },
        {
          "name": "_promotionName",
          "type": "string"
        },
        {
          "name": "_couponQualifyingProductSKUs",
          "type": "uint256[]"
        },
        {
          "name": "_couponPercentDiscount",
          "type": "uint256"
        },
        {
          "name": "_couponQualifyingCurrencies",
          "type": "address[]"
        },
        {
          "name": "_couponQualifyingSpend",
          "type": "uint256"
        },
        {
          "name": "_couponReusePolicy",
          "type": "string"
        },
        {
          "name": "_couponPromoterFee",
          "type": "uint256"
        },
        {
          "name": "_couponExpiryBlock",
          "type": "uint256"
        }
      ],
      "payable": false,
      "stateMutability": "nonpayable",
      "type": "constructor"
    },
    {
      "constant": true,
      "inputs": [],
      "name": "getAllCouponQualifyingProductSKUs",
      "outputs": [
        {
          "name": "",
          "type": "uint256[]"
        }
      ],
      "payable": false,
      "stateMutability": "view",
      "type": "function"
    },
    {
      "constant": true,
      "inputs": [],
      "name": "getAllCouponQualifyingCurrencies",
      "outputs": [
        {
          "name": "",
          "type": "address[]"
        }
      ],
      "payable": false,
      "stateMutability": "view",
      "type": "function"
    }
  ],
  "bytecode": "0x60806040526040805190810160405280600f81526020017f70657263656e74446973636f756e7400000000000000000000000000000000008152506006908051906020019062000051929190620001e8565b503480156200005f57600080fd5b5060405162000c9d38038062000c9d83398101806040528101908080519060200190929190805182019291906020018051820192919060200180519060200190929190805182019291906020018051906020019092919080518201929190602001805190602001909291908051906020019092919050505060008973ffffffffffffffffffffffffffffffffffffffff161415620000fc57600080fd5b886000806101000a81548173ffffffffffffffffffffffffffffffffffffffff021916908373ffffffffffffffffffffffffffffffffffffffff160217905550876001908051906020019062000154929190620001e8565b5086600290805190602001906200016d9291906200026f565b508560038190555084600490805190602001906200018d929190620002c1565b50836005819055508260079080519060200190620001ad929190620001e8565b5060008211600860006101000a81548160ff0219169083151502179055508160098190555080600a81905550505050505050505050620003be565b828054600181600116156101000203166002900490600052602060002090601f016020900481019282601f106200022b57805160ff19168380011785556200025c565b828001600101855582156200025c579182015b828111156200025b5782518255916020019190600101906200023e565b5b5090506200026b919062000350565b5090565b828054828255906000526020600020908101928215620002ae579160200282015b82811115620002ad57825182559160200191906001019062000290565b5b509050620002bd919062000350565b5090565b8280548282559060005260206000209081019282156200033d579160200282015b828111156200033c5782518260006101000a81548173ffffffffffffffffffffffffffffffffffffffff021916908373ffffffffffffffffffffffffffffffffffffffff16021790555091602001919060010190620002e2565b5b5090506200034c919062000378565b5090565b6200037591905b808211156200037157600081600090555060010162000357565b5090565b90565b620003bb91905b80821115620003b757600081816101000a81549073ffffffffffffffffffffffffffffffffffffffff0219169055506001016200037f565b5090565b90565b6108cf80620003ce6000396000f3006080604052600436106100c5576000357c0100000000000000000000000000000000000000000000000000000000900463ffffffff16806303695caf146100ca578063282d7a3f146101375780634e6f306514610178578063633883e0146102085780636da4989f14610233578063838632311461025e5780638da5cb5b14610289578063c46d4ce4146102e0578063c604da2514610370578063dc7f483f1461039b578063e5c03c67146103ca578063ee0c295e14610436578063f39376d3146104c6575b600080fd5b3480156100d657600080fd5b506100f560048036038101908080359060200190929190505050610532565b604051808273ffffffffffffffffffffffffffffffffffffffff1673ffffffffffffffffffffffffffffffffffffffff16815260200191505060405180910390f35b34801561014357600080fd5b5061016260048036038101908080359060200190929190505050610570565b6040518082815260200191505060405180910390f35b34801561018457600080fd5b5061018d610593565b6040518080602001828103825283818151815260200191508051906020019080838360005b838110156101cd5780820151818401526020810190506101b2565b50505050905090810190601f1680156101fa5780820380516001836020036101000a031916815260200191505b509250505060405180910390f35b34801561021457600080fd5b5061021d610631565b6040518082815260200191505060405180910390f35b34801561023f57600080fd5b50610248610637565b6040518082815260200191505060405180910390f35b34801561026a57600080fd5b5061027361063d565b6040518082815260200191505060405180910390f35b34801561029557600080fd5b5061029e610643565b604051808273ffffffffffffffffffffffffffffffffffffffff1673ffffffffffffffffffffffffffffffffffffffff16815260200191505060405180910390f35b3480156102ec57600080fd5b506102f5610668565b6040518080602001828103825283818151815260200191508051906020019080838360005b8381101561033557808201518184015260208101905061031a565b50505050905090810190601f1680156103625780820380516001836020036101000a031916815260200191505b509250505060405180910390f35b34801561037c57600080fd5b50610385610706565b6040518082815260200191505060405180910390f35b3480156103a757600080fd5b506103b061070c565b604051808215151515815260200191505060405180910390f35b3480156103d657600080fd5b506103df61071f565b6040518080602001828103825283818151815260200191508051906020019060200280838360005b83811015610422578082015181840152602081019050610407565b505050509050019250505060405180910390f35b34801561044257600080fd5b5061044b6107ad565b6040518080602001828103825283818151815260200191508051906020019080838360005b8381101561048b578082015181840152602081019050610470565b50505050905090810190601f1680156104b85780820380516001836020036101000a031916815260200191505b509250505060405180910390f35b3480156104d257600080fd5b506104db61084b565b6040518080602001828103825283818151815260200191508051906020019060200280838360005b8381101561051e578082015181840152602081019050610503565b505050509050019250505060405180910390f35b60048181548110151561054157fe5b906000526020600020016000915054906101000a900473ffffffffffffffffffffffffffffffffffffffff1681565b60028181548110151561057f57fe5b906000526020600020016000915090505481565b60068054600181600116156101000203166002900480601f0160208091040260200160405190810160405280929190818152602001828054600181600116156101000203166002900480156106295780601f106105fe57610100808354040283529160200191610629565b820191906000526020600020905b81548152906001019060200180831161060c57829003601f168201915b505050505081565b60055481565b600a5481565b60035481565b6000809054906101000a900473ffffffffffffffffffffffffffffffffffffffff1681565b60018054600181600116156101000203166002900480601f0160208091040260200160405190810160405280929190818152602001828054600181600116156101000203166002900480156106fe5780601f106106d3576101008083540402835291602001916106fe565b820191906000526020600020905b8154815290600101906020018083116106e157829003601f168201915b505050505081565b60095481565b600860009054906101000a900460ff1681565b606060048054806020026020016040519081016040528092919081815260200182805480156107a357602002820191906000526020600020905b8160009054906101000a900473ffffffffffffffffffffffffffffffffffffffff1673ffffffffffffffffffffffffffffffffffffffff1681526020019060010190808311610759575b5050505050905090565b60078054600181600116156101000203166002900480601f0160208091040260200160405190810160405280929190818152602001828054600181600116156101000203166002900480156108435780601f1061081857610100808354040283529160200191610843565b820191906000526020600020905b81548152906001019060200180831161082657829003601f168201915b505050505081565b6060600280548060200260200160405190810160405280929190818152602001828054801561089957602002820191906000526020600020905b815481526020019060010190808311610885575b50505050509050905600a165627a7a723058202422d21701e1b5e82f6ff0a1a4c14543d60f3e14ed96ebdd4a395b21e57789cb0029",
  "source": "pragma solidity ^0.4.21;\r\n\r\ncontract SmartCoupon {\r\n\r\n  // static\r\n  address public owner;\r\n  string public promotionName;\r\n  uint[] public couponQualifyingProductSKUs;\r\n  uint public couponPercentDiscount;\r\n  address[] public couponQualifyingCurrencies; // addresses of the Currencies\r\n  uint public couponQualifyingSpend;\r\n  string public couponDiscountType = 'percentDiscount';\r\n  string public couponReusePolicy; // perhaps this should be enum 'single' / 'multi'\r\n  bool public couponPromotersAllowed;\r\n  uint public couponPromoterFee; // percentage for promoter\r\n  uint public couponExpiryBlock;\r\n\r\n  // states\r\n  function SmartCoupon (\r\n    address _owner,\r\n    string _promotionName,\r\n    uint[] _couponQualifyingProductSKUs,\r\n    uint _couponPercentDiscount,\r\n    address[] _couponQualifyingCurrencies,\r\n    uint _couponQualifyingSpend,\r\n    string _couponReusePolicy,\r\n    uint _couponPromoterFee,\r\n    uint _couponExpiryBlock\r\n    ) public {\r\n      if (_owner == 0) revert();\r\n\r\n      owner = _owner;\r\n      promotionName = _promotionName;\r\n      couponQualifyingProductSKUs = _couponQualifyingProductSKUs;\r\n      couponPercentDiscount = _couponPercentDiscount;\r\n      couponQualifyingCurrencies = _couponQualifyingCurrencies;\r\n      couponQualifyingSpend = _couponQualifyingSpend;\r\n      couponReusePolicy = _couponReusePolicy;\r\n      couponPromotersAllowed = _couponPromoterFee > 0;\r\n      couponPromoterFee = _couponPromoterFee;\r\n      couponExpiryBlock = _couponExpiryBlock;\r\n  }\r\n\r\n  function getAllCouponQualifyingProductSKUs() public view returns (uint[]) {\r\n    return couponQualifyingProductSKUs;\r\n  }\r\n\r\n  function getAllCouponQualifyingCurrencies() public view returns (address[]) {\r\n    return couponQualifyingCurrencies;\r\n  }\r\n\r\n}\r\n",
  "sourcePath": "C:\\Users\\John\\EE-Proto\\blockchain-prototypes-framework\\contracts\\promotions\\SmartCoupon.sol",
  "compiler": {
    "name": "solc",
    "version": "0.4.23+commit.124ca40d.Emscripten.clang"
  },
  "schemaVersion": "2.0.0",
  "updatedAt": "2018-06-05T13:02:15.292Z"
}