{
  "contractName": "SmartVoucherFactory",
  "abi": [
    {
      "constant": true,
      "inputs": [
        {
          "name": "",
          "type": "uint256"
        }
      ],
      "name": "smartVoucherContracts",
      "outputs": [
        {
          "name": "",
          "type": "address"
        }
      ],
      "payable": false,
      "stateMutability": "view",
      "type": "function"
    },
    {
      "inputs": [],
      "payable": false,
      "stateMutability": "nonpayable",
      "type": "constructor"
    },
    {
      "anonymous": false,
      "inputs": [
        {
          "indexed": false,
          "name": "smartVoucherContract",
          "type": "address"
        },
        {
          "indexed": false,
          "name": "owner",
          "type": "address"
        },
        {
          "indexed": false,
          "name": "numSmartVoucher",
          "type": "uint256"
        },
        {
          "indexed": false,
          "name": "allSmartVoucherContracts",
          "type": "address[]"
        }
      ],
      "name": "SmartVoucherCreated",
      "type": "event"
    },
    {
      "constant": false,
      "inputs": [
        {
          "name": "_promotionName",
          "type": "string"
        }
      ],
      "name": "createSmartVoucher",
      "outputs": [],
      "payable": false,
      "stateMutability": "nonpayable",
      "type": "function"
    },
    {
      "constant": true,
      "inputs": [],
      "name": "allSmartVoucherContracts",
      "outputs": [
        {
          "name": "",
          "type": "address[]"
        }
      ],
      "payable": false,
      "stateMutability": "view",
      "type": "function"
    }
  ],
  "bytecode": "0x6060604052341561000f57600080fd5b6108d58061001e6000396000f300606060405260043610610057576000357c0100000000000000000000000000000000000000000000000000000000900463ffffffff168063057589f31461005c5780636b9ff6a2146100b9578063de8a84021461011c575b600080fd5b341561006757600080fd5b6100b7600480803590602001908201803590602001908080601f01602080910402602001604051908101604052809392919081815260200183838082843782019150505050505091905050610186565b005b34156100c457600080fd5b6100da60048080359060200190919050506103d4565b604051808273ffffffffffffffffffffffffffffffffffffffff1673ffffffffffffffffffffffffffffffffffffffff16815260200191505060405180910390f35b341561012757600080fd5b61012f610413565b6040518080602001828103825283818151815260200191508051906020019060200280838360005b83811015610172578082015181840152602081019050610157565b505050509050019250505060405180910390f35b600033826101926104a7565b808373ffffffffffffffffffffffffffffffffffffffff1673ffffffffffffffffffffffffffffffffffffffff16815260200180602001828103825283818151815260200191508051906020019080838360005b838110156102015780820151818401526020810190506101e6565b50505050905090810190601f16801561022e5780820380516001836020036101000a031916815260200191505b509350505050604051809103906000f080151561024a57600080fd5b90506000805480600101828161026091906104b7565b9160005260206000209001600083909190916101000a81548173ffffffffffffffffffffffffffffffffffffffff021916908373ffffffffffffffffffffffffffffffffffffffff160217905550507f1e04201a40eda32d3ee820d0b1020a699f346c1aec2e65c99cb219d4cb47221581336000805490506000604051808573ffffffffffffffffffffffffffffffffffffffff1673ffffffffffffffffffffffffffffffffffffffff1681526020018473ffffffffffffffffffffffffffffffffffffffff1673ffffffffffffffffffffffffffffffffffffffff1681526020018381526020018060200182810382528381815481526020019150805480156103bf57602002820191906000526020600020905b8160009054906101000a900473ffffffffffffffffffffffffffffffffffffffff1673ffffffffffffffffffffffffffffffffffffffff1681526020019060010190808311610375575b50509550505050505060405180910390a15050565b6000818154811015156103e357fe5b90600052602060002090016000915054906101000a900473ffffffffffffffffffffffffffffffffffffffff1681565b61041b6104e3565b600080548060200260200160405190810160405280929190818152602001828054801561049d57602002820191906000526020600020905b8160009054906101000a900473ffffffffffffffffffffffffffffffffffffffff1673ffffffffffffffffffffffffffffffffffffffff1681526020019060010190808311610453575b5050505050905090565b60405161038d8061051d83390190565b8154818355818115116104de578183600052602060002091820191016104dd91906104f7565b5b505050565b602060405190810160405280600081525090565b61051991905b808211156105155760008160009055506001016104fd565b5090565b9056006060604052341561000f57600080fd5b60405161038d38038061038d8339810160405280805190602001909190805182019190505060008273ffffffffffffffffffffffffffffffffffffffff16141561005857600080fd5b816000806101000a81548173ffffffffffffffffffffffffffffffffffffffff021916908373ffffffffffffffffffffffffffffffffffffffff16021790555080600190805190602001906100ae9291906100b6565b50505061015b565b828054600181600116156101000203166002900490600052602060002090601f016020900481019282601f106100f757805160ff1916838001178555610125565b82800160010185558215610125579182015b82811115610124578251825591602001919060010190610109565b5b5090506101329190610136565b5090565b61015891905b8082111561015457600081600090555060010161013c565b5090565b90565b6102238061016a6000396000f30060606040526004361061004c576000357c0100000000000000000000000000000000000000000000000000000000900463ffffffff1680638da5cb5b14610051578063c46d4ce4146100a6575b600080fd5b341561005c57600080fd5b610064610134565b604051808273ffffffffffffffffffffffffffffffffffffffff1673ffffffffffffffffffffffffffffffffffffffff16815260200191505060405180910390f35b34156100b157600080fd5b6100b9610159565b6040518080602001828103825283818151815260200191508051906020019080838360005b838110156100f95780820151818401526020810190506100de565b50505050905090810190601f1680156101265780820380516001836020036101000a031916815260200191505b509250505060405180910390f35b6000809054906101000a900473ffffffffffffffffffffffffffffffffffffffff1681565b60018054600181600116156101000203166002900480601f0160208091040260200160405190810160405280929190818152602001828054600181600116156101000203166002900480156101ef5780601f106101c4576101008083540402835291602001916101ef565b820191906000526020600020905b8154815290600101906020018083116101d257829003601f168201915b5050505050815600a165627a7a72305820ed93d8a4fdaa4ba5cdb02b32cd342bc745aa408ea78d71dad3b3d77c871e2e4a0029a165627a7a7230582055151ffa69ff812ad790bbadecd6f2cea7ca4db6708d30e9dab7a849ca87250f0029",
  "source": "pragma solidity ^0.4.21;\r\n\r\nimport { SmartVoucher } from './SmartVoucher.sol';\r\n\r\ncontract SmartVoucherFactory {\r\n  address[] public smartVoucherContracts; // Stores all instances of the Smart Coupon Contract\r\n\r\n  event SmartVoucherCreated(address smartVoucherContract, address owner, uint numSmartVoucher, address[] allSmartVoucherContracts);\r\n\r\n  function SmartVoucherFactory() public {\r\n    // Empty constructor\r\n  }\r\n\r\n  function createSmartVoucher(string _promotionName) public {\r\n      SmartVoucher newSmartVoucher = new SmartVoucher(msg.sender, _promotionName);\r\n      smartVoucherContracts.push(newSmartVoucher);\r\n\r\n      emit SmartVoucherCreated(newSmartVoucher, msg.sender, smartVoucherContracts.length, smartVoucherContracts);\r\n  }\r\n\r\n  function allSmartVoucherContracts() public constant returns (address[]) {\r\n      return smartVoucherContracts;\r\n  }\r\n\r\n}\r\n",
  "sourcePath": "C:\\Users\\john.durrant\\EE-Prototype\\blockchain-prototypes-framework\\contracts\\promotions\\SmartVoucherFactory.sol",
  "compiler": {
    "name": "solc",
    "version": "0.4.21+commit.dfe3193c.Emscripten.clang"
  },
  "schemaVersion": "2.0.0",
  "updatedAt": "2018-06-08T09:05:43.218Z"
}