{
  "contractName": "SmartCouponFactory",
  "abi": [
    {
      "constant": true,
      "inputs": [
        {
          "name": "",
          "type": "uint256"
        }
      ],
      "name": "smartCouponContracts",
      "outputs": [
        {
          "name": "",
          "type": "address"
        }
      ],
      "payable": false,
      "stateMutability": "view",
      "type": "function"
    },
    {
      "inputs": [],
      "payable": false,
      "stateMutability": "nonpayable",
      "type": "constructor"
    },
    {
      "anonymous": false,
      "inputs": [
        {
          "indexed": false,
          "name": "smartCouponContract",
          "type": "address"
        },
        {
          "indexed": false,
          "name": "owner",
          "type": "address"
        },
        {
          "indexed": false,
          "name": "numSmartCoupon",
          "type": "uint256"
        },
        {
          "indexed": false,
          "name": "allSmartCouponContracts",
          "type": "address[]"
        }
      ],
      "name": "SmartCouponCreated",
      "type": "event"
    },
    {
      "constant": false,
      "inputs": [
        {
          "name": "_promotionName",
          "type": "string"
        },
        {
          "name": "_couponQualifyingProductSKUs",
          "type": "uint256[]"
        },
        {
          "name": "_couponPercentDiscount",
          "type": "uint256"
        },
        {
          "name": "_couponQualifyingCurrency",
          "type": "address"
        },
        {
          "name": "_couponQualifyingSpend",
          "type": "uint256"
        },
        {
          "name": "_couponReusePolicy",
          "type": "string"
        },
        {
          "name": "_couponPromoterFee",
          "type": "uint256"
        },
        {
          "name": "_couponExpiryBlock",
          "type": "uint256"
        }
      ],
      "name": "createSmartCoupon",
      "outputs": [],
      "payable": false,
      "stateMutability": "nonpayable",
      "type": "function"
    },
    {
      "constant": true,
      "inputs": [],
      "name": "allSmartCouponContracts",
      "outputs": [
        {
          "name": "",
          "type": "address[]"
        }
      ],
      "payable": false,
      "stateMutability": "view",
      "type": "function"
    }
  ],
  "bytecode": "0x608060405234801561001057600080fd5b50611549806100206000396000f300608060405260043610610057576000357c0100000000000000000000000000000000000000000000000000000000900463ffffffff168063405cdbf21461005c57806377e22169146100c8578063e4c968cb14610135575b600080fd5b34801561006857600080fd5b5061007161026f565b6040518080602001828103825283818151815260200191508051906020019060200280838360005b838110156100b4578082015181840152602081019050610099565b505050509050019250505060405180910390f35b3480156100d457600080fd5b506100f3600480360381019080803590602001909291905050506102fd565b604051808273ffffffffffffffffffffffffffffffffffffffff1673ffffffffffffffffffffffffffffffffffffffff16815260200191505060405180910390f35b34801561014157600080fd5b5061026d600480360381019080803590602001908201803590602001908080601f01602080910402602001604051908101604052809392919081815260200183838082843782019150505050505091929192908035906020019082018035906020019080806020026020016040519081016040528093929190818152602001838360200280828437820191505050505050919291929080359060200190929190803573ffffffffffffffffffffffffffffffffffffffff16906020019092919080359060200190929190803590602001908201803590602001908080601f0160208091040260200160405190810160405280939291908181526020018383808284378201915050505050509192919290803590602001909291908035906020019092919050505061033b565b005b606060008054806020026020016040519081016040528092919081815260200182805480156102f357602002820191906000526020600020905b8160009054906101000a900473ffffffffffffffffffffffffffffffffffffffff1673ffffffffffffffffffffffffffffffffffffffff16815260200190600101908083116102a9575b5050505050905090565b60008181548110151561030c57fe5b906000526020600020016000915054906101000a900473ffffffffffffffffffffffffffffffffffffffff1681565b600033898989898989898961034e6106a4565b808a73ffffffffffffffffffffffffffffffffffffffff1673ffffffffffffffffffffffffffffffffffffffff16815260200180602001806020018981526020018873ffffffffffffffffffffffffffffffffffffffff1673ffffffffffffffffffffffffffffffffffffffff1681526020018781526020018060200186815260200185815260200184810384528c818151815260200191508051906020019080838360005b8381101561040f5780820151818401526020810190506103f4565b50505050905090810190601f16801561043c5780820380516001836020036101000a031916815260200191505b5084810383528b818151815260200191508051906020019060200280838360005b8381101561047857808201518184015260208101905061045d565b50505050905001848103825287818151815260200191508051906020019080838360005b838110156104b757808201518184015260208101905061049c565b50505050905090810190601f1680156104e45780820380516001836020036101000a031916815260200191505b509c50505050505050505050505050604051809103906000f08015801561050f573d6000803e3d6000fd5b50905060008190806001815401808255809150509060018203906000526020600020016000909192909190916101000a81548173ffffffffffffffffffffffffffffffffffffffff021916908373ffffffffffffffffffffffffffffffffffffffff160217905550507ff09d5d59723b3e96ac02ffb340993b77973d1b2b0bb2a845e29324532d7fcd8a81336000805490506000604051808573ffffffffffffffffffffffffffffffffffffffff1673ffffffffffffffffffffffffffffffffffffffff1681526020018473ffffffffffffffffffffffffffffffffffffffff1673ffffffffffffffffffffffffffffffffffffffff16815260200183815260200180602001828103825283818154815260200191508054801561068857602002820191906000526020600020905b8160009054906101000a900473ffffffffffffffffffffffffffffffffffffffff1673ffffffffffffffffffffffffffffffffffffffff168152602001906001019080831161063e575b50509550505050505060405180910390a1505050505050505050565b604051610e69806106b583390190560060806040526040805190810160405280600f81526020017f70657263656e74446973636f756e74000000000000000000000000000000000081525060069080519060200190620000519291906200021e565b503480156200005f57600080fd5b5060405162000e6938038062000e6983398101806040528101908080519060200190929190805182019291906020018051820192919060200180519060200190929190805190602001909291908051906020019092919080518201929190602001805190602001909291908051906020019092919050505060008973ffffffffffffffffffffffffffffffffffffffff161415620000fc57600080fd5b438110156200010a57600080fd5b886000806101000a81548173ffffffffffffffffffffffffffffffffffffffff021916908373ffffffffffffffffffffffffffffffffffffffff1602179055508760019080519060200190620001629291906200021e565b5086600290805190602001906200017b929190620002a5565b508560038190555084600460006101000a81548173ffffffffffffffffffffffffffffffffffffffff021916908373ffffffffffffffffffffffffffffffffffffffff160217905550836005819055508260079080519060200190620001e39291906200021e565b5060008211600860006101000a81548160ff0219169083151502179055508160098190555080600a819055505050505050505050506200031f565b828054600181600116156101000203166002900490600052602060002090601f016020900481019282601f106200026157805160ff191683800117855562000292565b8280016001018555821562000292579182015b828111156200029157825182559160200191906001019062000274565b5b509050620002a19190620002f7565b5090565b828054828255906000526020600020908101928215620002e4579160200282015b82811115620002e3578251825591602001919060010190620002c6565b5b509050620002f39190620002f7565b5090565b6200031c91905b8082111562000318576000816000905550600101620002fe565b5090565b90565b610b3a806200032f6000396000f3006080604052600436106100db576000357c0100000000000000000000000000000000000000000000000000000000900463ffffffff168063282d7a3f146100e05780634e6f306514610121578063633883e0146101b15780636cc866e8146101dc5780636da4989f1461025d57806383863231146102885780638da5cb5b146102b3578063ab9155631461030a578063c2bda64914610361578063c46d4ce41461041c578063c604da25146104ac578063dc7f483f146104d7578063ee0c295e14610506578063f39376d314610596578063f87c955714610602575b600080fd5b3480156100ec57600080fd5b5061010b60048036038101908080359060200190929190505050610643565b6040518082815260200191505060405180910390f35b34801561012d57600080fd5b50610136610666565b6040518080602001828103825283818151815260200191508051906020019080838360005b8381101561017657808201518184015260208101905061015b565b50505050905090810190601f1680156101a35780820380516001836020036101000a031916815260200191505b509250505060405180910390f35b3480156101bd57600080fd5b506101c6610704565b6040518082815260200191505060405180910390f35b3480156101e857600080fd5b50610243600480360381019080803590602001908201803590602001908080601f016020809104026020016040519081016040528093929190818152602001838380828437820191505050505050919291929050505061070a565b604051808215151515815260200191505060405180910390f35b34801561026957600080fd5b5061027261077e565b6040518082815260200191505060405180910390f35b34801561029457600080fd5b5061029d610784565b6040518082815260200191505060405180910390f35b3480156102bf57600080fd5b506102c861078a565b604051808273ffffffffffffffffffffffffffffffffffffffff1673ffffffffffffffffffffffffffffffffffffffff16815260200191505060405180910390f35b34801561031657600080fd5b5061031f6107af565b604051808273ffffffffffffffffffffffffffffffffffffffff1673ffffffffffffffffffffffffffffffffffffffff16815260200191505060405180910390f35b34801561036d57600080fd5b506103c5600480360381019080803590602001908201803590602001908080602002602001604051908101604052809392919081815260200183836020028082843782019150505050505091929192905050506107d5565b6040518080602001828103825283818151815260200191508051906020019060200280838360005b838110156104085780820151818401526020810190506103ed565b505050509050019250505060405180910390f35b34801561042857600080fd5b506104316108f8565b6040518080602001828103825283818151815260200191508051906020019080838360005b83811015610471578082015181840152602081019050610456565b50505050905090810190601f16801561049e5780820380516001836020036101000a031916815260200191505b509250505060405180910390f35b3480156104b857600080fd5b506104c1610996565b6040518082815260200191505060405180910390f35b3480156104e357600080fd5b506104ec61099c565b604051808215151515815260200191505060405180910390f35b34801561051257600080fd5b5061051b6109af565b6040518080602001828103825283818151815260200191508051906020019080838360005b8381101561055b578082015181840152602081019050610540565b50505050905090810190601f1680156105885780820380516001836020036101000a031916815260200191505b509250505060405180910390f35b3480156105a257600080fd5b506105ab610a4d565b6040518080602001828103825283818151815260200191508051906020019060200280838360005b838110156105ee5780820151818401526020810190506105d3565b505050509050019250505060405180910390f35b34801561060e57600080fd5b5061062d60048036038101908080359060200190929190505050610aa5565b6040518082815260200191505060405180910390f35b60028181548110151561065257fe5b906000526020600020016000915090505481565b60068054600181600116156101000203166002900480601f0160208091040260200160405190810160405280929190818152602001828054600181600116156101000203166002900480156106fc5780601f106106d1576101008083540402835291602001916106fc565b820191906000526020600020905b8154815290600101906020018083116106df57829003601f168201915b505050505081565b60055481565b60008060009054906101000a900473ffffffffffffffffffffffffffffffffffffffff1673ffffffffffffffffffffffffffffffffffffffff163373ffffffffffffffffffffffffffffffffffffffff16141561076657600080fd5b600a5443111561077557600080fd5b60019050919050565b600a5481565b60035481565b6000809054906101000a900473ffffffffffffffffffffffffffffffffffffffff1681565b600460009054906101000a900473ffffffffffffffffffffffffffffffffffffffff1681565b6060600080600b60006107e89190610ac8565b600091505b60028054905082101561089e57600090505b83518210156108915760028281548110151561081757fe5b9060005260206000200154848281518110151561083057fe5b90602001906020020151141561088457600b848281518110151561085057fe5b9060200190602002015190806001815401808255809150509060018203906000526020600020016000909192909190915055505b80806001019150506107ff565b81806001019250506107ed565b600b8054806020026020016040519081016040528092919081815260200182805480156108ea57602002820191906000526020600020905b8154815260200190600101908083116108d6575b505050505092505050919050565b60018054600181600116156101000203166002900480601f01602080910402602001604051908101604052809291908181526020018280546001816001161561010002031660029004801561098e5780601f106109635761010080835404028352916020019161098e565b820191906000526020600020905b81548152906001019060200180831161097157829003601f168201915b505050505081565b60095481565b600860009054906101000a900460ff1681565b60078054600181600116156101000203166002900480601f016020809104026020016040519081016040528092919081815260200182805460018160011615610100020316600290048015610a455780601f10610a1a57610100808354040283529160200191610a45565b820191906000526020600020905b815481529060010190602001808311610a2857829003601f168201915b505050505081565b60606002805480602002602001604051908101604052809291908181526020018280548015610a9b57602002820191906000526020600020905b815481526020019060010190808311610a87575b5050505050905090565b600b81815481101515610ab457fe5b906000526020600020016000915090505481565b5080546000825590600052602060002090810190610ae69190610ae9565b50565b610b0b91905b80821115610b07576000816000905550600101610aef565b5090565b905600a165627a7a72305820f4478009cb3da4eb90950aa62009597ff86022bdc604b4cb4c8345fdea09facc0029a165627a7a72305820d202a7aad123c7b6b8c6b9fe35afe65cc4723288c2ea1b3ccbe8757eb59160a40029",
  "source": "pragma solidity ^0.4.21;\r\n\r\nimport { SmartCoupon } from './SmartCoupon.sol';\r\n\r\ncontract SmartCouponFactory {\r\n  address[] public smartCouponContracts; // Stores all instances of the Smart Coupon Contract\r\n\r\n  event SmartCouponCreated(address smartCouponContract, address owner, uint numSmartCoupon, address[] allSmartCouponContracts);\r\n\r\n  function SmartCouponFactory() public {\r\n    // Empty constructor\r\n  }\r\n\r\n  function createSmartCoupon(\r\n    string _promotionName,\r\n    uint[] _couponQualifyingProductSKUs,\r\n    uint _couponPercentDiscount,\r\n    address _couponQualifyingCurrency,\r\n    uint _couponQualifyingSpend,\r\n    string _couponReusePolicy,\r\n    uint _couponPromoterFee,\r\n    uint _couponExpiryBlock\r\n    ) public {\r\n      SmartCoupon newSmartCoupon = new SmartCoupon(\r\n        msg.sender,\r\n        _promotionName,\r\n        _couponQualifyingProductSKUs,\r\n        _couponPercentDiscount,\r\n        _couponQualifyingCurrency,\r\n        _couponQualifyingSpend,\r\n        _couponReusePolicy,\r\n        _couponPromoterFee,\r\n        _couponExpiryBlock);\r\n\r\n      smartCouponContracts.push(newSmartCoupon);\r\n\r\n      emit SmartCouponCreated(newSmartCoupon, msg.sender, smartCouponContracts.length, smartCouponContracts);\r\n  }\r\n\r\n  function allSmartCouponContracts() public constant returns (address[]) {\r\n      return smartCouponContracts;\r\n  }\r\n\r\n}\r\n",
  "sourcePath": "C:\\Users\\John\\EE-Proto\\blockchain-prototypes-framework\\contracts\\promotions\\SmartCouponFactory.sol",
  "compiler": {
    "name": "solc",
    "version": "0.4.23+commit.124ca40d.Emscripten.clang"
  },
  "schemaVersion": "2.0.0",
  "updatedAt": "2018-06-07T14:48:53.993Z"
}