{
  "contractName": "SmartCouponFactory",
  "abi": [
    {
      "constant": true,
      "inputs": [
        {
          "name": "",
          "type": "uint256"
        }
      ],
      "name": "smartCouponContracts",
      "outputs": [
        {
          "name": "",
          "type": "address"
        }
      ],
      "payable": false,
      "stateMutability": "view",
      "type": "function"
    },
    {
      "inputs": [],
      "payable": false,
      "stateMutability": "nonpayable",
      "type": "constructor"
    },
    {
      "anonymous": false,
      "inputs": [
        {
          "indexed": false,
          "name": "smartCouponContract",
          "type": "address"
        },
        {
          "indexed": false,
          "name": "owner",
          "type": "address"
        },
        {
          "indexed": false,
          "name": "numSmartCoupon",
          "type": "uint256"
        },
        {
          "indexed": false,
          "name": "allSmartCouponContracts",
          "type": "address[]"
        }
      ],
      "name": "SmartCouponCreated",
      "type": "event"
    },
    {
      "constant": false,
      "inputs": [
        {
          "name": "_promotionName",
          "type": "string"
        },
        {
          "name": "_couponQualifyingProductSKUs",
          "type": "uint256[]"
        },
        {
          "name": "_couponPercentDiscount",
          "type": "uint256"
        },
        {
          "name": "_couponQualifyingCurrency",
          "type": "address"
        },
        {
          "name": "_couponQualifyingSpend",
          "type": "uint256"
        },
        {
          "name": "_couponReusePolicy",
          "type": "string"
        },
        {
          "name": "_couponPromoterFee",
          "type": "uint256"
        },
        {
          "name": "_couponExpiryBlock",
          "type": "uint256"
        }
      ],
      "name": "createSmartCoupon",
      "outputs": [],
      "payable": false,
      "stateMutability": "nonpayable",
      "type": "function"
    },
    {
      "constant": true,
      "inputs": [],
      "name": "allSmartCouponContracts",
      "outputs": [
        {
          "name": "",
          "type": "address[]"
        }
      ],
      "payable": false,
      "stateMutability": "view",
      "type": "function"
    }
  ],
  "bytecode": "0x6060604052341561000f57600080fd5b6115828061001e6000396000f300606060405260043610610057576000357c0100000000000000000000000000000000000000000000000000000000900463ffffffff168063405cdbf21461005c57806377e22169146100c6578063e4c968cb14610129575b600080fd5b341561006757600080fd5b61006f61024c565b6040518080602001828103825283818151815260200191508051906020019060200280838360005b838110156100b2578082015181840152602081019050610097565b505050509050019250505060405180910390f35b34156100d157600080fd5b6100e760048080359060200190919050506102e0565b604051808273ffffffffffffffffffffffffffffffffffffffff1673ffffffffffffffffffffffffffffffffffffffff16815260200191505060405180910390f35b341561013457600080fd5b61024a600480803590602001908201803590602001908080601f016020809104026020016040519081016040528093929190818152602001838380828437820191505050505050919080359060200190820180359060200190808060200260200160405190810160405280939291908181526020018383602002808284378201915050505050509190803590602001909190803573ffffffffffffffffffffffffffffffffffffffff1690602001909190803590602001909190803590602001908201803590602001908080601f0160208091040260200160405190810160405280939291908181526020018383808284378201915050505050509190803590602001909190803590602001909190505061031f565b005b61025461067e565b60008054806020026020016040519081016040528092919081815260200182805480156102d657602002820191906000526020600020905b8160009054906101000a900473ffffffffffffffffffffffffffffffffffffffff1673ffffffffffffffffffffffffffffffffffffffff168152602001906001019080831161028c575b5050505050905090565b6000818154811015156102ef57fe5b90600052602060002090016000915054906101000a900473ffffffffffffffffffffffffffffffffffffffff1681565b6000338989898989898989610332610692565b808a73ffffffffffffffffffffffffffffffffffffffff1673ffffffffffffffffffffffffffffffffffffffff16815260200180602001806020018981526020018873ffffffffffffffffffffffffffffffffffffffff1673ffffffffffffffffffffffffffffffffffffffff1681526020018781526020018060200186815260200185815260200184810384528c818151815260200191508051906020019080838360005b838110156103f35780820151818401526020810190506103d8565b50505050905090810190601f1680156104205780820380516001836020036101000a031916815260200191505b5084810383528b818151815260200191508051906020019060200280838360005b8381101561045c578082015181840152602081019050610441565b50505050905001848103825287818151815260200191508051906020019080838360005b8381101561049b578082015181840152602081019050610480565b50505050905090810190601f1680156104c85780820380516001836020036101000a031916815260200191505b509c50505050505050505050505050604051809103906000f08015156104ed57600080fd5b90506000805480600101828161050391906106a2565b9160005260206000209001600083909190916101000a81548173ffffffffffffffffffffffffffffffffffffffff021916908373ffffffffffffffffffffffffffffffffffffffff160217905550507ff09d5d59723b3e96ac02ffb340993b77973d1b2b0bb2a845e29324532d7fcd8a81336000805490506000604051808573ffffffffffffffffffffffffffffffffffffffff1673ffffffffffffffffffffffffffffffffffffffff1681526020018473ffffffffffffffffffffffffffffffffffffffff1673ffffffffffffffffffffffffffffffffffffffff16815260200183815260200180602001828103825283818154815260200191508054801561066257602002820191906000526020600020905b8160009054906101000a900473ffffffffffffffffffffffffffffffffffffffff1673ffffffffffffffffffffffffffffffffffffffff1681526020019060010190808311610618575b50509550505050505060405180910390a1505050505050505050565b602060405190810160405280600081525090565b604051610e63806106f483390190565b8154818355818115116106c9578183600052602060002091820191016106c891906106ce565b5b505050565b6106f091905b808211156106ec5760008160009055506001016106d4565b5090565b90560060606040526040805190810160405280600f81526020017f70657263656e74446973636f756e74000000000000000000000000000000000081525060069080519060200190620000519291906200020e565b5034156200005e57600080fd5b60405162000e6338038062000e638339810160405280805190602001909190805182019190602001805182019190602001805190602001909190805190602001909190805190602001909190805182019190602001805190602001909190805190602001909190505060008973ffffffffffffffffffffffffffffffffffffffff161415620000ec57600080fd5b43811015620000fa57600080fd5b886000806101000a81548173ffffffffffffffffffffffffffffffffffffffff021916908373ffffffffffffffffffffffffffffffffffffffff1602179055508760019080519060200190620001529291906200020e565b5086600290805190602001906200016b92919062000295565b508560038190555084600460006101000a81548173ffffffffffffffffffffffffffffffffffffffff021916908373ffffffffffffffffffffffffffffffffffffffff160217905550836005819055508260079080519060200190620001d39291906200020e565b5060008211600860006101000a81548160ff0219169083151502179055508160098190555080600a819055505050505050505050506200030f565b828054600181600116156101000203166002900490600052602060002090601f016020900481019282601f106200025157805160ff191683800117855562000282565b8280016001018555821562000282579182015b828111156200028157825182559160200191906001019062000264565b5b509050620002919190620002e7565b5090565b828054828255906000526020600020908101928215620002d4579160200282015b82811115620002d3578251825591602001919060010190620002b6565b5b509050620002e39190620002e7565b5090565b6200030c91905b8082111562000308576000816000905550600101620002ee565b5090565b90565b610b44806200031f6000396000f3006060604052600436106100db576000357c0100000000000000000000000000000000000000000000000000000000900463ffffffff168063282d7a3f146100e05780634e6f306514610117578063633883e0146101a55780636cc866e8146101ce5780636da4989f14610243578063838632311461026c5780638da5cb5b14610295578063ab915563146102ea578063c2bda6491461033f578063c46d4ce4146103ee578063c604da251461047c578063dc7f483f146104a5578063ee0c295e146104d2578063f39376d314610560578063f87c9557146105ca575b600080fd5b34156100eb57600080fd5b6101016004808035906020019091905050610601565b6040518082815260200191505060405180910390f35b341561012257600080fd5b61012a610625565b6040518080602001828103825283818151815260200191508051906020019080838360005b8381101561016a57808201518184015260208101905061014f565b50505050905090810190601f1680156101975780820380516001836020036101000a031916815260200191505b509250505060405180910390f35b34156101b057600080fd5b6101b86106c3565b6040518082815260200191505060405180910390f35b34156101d957600080fd5b610229600480803590602001908201803590602001908080601f016020809104026020016040519081016040528093929190818152602001838380828437820191505050505050919050506106c9565b604051808215151515815260200191505060405180910390f35b341561024e57600080fd5b61025661073d565b6040518082815260200191505060405180910390f35b341561027757600080fd5b61027f610743565b6040518082815260200191505060405180910390f35b34156102a057600080fd5b6102a8610749565b604051808273ffffffffffffffffffffffffffffffffffffffff1673ffffffffffffffffffffffffffffffffffffffff16815260200191505060405180910390f35b34156102f557600080fd5b6102fd61076e565b604051808273ffffffffffffffffffffffffffffffffffffffff1673ffffffffffffffffffffffffffffffffffffffff16815260200191505060405180910390f35b341561034a57600080fd5b610397600480803590602001908201803590602001908080602002602001604051908101604052809392919081815260200183836020028082843782019150505050505091905050610794565b6040518080602001828103825283818151815260200191508051906020019060200280838360005b838110156103da5780820151818401526020810190506103bf565b505050509050019250505060405180910390f35b34156103f957600080fd5b6104016108bb565b6040518080602001828103825283818151815260200191508051906020019080838360005b83811015610441578082015181840152602081019050610426565b50505050905090810190601f16801561046e5780820380516001836020036101000a031916815260200191505b509250505060405180910390f35b341561048757600080fd5b61048f610959565b6040518082815260200191505060405180910390f35b34156104b057600080fd5b6104b861095f565b604051808215151515815260200191505060405180910390f35b34156104dd57600080fd5b6104e5610972565b6040518080602001828103825283818151815260200191508051906020019080838360005b8381101561052557808201518184015260208101905061050a565b50505050905090810190601f1680156105525780820380516001836020036101000a031916815260200191505b509250505060405180910390f35b341561056b57600080fd5b610573610a10565b6040518080602001828103825283818151815260200191508051906020019060200280838360005b838110156105b657808201518184015260208101905061059b565b505050509050019250505060405180910390f35b34156105d557600080fd5b6105eb6004808035906020019091905050610a6e565b6040518082815260200191505060405180910390f35b60028181548110151561061057fe5b90600052602060002090016000915090505481565b60068054600181600116156101000203166002900480601f0160208091040260200160405190810160405280929190818152602001828054600181600116156101000203166002900480156106bb5780601f10610690576101008083540402835291602001916106bb565b820191906000526020600020905b81548152906001019060200180831161069e57829003601f168201915b505050505081565b60055481565b60008060009054906101000a900473ffffffffffffffffffffffffffffffffffffffff1673ffffffffffffffffffffffffffffffffffffffff163373ffffffffffffffffffffffffffffffffffffffff16141561072557600080fd5b600a5443111561073457600080fd5b60019050919050565b600a5481565b60035481565b6000809054906101000a900473ffffffffffffffffffffffffffffffffffffffff1681565b600460009054906101000a900473ffffffffffffffffffffffffffffffffffffffff1681565b61079c610a92565b600080600b60006107ad9190610aa6565b600091505b60028054905082101561086157600090505b8351821015610854576002828154811015156107dc57fe5b90600052602060002090015484828151811015156107f657fe5b90602001906020020151141561084757600b805480600101828161081a9190610ac7565b91600052602060002090016000868481518110151561083557fe5b90602001906020020151909190915055505b80806001019150506107c4565b81806001019250506107b2565b600b8054806020026020016040519081016040528092919081815260200182805480156108ad57602002820191906000526020600020905b815481526020019060010190808311610899575b505050505092505050919050565b60018054600181600116156101000203166002900480601f0160208091040260200160405190810160405280929190818152602001828054600181600116156101000203166002900480156109515780601f1061092657610100808354040283529160200191610951565b820191906000526020600020905b81548152906001019060200180831161093457829003601f168201915b505050505081565b60095481565b600860009054906101000a900460ff1681565b60078054600181600116156101000203166002900480601f016020809104026020016040519081016040528092919081815260200182805460018160011615610100020316600290048015610a085780601f106109dd57610100808354040283529160200191610a08565b820191906000526020600020905b8154815290600101906020018083116109eb57829003601f168201915b505050505081565b610a18610a92565b6002805480602002602001604051908101604052809291908181526020018280548015610a6457602002820191906000526020600020905b815481526020019060010190808311610a50575b5050505050905090565b600b81815481101515610a7d57fe5b90600052602060002090016000915090505481565b602060405190810160405280600081525090565b5080546000825590600052602060002090810190610ac49190610af3565b50565b815481835581811511610aee57818360005260206000209182019101610aed9190610af3565b5b505050565b610b1591905b80821115610b11576000816000905550600101610af9565b5090565b905600a165627a7a72305820ffc53fc4455348b8c0ff7e8a25ba265e4c07381c5617828845a2f84b18357acc0029a165627a7a723058207ca2593c54673e4b14d44551749c8fb03728ed7e3f1f63ec0008d6c0c8f20d170029",
  "source": "pragma solidity ^0.4.21;\r\n\r\nimport { SmartCoupon } from './SmartCoupon.sol';\r\n\r\ncontract SmartCouponFactory {\r\n  address[] public smartCouponContracts; // Stores all instances of the Smart Coupon Contract\r\n\r\n  event SmartCouponCreated(address smartCouponContract, address owner, uint numSmartCoupon, address[] allSmartCouponContracts);\r\n\r\n  function SmartCouponFactory() public {\r\n    // Empty constructor\r\n  }\r\n\r\n  function createSmartCoupon(\r\n    string _promotionName,\r\n    uint[] _couponQualifyingProductSKUs,\r\n    uint _couponPercentDiscount,\r\n    address _couponQualifyingCurrency,\r\n    uint _couponQualifyingSpend,\r\n    string _couponReusePolicy,\r\n    uint _couponPromoterFee,\r\n    uint _couponExpiryBlock\r\n    ) public {\r\n      SmartCoupon newSmartCoupon = new SmartCoupon(\r\n        msg.sender,\r\n        _promotionName,\r\n        _couponQualifyingProductSKUs,\r\n        _couponPercentDiscount,\r\n        _couponQualifyingCurrency,\r\n        _couponQualifyingSpend,\r\n        _couponReusePolicy,\r\n        _couponPromoterFee,\r\n        _couponExpiryBlock);\r\n\r\n      smartCouponContracts.push(newSmartCoupon);\r\n\r\n      emit SmartCouponCreated(newSmartCoupon, msg.sender, smartCouponContracts.length, smartCouponContracts);\r\n  }\r\n\r\n  function allSmartCouponContracts() public constant returns (address[]) {\r\n      return smartCouponContracts;\r\n  }\r\n\r\n}\r\n",
  "sourcePath": "C:\\Users\\john.durrant\\EE-Prototype\\blockchain-prototypes-framework\\contracts\\promotions\\SmartCouponFactory.sol",
  "compiler": {
    "name": "solc",
    "version": "0.4.21+commit.dfe3193c.Emscripten.clang"
  },
  "schemaVersion": "2.0.0",
  "updatedAt": "2018-06-25T05:50:44.127Z"
}