{
  "contractName": "SmartCoupon",
  "abi": [
    {
      "constant": true,
      "inputs": [
        {
          "name": "",
          "type": "uint256"
        }
      ],
      "name": "couponQualifyingProductSKUs",
      "outputs": [
        {
          "name": "",
          "type": "uint256"
        }
      ],
      "payable": false,
      "stateMutability": "view",
      "type": "function"
    },
    {
      "constant": true,
      "inputs": [],
      "name": "couponFixedDiscount",
      "outputs": [
        {
          "name": "",
          "type": "uint256"
        }
      ],
      "payable": false,
      "stateMutability": "view",
      "type": "function"
    },
    {
      "constant": true,
      "inputs": [],
      "name": "couponDiscountType",
      "outputs": [
        {
          "name": "",
          "type": "string"
        }
      ],
      "payable": false,
      "stateMutability": "view",
      "type": "function"
    },
    {
      "constant": true,
      "inputs": [],
      "name": "couponQualifyingSpend",
      "outputs": [
        {
          "name": "",
          "type": "uint256"
        }
      ],
      "payable": false,
      "stateMutability": "view",
      "type": "function"
    },
    {
      "constant": true,
      "inputs": [],
      "name": "couponExpiryBlock",
      "outputs": [
        {
          "name": "",
          "type": "uint256"
        }
      ],
      "payable": false,
      "stateMutability": "view",
      "type": "function"
    },
    {
      "constant": true,
      "inputs": [],
      "name": "couponPercentDiscount",
      "outputs": [
        {
          "name": "",
          "type": "uint256"
        }
      ],
      "payable": false,
      "stateMutability": "view",
      "type": "function"
    },
    {
      "constant": true,
      "inputs": [],
      "name": "owner",
      "outputs": [
        {
          "name": "",
          "type": "address"
        }
      ],
      "payable": false,
      "stateMutability": "view",
      "type": "function"
    },
    {
      "constant": true,
      "inputs": [],
      "name": "promotionName",
      "outputs": [
        {
          "name": "",
          "type": "string"
        }
      ],
      "payable": false,
      "stateMutability": "view",
      "type": "function"
    },
    {
      "constant": true,
      "inputs": [],
      "name": "couponPromoterFee",
      "outputs": [
        {
          "name": "",
          "type": "uint256"
        }
      ],
      "payable": false,
      "stateMutability": "view",
      "type": "function"
    },
    {
      "constant": true,
      "inputs": [],
      "name": "couponPromotersAllowed",
      "outputs": [
        {
          "name": "",
          "type": "bool"
        }
      ],
      "payable": false,
      "stateMutability": "view",
      "type": "function"
    },
    {
      "constant": true,
      "inputs": [],
      "name": "couponReusePolicy",
      "outputs": [
        {
          "name": "",
          "type": "string"
        }
      ],
      "payable": false,
      "stateMutability": "view",
      "type": "function"
    },
    {
      "inputs": [
        {
          "name": "_owner",
          "type": "address"
        },
        {
          "name": "_promotionName",
          "type": "string"
        },
        {
          "name": "_couponQualifyingProductSKUs",
          "type": "uint256[]"
        },
        {
          "name": "_couponFixedDiscount",
          "type": "uint256"
        },
        {
          "name": "_couponPercentDiscount",
          "type": "uint256"
        },
        {
          "name": "_couponQualifyingSpend",
          "type": "uint256"
        },
        {
          "name": "_couponDiscountType",
          "type": "string"
        },
        {
          "name": "_couponReusePolicy",
          "type": "string"
        },
        {
          "name": "_couponPromotersAllowed",
          "type": "bool"
        },
        {
          "name": "_couponPromoterFee",
          "type": "uint256"
        },
        {
          "name": "_couponExpiryBlock",
          "type": "uint256"
        }
      ],
      "payable": false,
      "stateMutability": "nonpayable",
      "type": "constructor"
    },
    {
      "constant": true,
      "inputs": [],
      "name": "getAllCouponQualifyingProductSKUs",
      "outputs": [
        {
          "name": "",
          "type": "uint256[]"
        }
      ],
      "payable": false,
      "stateMutability": "view",
      "type": "function"
    }
  ],
  "bytecode": "0x608060405234801561001057600080fd5b506040516109f83803806109f8833981018060405281019080805190602001909291908051820192919060200180518201929190602001805190602001909291908051906020019092919080519060200190929190805182019291906020018051820192919060200180519060200190929190805190602001909291908051906020019092919050505060008b73ffffffffffffffffffffffffffffffffffffffff1614156100be57600080fd5b8a6000806101000a81548173ffffffffffffffffffffffffffffffffffffffff021916908373ffffffffffffffffffffffffffffffffffffffff16021790555089600190805190602001906101149291906101a7565b50886002908051906020019061012b929190610227565b5087600381905550866004819055508560058190555084600690805190602001906101579291906101a7565b50836007908051906020019061016e9291906101a7565b5082600860006101000a81548160ff0219169083151502179055508160098190555080600a819055505050505050505050505050610299565b828054600181600116156101000203166002900490600052602060002090601f016020900481019282601f106101e857805160ff1916838001178555610216565b82800160010185558215610216579182015b828111156102155782518255916020019190600101906101fa565b5b5090506102239190610274565b5090565b828054828255906000526020600020908101928215610263579160200282015b82811115610262578251825591602001919060010190610247565b5b5090506102709190610274565b5090565b61029691905b8082111561029257600081600090555060010161027a565b5090565b90565b610750806102a86000396000f3006080604052600436106100ba576000357c0100000000000000000000000000000000000000000000000000000000900463ffffffff168063282d7a3f146100bf57806342814a9e146101005780634e6f30651461012b578063633883e0146101bb5780636da4989f146101e657806383863231146102115780638da5cb5b1461023c578063c46d4ce414610293578063c604da2514610323578063dc7f483f1461034e578063ee0c295e1461037d578063f39376d31461040d575b600080fd5b3480156100cb57600080fd5b506100ea60048036038101908080359060200190929190505050610479565b6040518082815260200191505060405180910390f35b34801561010c57600080fd5b5061011561049c565b6040518082815260200191505060405180910390f35b34801561013757600080fd5b506101406104a2565b6040518080602001828103825283818151815260200191508051906020019080838360005b83811015610180578082015181840152602081019050610165565b50505050905090810190601f1680156101ad5780820380516001836020036101000a031916815260200191505b509250505060405180910390f35b3480156101c757600080fd5b506101d0610540565b6040518082815260200191505060405180910390f35b3480156101f257600080fd5b506101fb610546565b6040518082815260200191505060405180910390f35b34801561021d57600080fd5b5061022661054c565b6040518082815260200191505060405180910390f35b34801561024857600080fd5b50610251610552565b604051808273ffffffffffffffffffffffffffffffffffffffff1673ffffffffffffffffffffffffffffffffffffffff16815260200191505060405180910390f35b34801561029f57600080fd5b506102a8610577565b6040518080602001828103825283818151815260200191508051906020019080838360005b838110156102e85780820151818401526020810190506102cd565b50505050905090810190601f1680156103155780820380516001836020036101000a031916815260200191505b509250505060405180910390f35b34801561032f57600080fd5b50610338610615565b6040518082815260200191505060405180910390f35b34801561035a57600080fd5b5061036361061b565b604051808215151515815260200191505060405180910390f35b34801561038957600080fd5b5061039261062e565b6040518080602001828103825283818151815260200191508051906020019080838360005b838110156103d25780820151818401526020810190506103b7565b50505050905090810190601f1680156103ff5780820380516001836020036101000a031916815260200191505b509250505060405180910390f35b34801561041957600080fd5b506104226106cc565b6040518080602001828103825283818151815260200191508051906020019060200280838360005b8381101561046557808201518184015260208101905061044a565b505050509050019250505060405180910390f35b60028181548110151561048857fe5b906000526020600020016000915090505481565b60035481565b60068054600181600116156101000203166002900480601f0160208091040260200160405190810160405280929190818152602001828054600181600116156101000203166002900480156105385780601f1061050d57610100808354040283529160200191610538565b820191906000526020600020905b81548152906001019060200180831161051b57829003601f168201915b505050505081565b60055481565b600a5481565b60045481565b6000809054906101000a900473ffffffffffffffffffffffffffffffffffffffff1681565b60018054600181600116156101000203166002900480601f01602080910402602001604051908101604052809291908181526020018280546001816001161561010002031660029004801561060d5780601f106105e25761010080835404028352916020019161060d565b820191906000526020600020905b8154815290600101906020018083116105f057829003601f168201915b505050505081565b60095481565b600860009054906101000a900460ff1681565b60078054600181600116156101000203166002900480601f0160208091040260200160405190810160405280929190818152602001828054600181600116156101000203166002900480156106c45780601f10610699576101008083540402835291602001916106c4565b820191906000526020600020905b8154815290600101906020018083116106a757829003601f168201915b505050505081565b6060600280548060200260200160405190810160405280929190818152602001828054801561071a57602002820191906000526020600020905b815481526020019060010190808311610706575b50505050509050905600a165627a7a723058206492d4783d3998b924efea60f8223429dba198795f30d0f290949415fa661d6c0029",
  "source": "pragma solidity ^0.4.21;\r\n\r\ncontract SmartCoupon {\r\n\r\n  // static\r\n  address public owner;\r\n  string public promotionName;\r\n  uint[] public couponQualifyingProductSKUs;\r\n  uint public couponFixedDiscount;\r\n  uint public couponPercentDiscount;\r\n  uint public couponQualifyingSpend;\r\n  string public couponDiscountType; // perhaps this should be enum 'fixed' / 'percent'\r\n  string public couponReusePolicy; // perhaps this should be enum 'single' / 'multi'\r\n  bool public couponPromotersAllowed;\r\n  uint public couponPromoterFee; // percentage for promoter\r\n  uint public couponExpiryBlock;\r\n\r\n  // states\r\n  function SmartCoupon (\r\n    address _owner,\r\n    string _promotionName,\r\n    uint[] _couponQualifyingProductSKUs,\r\n    uint _couponFixedDiscount,\r\n    uint _couponPercentDiscount,\r\n    uint _couponQualifyingSpend,\r\n    string _couponDiscountType,\r\n    string _couponReusePolicy,\r\n    bool _couponPromotersAllowed,\r\n    uint _couponPromoterFee,\r\n    uint _couponExpiryBlock\r\n    ) public {\r\n      if (_owner == 0) revert();\r\n\r\n      owner = _owner;\r\n      promotionName = _promotionName;\r\n      couponQualifyingProductSKUs = _couponQualifyingProductSKUs;\r\n      couponFixedDiscount = _couponFixedDiscount;\r\n      couponPercentDiscount = _couponPercentDiscount;\r\n      couponQualifyingSpend = _couponQualifyingSpend;\r\n      couponDiscountType = _couponDiscountType;\r\n      couponReusePolicy = _couponReusePolicy;\r\n      couponPromotersAllowed = _couponPromotersAllowed;\r\n      couponPromoterFee = _couponPromoterFee;\r\n      couponExpiryBlock = _couponExpiryBlock;\r\n  }\r\n\r\n  function getAllCouponQualifyingProductSKUs() public view returns (uint[]) {\r\n    return couponQualifyingProductSKUs;\r\n  }\r\n\r\n}\r\n",
  "sourcePath": "C:\\Users\\John\\EE-Proto\\blockchain-prototypes-framework\\contracts\\promotions\\SmartCoupon.sol",
  "compiler": {
    "name": "solc",
    "version": "0.4.23+commit.124ca40d.Emscripten.clang"
  },
  "schemaVersion": "2.0.0",
  "updatedAt": "2018-06-02T11:32:56.874Z"
}