{
  "contractName": "SmartCoupon",
  "abi": [
    {
      "constant": true,
      "inputs": [],
      "name": "couponFixedDiscount",
      "outputs": [
        {
          "name": "",
          "type": "uint256"
        }
      ],
      "payable": false,
      "stateMutability": "view",
      "type": "function"
    },
    {
      "constant": true,
      "inputs": [
        {
          "name": "",
          "type": "uint256"
        }
      ],
      "name": "couponQualifyingProducts",
      "outputs": [
        {
          "name": "",
          "type": "uint256"
        }
      ],
      "payable": false,
      "stateMutability": "view",
      "type": "function"
    },
    {
      "constant": true,
      "inputs": [],
      "name": "couponDiscountType",
      "outputs": [
        {
          "name": "",
          "type": "string"
        }
      ],
      "payable": false,
      "stateMutability": "view",
      "type": "function"
    },
    {
      "constant": true,
      "inputs": [],
      "name": "couponQualifyingSpend",
      "outputs": [
        {
          "name": "",
          "type": "uint256"
        }
      ],
      "payable": false,
      "stateMutability": "view",
      "type": "function"
    },
    {
      "constant": true,
      "inputs": [],
      "name": "couponExpiryBlock",
      "outputs": [
        {
          "name": "",
          "type": "uint256"
        }
      ],
      "payable": false,
      "stateMutability": "view",
      "type": "function"
    },
    {
      "constant": true,
      "inputs": [],
      "name": "couponPercentDiscount",
      "outputs": [
        {
          "name": "",
          "type": "uint256"
        }
      ],
      "payable": false,
      "stateMutability": "view",
      "type": "function"
    },
    {
      "constant": true,
      "inputs": [],
      "name": "owner",
      "outputs": [
        {
          "name": "",
          "type": "address"
        }
      ],
      "payable": false,
      "stateMutability": "view",
      "type": "function"
    },
    {
      "constant": true,
      "inputs": [],
      "name": "promotionName",
      "outputs": [
        {
          "name": "",
          "type": "string"
        }
      ],
      "payable": false,
      "stateMutability": "view",
      "type": "function"
    },
    {
      "constant": true,
      "inputs": [],
      "name": "couponPromoterFee",
      "outputs": [
        {
          "name": "",
          "type": "uint256"
        }
      ],
      "payable": false,
      "stateMutability": "view",
      "type": "function"
    },
    {
      "constant": true,
      "inputs": [],
      "name": "couponPromotersAllowed",
      "outputs": [
        {
          "name": "",
          "type": "bool"
        }
      ],
      "payable": false,
      "stateMutability": "view",
      "type": "function"
    },
    {
      "constant": true,
      "inputs": [],
      "name": "couponReusePolicy",
      "outputs": [
        {
          "name": "",
          "type": "string"
        }
      ],
      "payable": false,
      "stateMutability": "view",
      "type": "function"
    },
    {
      "inputs": [
        {
          "name": "_owner",
          "type": "address"
        },
        {
          "name": "_promotionName",
          "type": "string"
        },
        {
          "name": "_couponQualifyingProducts",
          "type": "uint256[]"
        },
        {
          "name": "_couponFixedDiscount",
          "type": "uint256"
        },
        {
          "name": "_couponPercentDiscount",
          "type": "uint256"
        },
        {
          "name": "_couponQualifyingSpend",
          "type": "uint256"
        },
        {
          "name": "_couponDiscountType",
          "type": "string"
        },
        {
          "name": "_couponReusePolicy",
          "type": "string"
        },
        {
          "name": "_couponPromotersAllowed",
          "type": "bool"
        },
        {
          "name": "_couponPromoterFee",
          "type": "uint256"
        },
        {
          "name": "_couponExpiryBlock",
          "type": "uint256"
        }
      ],
      "payable": false,
      "stateMutability": "nonpayable",
      "type": "constructor"
    }
  ],
  "bytecode": "0x608060405234801561001057600080fd5b50604051610929380380610929833981018060405281019080805190602001909291908051820192919060200180518201929190602001805190602001909291908051906020019092919080519060200190929190805182019291906020018051820192919060200180519060200190929190805190602001909291908051906020019092919050505060008b73ffffffffffffffffffffffffffffffffffffffff1614156100be57600080fd5b8a6000806101000a81548173ffffffffffffffffffffffffffffffffffffffff021916908373ffffffffffffffffffffffffffffffffffffffff16021790555089600190805190602001906101149291906101a7565b50886002908051906020019061012b929190610227565b5087600381905550866004819055508560058190555084600690805190602001906101579291906101a7565b50836007908051906020019061016e9291906101a7565b5082600860006101000a81548160ff0219169083151502179055508160098190555080600a819055505050505050505050505050610299565b828054600181600116156101000203166002900490600052602060002090601f016020900481019282601f106101e857805160ff1916838001178555610216565b82800160010185558215610216579182015b828111156102155782518255916020019190600101906101fa565b5b5090506102239190610274565b5090565b828054828255906000526020600020908101928215610263579160200282015b82811115610262578251825591602001919060010190610247565b5b5090506102709190610274565b5090565b61029691905b8082111561029257600081600090555060010161027a565b5090565b90565b610681806102a86000396000f3006080604052600436106100af576000357c0100000000000000000000000000000000000000000000000000000000900463ffffffff16806342814a9e146100b4578063461e8d71146100df5780634e6f306514610120578063633883e0146101b05780636da4989f146101db57806383863231146102065780638da5cb5b14610231578063c46d4ce414610288578063c604da2514610318578063dc7f483f14610343578063ee0c295e14610372575b600080fd5b3480156100c057600080fd5b506100c9610402565b6040518082815260200191505060405180910390f35b3480156100eb57600080fd5b5061010a60048036038101908080359060200190929190505050610408565b6040518082815260200191505060405180910390f35b34801561012c57600080fd5b5061013561042b565b6040518080602001828103825283818151815260200191508051906020019080838360005b8381101561017557808201518184015260208101905061015a565b50505050905090810190601f1680156101a25780820380516001836020036101000a031916815260200191505b509250505060405180910390f35b3480156101bc57600080fd5b506101c56104c9565b6040518082815260200191505060405180910390f35b3480156101e757600080fd5b506101f06104cf565b6040518082815260200191505060405180910390f35b34801561021257600080fd5b5061021b6104d5565b6040518082815260200191505060405180910390f35b34801561023d57600080fd5b506102466104db565b604051808273ffffffffffffffffffffffffffffffffffffffff1673ffffffffffffffffffffffffffffffffffffffff16815260200191505060405180910390f35b34801561029457600080fd5b5061029d610500565b6040518080602001828103825283818151815260200191508051906020019080838360005b838110156102dd5780820151818401526020810190506102c2565b50505050905090810190601f16801561030a5780820380516001836020036101000a031916815260200191505b509250505060405180910390f35b34801561032457600080fd5b5061032d61059e565b6040518082815260200191505060405180910390f35b34801561034f57600080fd5b506103586105a4565b604051808215151515815260200191505060405180910390f35b34801561037e57600080fd5b506103876105b7565b6040518080602001828103825283818151815260200191508051906020019080838360005b838110156103c75780820151818401526020810190506103ac565b50505050905090810190601f1680156103f45780820380516001836020036101000a031916815260200191505b509250505060405180910390f35b60035481565b60028181548110151561041757fe5b906000526020600020016000915090505481565b60068054600181600116156101000203166002900480601f0160208091040260200160405190810160405280929190818152602001828054600181600116156101000203166002900480156104c15780601f10610496576101008083540402835291602001916104c1565b820191906000526020600020905b8154815290600101906020018083116104a457829003601f168201915b505050505081565b60055481565b600a5481565b60045481565b6000809054906101000a900473ffffffffffffffffffffffffffffffffffffffff1681565b60018054600181600116156101000203166002900480601f0160208091040260200160405190810160405280929190818152602001828054600181600116156101000203166002900480156105965780601f1061056b57610100808354040283529160200191610596565b820191906000526020600020905b81548152906001019060200180831161057957829003601f168201915b505050505081565b60095481565b600860009054906101000a900460ff1681565b60078054600181600116156101000203166002900480601f01602080910402602001604051908101604052809291908181526020018280546001816001161561010002031660029004801561064d5780601f106106225761010080835404028352916020019161064d565b820191906000526020600020905b81548152906001019060200180831161063057829003601f168201915b5050505050815600a165627a7a72305820efef8c7a921902303c7aba0543e845adf8af595953c2cecb2e895fcb1066fae00029",
  "source": "pragma solidity ^0.4.21;\r\n\r\ncontract SmartCoupon {\r\n\r\n  // static\r\n  address public owner;\r\n  string public promotionName;\r\n  uint[] public couponQualifyingProducts;\r\n  uint public couponFixedDiscount;\r\n  uint public couponPercentDiscount;\r\n  uint public couponQualifyingSpend;\r\n  string public couponDiscountType; // perhaps this should be enum 'fixed' / 'percent'\r\n  string public couponReusePolicy; // perhaps this should be enum 'single' / 'multi'\r\n  bool public couponPromotersAllowed;\r\n  uint public couponPromoterFee; // percentage for promoter\r\n  uint public couponExpiryBlock;\r\n\r\n  // states\r\n\r\n  function SmartCoupon (\r\n    address _owner,\r\n    string _promotionName,\r\n    uint[] _couponQualifyingProducts,\r\n    uint _couponFixedDiscount,\r\n    uint _couponPercentDiscount,\r\n    uint _couponQualifyingSpend,\r\n    string _couponDiscountType,\r\n    string _couponReusePolicy,\r\n    bool _couponPromotersAllowed,\r\n    uint _couponPromoterFee,\r\n    uint _couponExpiryBlock\r\n    ) public {\r\n      if (_owner == 0) revert();\r\n\r\n      owner = _owner;\r\n      promotionName = _promotionName;\r\n      couponQualifyingProducts = _couponQualifyingProducts;\r\n      couponFixedDiscount = _couponFixedDiscount;\r\n      couponPercentDiscount = _couponPercentDiscount;\r\n      couponQualifyingSpend = _couponQualifyingSpend;\r\n      couponDiscountType = _couponDiscountType;\r\n      couponReusePolicy = _couponReusePolicy;\r\n      couponPromotersAllowed = _couponPromotersAllowed;\r\n      couponPromoterFee = _couponPromoterFee;\r\n      couponExpiryBlock = _couponExpiryBlock;\r\n\r\n  }\r\n\r\n}\r\n",
  "sourcePath": "C:\\Users\\John\\EE-Proto\\blockchain-prototypes-framework\\contracts\\promotions\\SmartCoupon.sol",
  "compiler": {
    "name": "solc",
    "version": "0.4.23+commit.124ca40d.Emscripten.clang"
  },
  "schemaVersion": "2.0.0",
  "updatedAt": "2018-05-29T17:57:36.146Z"
}