{
  "contractName": "SmartCouponFactory",
  "abi": [
    {
      "constant": true,
      "inputs": [
        {
          "name": "",
          "type": "uint256"
        }
      ],
      "name": "smartCouponContracts",
      "outputs": [
        {
          "name": "",
          "type": "address"
        }
      ],
      "payable": false,
      "stateMutability": "view",
      "type": "function"
    },
    {
      "inputs": [],
      "payable": false,
      "stateMutability": "nonpayable",
      "type": "constructor"
    },
    {
      "anonymous": false,
      "inputs": [
        {
          "indexed": false,
          "name": "smartCouponContract",
          "type": "address"
        },
        {
          "indexed": false,
          "name": "owner",
          "type": "address"
        },
        {
          "indexed": false,
          "name": "numSmartCoupon",
          "type": "uint256"
        },
        {
          "indexed": false,
          "name": "allSmartCouponContracts",
          "type": "address[]"
        }
      ],
      "name": "SmartCouponCreated",
      "type": "event"
    },
    {
      "constant": false,
      "inputs": [
        {
          "name": "_promotionName",
          "type": "string"
        },
        {
          "name": "_couponQualifyingProductSKUs",
          "type": "uint256[]"
        },
        {
          "name": "_couponPercentDiscount",
          "type": "uint256"
        },
        {
          "name": "_couponQualifyingCurrencies",
          "type": "address[]"
        },
        {
          "name": "_couponQualifyingSpend",
          "type": "uint256"
        },
        {
          "name": "_couponReusePolicy",
          "type": "string"
        },
        {
          "name": "_couponPromoterFee",
          "type": "uint256"
        },
        {
          "name": "_couponExpiryBlock",
          "type": "uint256"
        }
      ],
      "name": "createSmartCoupon",
      "outputs": [],
      "payable": false,
      "stateMutability": "nonpayable",
      "type": "function"
    },
    {
      "constant": true,
      "inputs": [],
      "name": "allSmartCouponContracts",
      "outputs": [
        {
          "name": "",
          "type": "address[]"
        }
      ],
      "payable": false,
      "stateMutability": "view",
      "type": "function"
    }
  ],
  "bytecode": "0x6060604052341561000f57600080fd5b6117a98061001e6000396000f300606060405260043610610057576000357c0100000000000000000000000000000000000000000000000000000000900463ffffffff168063405cdbf21461005c57806377e22169146100c6578063e2489cf614610129575b600080fd5b341561006757600080fd5b61006f61026d565b6040518080602001828103825283818151815260200191508051906020019060200280838360005b838110156100b2578082015181840152602081019050610097565b505050509050019250505060405180910390f35b34156100d157600080fd5b6100e76004808035906020019091905050610301565b604051808273ffffffffffffffffffffffffffffffffffffffff1673ffffffffffffffffffffffffffffffffffffffff16815260200191505060405180910390f35b341561013457600080fd5b61026b600480803590602001908201803590602001908080601f01602080910402602001604051908101604052809392919081815260200183838082843782019150505050505091908035906020019082018035906020019080806020026020016040519081016040528093929190818152602001838360200280828437820191505050505050919080359060200190919080359060200190820180359060200190808060200260200160405190810160405280939291908181526020018383602002808284378201915050505050509190803590602001909190803590602001908201803590602001908080601f01602080910402602001604051908101604052809392919081815260200183838082843782019150505050505091908035906020019091908035906020019091905050610340565b005b6102756106b4565b60008054806020026020016040519081016040528092919081815260200182805480156102f757602002820191906000526020600020905b8160009054906101000a900473ffffffffffffffffffffffffffffffffffffffff1673ffffffffffffffffffffffffffffffffffffffff16815260200190600101908083116102ad575b5050505050905090565b60008181548110151561031057fe5b90600052602060002090016000915054906101000a900473ffffffffffffffffffffffffffffffffffffffff1681565b60003389898989898989896103536106c8565b808a73ffffffffffffffffffffffffffffffffffffffff1673ffffffffffffffffffffffffffffffffffffffff1681526020018060200180602001898152602001806020018881526020018060200187815260200186815260200185810385528d818151815260200191508051906020019080838360005b838110156103e65780820151818401526020810190506103cb565b50505050905090810190601f1680156104135780820380516001836020036101000a031916815260200191505b5085810384528c818151815260200191508051906020019060200280838360005b8381101561044f578082015181840152602081019050610434565b5050505090500185810383528a818151815260200191508051906020019060200280838360005b83811015610491578082015181840152602081019050610476565b50505050905001858103825288818151815260200191508051906020019080838360005b838110156104d05780820151818401526020810190506104b5565b50505050905090810190601f1680156104fd5780820380516001836020036101000a031916815260200191505b509d5050505050505050505050505050604051809103906000f080151561052357600080fd5b90506000805480600101828161053991906106d8565b9160005260206000209001600083909190916101000a81548173ffffffffffffffffffffffffffffffffffffffff021916908373ffffffffffffffffffffffffffffffffffffffff160217905550507ff09d5d59723b3e96ac02ffb340993b77973d1b2b0bb2a845e29324532d7fcd8a81336000805490506000604051808573ffffffffffffffffffffffffffffffffffffffff1673ffffffffffffffffffffffffffffffffffffffff1681526020018473ffffffffffffffffffffffffffffffffffffffff1673ffffffffffffffffffffffffffffffffffffffff16815260200183815260200180602001828103825283818154815260200191508054801561069857602002820191906000526020600020905b8160009054906101000a900473ffffffffffffffffffffffffffffffffffffffff1673ffffffffffffffffffffffffffffffffffffffff168152602001906001019080831161064e575b50509550505050505060405180910390a1505050505050505050565b602060405190810160405280600081525090565b6040516110548061072a83390190565b8154818355818115116106ff578183600052602060002091820191016106fe9190610704565b5b505050565b61072691905b8082111561072257600081600090555060010161070a565b5090565b90560060606040526040805190810160405280600f81526020017f70657263656e74446973636f756e7400000000000000000000000000000000008152506006908051906020019062000051929190620001e6565b5034156200005e57600080fd5b60405162001054380380620010548339810160405280805190602001909190805182019190602001805182019190602001805190602001909190805182019190602001805190602001909190805182019190602001805190602001909190805190602001909190505060008973ffffffffffffffffffffffffffffffffffffffff161415620000ec57600080fd5b43811015620000fa57600080fd5b886000806101000a81548173ffffffffffffffffffffffffffffffffffffffff021916908373ffffffffffffffffffffffffffffffffffffffff160217905550876001908051906020019062000152929190620001e6565b5086600290805190602001906200016b9291906200026d565b508560038190555084600490805190602001906200018b929190620002bf565b50836005819055508260079080519060200190620001ab929190620001e6565b5060008211600860006101000a81548160ff0219169083151502179055508160098190555080600a81905550505050505050505050620003bc565b828054600181600116156101000203166002900490600052602060002090601f016020900481019282601f106200022957805160ff19168380011785556200025a565b828001600101855582156200025a579182015b82811115620002595782518255916020019190600101906200023c565b5b5090506200026991906200034e565b5090565b828054828255906000526020600020908101928215620002ac579160200282015b82811115620002ab5782518255916020019190600101906200028e565b5b509050620002bb91906200034e565b5090565b8280548282559060005260206000209081019282156200033b579160200282015b828111156200033a5782518260006101000a81548173ffffffffffffffffffffffffffffffffffffffff021916908373ffffffffffffffffffffffffffffffffffffffff16021790555091602001919060010190620002e0565b5b5090506200034a919062000376565b5090565b6200037391905b808211156200036f57600081600090555060010162000355565b5090565b90565b620003b991905b80821115620003b557600081816101000a81549073ffffffffffffffffffffffffffffffffffffffff0219169055506001016200037d565b5090565b90565b610c8880620003cc6000396000f3006060604052600436106100e6576000357c0100000000000000000000000000000000000000000000000000000000900463ffffffff16806303695caf146100eb578063282d7a3f1461014e5780634e6f306514610185578063633883e0146102135780636cc866e81461023c5780636da4989f146102b157806383863231146102da5780638da5cb5b14610303578063c2bda64914610358578063c46d4ce414610407578063c604da2514610495578063dc7f483f146104be578063e5c03c67146104eb578063ee0c295e14610555578063f39376d3146105e3578063f87c95571461064d575b600080fd5b34156100f657600080fd5b61010c6004808035906020019091905050610684565b604051808273ffffffffffffffffffffffffffffffffffffffff1673ffffffffffffffffffffffffffffffffffffffff16815260200191505060405180910390f35b341561015957600080fd5b61016f60048080359060200190919050506106c3565b6040518082815260200191505060405180910390f35b341561019057600080fd5b6101986106e7565b6040518080602001828103825283818151815260200191508051906020019080838360005b838110156101d85780820151818401526020810190506101bd565b50505050905090810190601f1680156102055780820380516001836020036101000a031916815260200191505b509250505060405180910390f35b341561021e57600080fd5b610226610785565b6040518082815260200191505060405180910390f35b341561024757600080fd5b610297600480803590602001908201803590602001908080601f0160208091040260200160405190810160405280939291908181526020018383808284378201915050505050509190505061078b565b604051808215151515815260200191505060405180910390f35b34156102bc57600080fd5b6102c46107ff565b6040518082815260200191505060405180910390f35b34156102e557600080fd5b6102ed610805565b6040518082815260200191505060405180910390f35b341561030e57600080fd5b61031661080b565b604051808273ffffffffffffffffffffffffffffffffffffffff1673ffffffffffffffffffffffffffffffffffffffff16815260200191505060405180910390f35b341561036357600080fd5b6103b0600480803590602001908201803590602001908080602002602001604051908101604052809392919081815260200183836020028082843782019150505050505091905050610830565b6040518080602001828103825283818151815260200191508051906020019060200280838360005b838110156103f35780820151818401526020810190506103d8565b505050509050019250505060405180910390f35b341561041257600080fd5b61041a610957565b6040518080602001828103825283818151815260200191508051906020019080838360005b8381101561045a57808201518184015260208101905061043f565b50505050905090810190601f1680156104875780820380516001836020036101000a031916815260200191505b509250505060405180910390f35b34156104a057600080fd5b6104a86109f5565b6040518082815260200191505060405180910390f35b34156104c957600080fd5b6104d16109fb565b604051808215151515815260200191505060405180910390f35b34156104f657600080fd5b6104fe610a0e565b6040518080602001828103825283818151815260200191508051906020019060200280838360005b83811015610541578082015181840152602081019050610526565b505050509050019250505060405180910390f35b341561056057600080fd5b610568610aa2565b6040518080602001828103825283818151815260200191508051906020019080838360005b838110156105a857808201518184015260208101905061058d565b50505050905090810190601f1680156105d55780820380516001836020036101000a031916815260200191505b509250505060405180910390f35b34156105ee57600080fd5b6105f6610b40565b6040518080602001828103825283818151815260200191508051906020019060200280838360005b8381101561063957808201518184015260208101905061061e565b505050509050019250505060405180910390f35b341561065857600080fd5b61066e6004808035906020019091905050610b9e565b6040518082815260200191505060405180910390f35b60048181548110151561069357fe5b90600052602060002090016000915054906101000a900473ffffffffffffffffffffffffffffffffffffffff1681565b6002818154811015156106d257fe5b90600052602060002090016000915090505481565b60068054600181600116156101000203166002900480601f01602080910402602001604051908101604052809291908181526020018280546001816001161561010002031660029004801561077d5780601f106107525761010080835404028352916020019161077d565b820191906000526020600020905b81548152906001019060200180831161076057829003601f168201915b505050505081565b60055481565b60008060009054906101000a900473ffffffffffffffffffffffffffffffffffffffff1673ffffffffffffffffffffffffffffffffffffffff163373ffffffffffffffffffffffffffffffffffffffff1614156107e757600080fd5b600a544311156107f657600080fd5b60019050919050565b600a5481565b60035481565b6000809054906101000a900473ffffffffffffffffffffffffffffffffffffffff1681565b610838610bc2565b600080600b60006108499190610bd6565b600091505b6002805490508210156108fd57600090505b83518210156108f05760028281548110151561087857fe5b906000526020600020900154848281518110151561089257fe5b9060200190602002015114156108e357600b80548060010182816108b69190610bf7565b9160005260206000209001600086848151811015156108d157fe5b90602001906020020151909190915055505b8080600101915050610860565b818060010192505061084e565b600b80548060200260200160405190810160405280929190818152602001828054801561094957602002820191906000526020600020905b815481526020019060010190808311610935575b505050505092505050919050565b60018054600181600116156101000203166002900480601f0160208091040260200160405190810160405280929190818152602001828054600181600116156101000203166002900480156109ed5780601f106109c2576101008083540402835291602001916109ed565b820191906000526020600020905b8154815290600101906020018083116109d057829003601f168201915b505050505081565b60095481565b600860009054906101000a900460ff1681565b610a16610c23565b6004805480602002602001604051908101604052809291908181526020018280548015610a9857602002820191906000526020600020905b8160009054906101000a900473ffffffffffffffffffffffffffffffffffffffff1673ffffffffffffffffffffffffffffffffffffffff1681526020019060010190808311610a4e575b5050505050905090565b60078054600181600116156101000203166002900480601f016020809104026020016040519081016040528092919081815260200182805460018160011615610100020316600290048015610b385780601f10610b0d57610100808354040283529160200191610b38565b820191906000526020600020905b815481529060010190602001808311610b1b57829003601f168201915b505050505081565b610b48610bc2565b6002805480602002602001604051908101604052809291908181526020018280548015610b9457602002820191906000526020600020905b815481526020019060010190808311610b80575b5050505050905090565b600b81815481101515610bad57fe5b90600052602060002090016000915090505481565b602060405190810160405280600081525090565b5080546000825590600052602060002090810190610bf49190610c37565b50565b815481835581811511610c1e57818360005260206000209182019101610c1d9190610c37565b5b505050565b602060405190810160405280600081525090565b610c5991905b80821115610c55576000816000905550600101610c3d565b5090565b905600a165627a7a723058207ae613c8b20a7599329c00b7f8d985a4d7a6a1a7b86edc91fc3c14250f4f40270029a165627a7a72305820dbb453095aa2832ee7efb9e7527be21a8de833c0a4294c23dd91782f607b660c0029",
  "source": "pragma solidity ^0.4.21;\r\n\r\nimport { SmartCoupon } from './SmartCoupon.sol';\r\n\r\ncontract SmartCouponFactory {\r\n  address[] public smartCouponContracts; // Stores all instances of the Smart Coupon Contract\r\n\r\n  event SmartCouponCreated(address smartCouponContract, address owner, uint numSmartCoupon, address[] allSmartCouponContracts);\r\n\r\n  function SmartCouponFactory() public {\r\n    // Empty constructor\r\n  }\r\n\r\n  function createSmartCoupon(\r\n    string _promotionName,\r\n    uint[] _couponQualifyingProductSKUs,\r\n    uint _couponPercentDiscount,\r\n    address[] _couponQualifyingCurrencies,\r\n    uint _couponQualifyingSpend,\r\n    string _couponReusePolicy,\r\n    uint _couponPromoterFee,\r\n    uint _couponExpiryBlock\r\n    ) public {\r\n      SmartCoupon newSmartCoupon = new SmartCoupon(\r\n        msg.sender,\r\n        _promotionName,\r\n        _couponQualifyingProductSKUs,\r\n        _couponPercentDiscount,\r\n        _couponQualifyingCurrencies,\r\n        _couponQualifyingSpend,\r\n        _couponReusePolicy,\r\n        _couponPromoterFee,\r\n        _couponExpiryBlock);\r\n\r\n      smartCouponContracts.push(newSmartCoupon);\r\n\r\n      emit SmartCouponCreated(newSmartCoupon, msg.sender, smartCouponContracts.length, smartCouponContracts);\r\n  }\r\n\r\n  function allSmartCouponContracts() public constant returns (address[]) {\r\n      return smartCouponContracts;\r\n  }\r\n\r\n}\r\n",
  "sourcePath": "C:\\Users\\john.durrant\\EE-Prototype\\blockchain-prototypes-framework\\contracts\\promotions\\SmartCouponFactory.sol",
  "compiler": {
    "name": "solc",
    "version": "0.4.21+commit.dfe3193c.Emscripten.clang"
  },
  "schemaVersion": "2.0.0",
  "updatedAt": "2018-06-06T16:31:38.941Z"
}