{
  "contractName": "SmartCouponFactory",
  "abi": [
    {
      "constant": true,
      "inputs": [
        {
          "name": "",
          "type": "uint256"
        }
      ],
      "name": "smartCouponContracts",
      "outputs": [
        {
          "name": "",
          "type": "address"
        }
      ],
      "payable": false,
      "stateMutability": "view",
      "type": "function"
    },
    {
      "inputs": [],
      "payable": false,
      "stateMutability": "nonpayable",
      "type": "constructor"
    },
    {
      "anonymous": false,
      "inputs": [
        {
          "indexed": false,
          "name": "smartCouponContract",
          "type": "address"
        },
        {
          "indexed": false,
          "name": "owner",
          "type": "address"
        },
        {
          "indexed": false,
          "name": "numSmartCoupon",
          "type": "uint256"
        },
        {
          "indexed": false,
          "name": "allSmartCouponContracts",
          "type": "address[]"
        }
      ],
      "name": "SmartCouponCreated",
      "type": "event"
    },
    {
      "constant": false,
      "inputs": [
        {
          "name": "_promotionName",
          "type": "string"
        },
        {
          "name": "_couponQualifyingProductSKUs",
          "type": "uint256[]"
        },
        {
          "name": "_couponFixedDiscount",
          "type": "uint256"
        },
        {
          "name": "_couponPercentDiscount",
          "type": "uint256"
        },
        {
          "name": "_couponQualifyingSpend",
          "type": "uint256"
        },
        {
          "name": "_couponDiscountType",
          "type": "string"
        },
        {
          "name": "_couponReusePolicy",
          "type": "string"
        },
        {
          "name": "_couponPromotersAllowed",
          "type": "bool"
        },
        {
          "name": "_couponPromoterFee",
          "type": "uint256"
        },
        {
          "name": "_couponExpiryBlock",
          "type": "uint256"
        }
      ],
      "name": "createSmartCoupon",
      "outputs": [],
      "payable": false,
      "stateMutability": "nonpayable",
      "type": "function"
    },
    {
      "constant": true,
      "inputs": [],
      "name": "allSmartCouponContracts",
      "outputs": [
        {
          "name": "",
          "type": "address[]"
        }
      ],
      "payable": false,
      "stateMutability": "view",
      "type": "function"
    }
  ],
  "bytecode": "0x608060405234801561001057600080fd5b50611094806100206000396000f300608060405260043610610057576000357c0100000000000000000000000000000000000000000000000000000000900463ffffffff168063405cdbf21461005c57806377e22169146100c8578063e0d51dd514610135575b600080fd5b34801561006857600080fd5b506100716102ab565b6040518080602001828103825283818151815260200191508051906020019060200280838360005b838110156100b4578082015181840152602081019050610099565b505050509050019250505060405180910390f35b3480156100d457600080fd5b506100f360048036038101908080359060200190929190505050610339565b604051808273ffffffffffffffffffffffffffffffffffffffff1673ffffffffffffffffffffffffffffffffffffffff16815260200191505060405180910390f35b34801561014157600080fd5b506102a9600480360381019080803590602001908201803590602001908080601f016020809104026020016040519081016040528093929190818152602001838380828437820191505050505050919291929080359060200190820180359060200190808060200260200160405190810160405280939291908181526020018383602002808284378201915050505050509192919290803590602001909291908035906020019092919080359060200190929190803590602001908201803590602001908080601f0160208091040260200160405190810160405280939291908181526020018383808284378201915050505050509192919290803590602001908201803590602001908080601f01602080910402602001604051908101604052809392919081815260200183838082843782019150505050505091929192908035151590602001909291908035906020019092919080359060200190929190505050610377565b005b6060600080548060200260200160405190810160405280929190818152602001828054801561032f57602002820191906000526020600020905b8160009054906101000a900473ffffffffffffffffffffffffffffffffffffffff1673ffffffffffffffffffffffffffffffffffffffff16815260200190600101908083116102e5575b5050505050905090565b60008181548110151561034857fe5b906000526020600020016000915054906101000a900473ffffffffffffffffffffffffffffffffffffffff1681565b6000338b8b8b8b8b8b8b8b8b8b61038c61072f565b808c73ffffffffffffffffffffffffffffffffffffffff1673ffffffffffffffffffffffffffffffffffffffff16815260200180602001806020018b81526020018a815260200189815260200180602001806020018815151515815260200187815260200186815260200185810385528f818151815260200191508051906020019080838360005b8381101561042f578082015181840152602081019050610414565b50505050905090810190601f16801561045c5780820380516001836020036101000a031916815260200191505b5085810384528e818151815260200191508051906020019060200280838360005b8381101561049857808201518184015260208101905061047d565b5050505090500185810383528a818151815260200191508051906020019080838360005b838110156104d75780820151818401526020810190506104bc565b50505050905090810190601f1680156105045780820380516001836020036101000a031916815260200191505b50858103825289818151815260200191508051906020019080838360005b8381101561053d578082015181840152602081019050610522565b50505050905090810190601f16801561056a5780820380516001836020036101000a031916815260200191505b509f50505050505050505050505050505050604051809103906000f080158015610598573d6000803e3d6000fd5b50905060008190806001815401808255809150509060018203906000526020600020016000909192909190916101000a81548173ffffffffffffffffffffffffffffffffffffffff021916908373ffffffffffffffffffffffffffffffffffffffff160217905550507ff09d5d59723b3e96ac02ffb340993b77973d1b2b0bb2a845e29324532d7fcd8a81336000805490506000604051808573ffffffffffffffffffffffffffffffffffffffff1673ffffffffffffffffffffffffffffffffffffffff1681526020018473ffffffffffffffffffffffffffffffffffffffff1673ffffffffffffffffffffffffffffffffffffffff16815260200183815260200180602001828103825283818154815260200191508054801561071157602002820191906000526020600020905b8160009054906101000a900473ffffffffffffffffffffffffffffffffffffffff1673ffffffffffffffffffffffffffffffffffffffff16815260200190600101908083116106c7575b50509550505050505060405180910390a15050505050505050505050565b60405161092980610740833901905600608060405234801561001057600080fd5b50604051610929380380610929833981018060405281019080805190602001909291908051820192919060200180518201929190602001805190602001909291908051906020019092919080519060200190929190805182019291906020018051820192919060200180519060200190929190805190602001909291908051906020019092919050505060008b73ffffffffffffffffffffffffffffffffffffffff1614156100be57600080fd5b8a6000806101000a81548173ffffffffffffffffffffffffffffffffffffffff021916908373ffffffffffffffffffffffffffffffffffffffff16021790555089600190805190602001906101149291906101a7565b50886002908051906020019061012b929190610227565b5087600381905550866004819055508560058190555084600690805190602001906101579291906101a7565b50836007908051906020019061016e9291906101a7565b5082600860006101000a81548160ff0219169083151502179055508160098190555080600a819055505050505050505050505050610299565b828054600181600116156101000203166002900490600052602060002090601f016020900481019282601f106101e857805160ff1916838001178555610216565b82800160010185558215610216579182015b828111156102155782518255916020019190600101906101fa565b5b5090506102239190610274565b5090565b828054828255906000526020600020908101928215610263579160200282015b82811115610262578251825591602001919060010190610247565b5b5090506102709190610274565b5090565b61029691905b8082111561029257600081600090555060010161027a565b5090565b90565b610681806102a86000396000f3006080604052600436106100af576000357c0100000000000000000000000000000000000000000000000000000000900463ffffffff168063282d7a3f146100b457806342814a9e146100f55780634e6f306514610120578063633883e0146101b05780636da4989f146101db57806383863231146102065780638da5cb5b14610231578063c46d4ce414610288578063c604da2514610318578063dc7f483f14610343578063ee0c295e14610372575b600080fd5b3480156100c057600080fd5b506100df60048036038101908080359060200190929190505050610402565b6040518082815260200191505060405180910390f35b34801561010157600080fd5b5061010a610425565b6040518082815260200191505060405180910390f35b34801561012c57600080fd5b5061013561042b565b6040518080602001828103825283818151815260200191508051906020019080838360005b8381101561017557808201518184015260208101905061015a565b50505050905090810190601f1680156101a25780820380516001836020036101000a031916815260200191505b509250505060405180910390f35b3480156101bc57600080fd5b506101c56104c9565b6040518082815260200191505060405180910390f35b3480156101e757600080fd5b506101f06104cf565b6040518082815260200191505060405180910390f35b34801561021257600080fd5b5061021b6104d5565b6040518082815260200191505060405180910390f35b34801561023d57600080fd5b506102466104db565b604051808273ffffffffffffffffffffffffffffffffffffffff1673ffffffffffffffffffffffffffffffffffffffff16815260200191505060405180910390f35b34801561029457600080fd5b5061029d610500565b6040518080602001828103825283818151815260200191508051906020019080838360005b838110156102dd5780820151818401526020810190506102c2565b50505050905090810190601f16801561030a5780820380516001836020036101000a031916815260200191505b509250505060405180910390f35b34801561032457600080fd5b5061032d61059e565b6040518082815260200191505060405180910390f35b34801561034f57600080fd5b506103586105a4565b604051808215151515815260200191505060405180910390f35b34801561037e57600080fd5b506103876105b7565b6040518080602001828103825283818151815260200191508051906020019080838360005b838110156103c75780820151818401526020810190506103ac565b50505050905090810190601f1680156103f45780820380516001836020036101000a031916815260200191505b509250505060405180910390f35b60028181548110151561041157fe5b906000526020600020016000915090505481565b60035481565b60068054600181600116156101000203166002900480601f0160208091040260200160405190810160405280929190818152602001828054600181600116156101000203166002900480156104c15780601f10610496576101008083540402835291602001916104c1565b820191906000526020600020905b8154815290600101906020018083116104a457829003601f168201915b505050505081565b60055481565b600a5481565b60045481565b6000809054906101000a900473ffffffffffffffffffffffffffffffffffffffff1681565b60018054600181600116156101000203166002900480601f0160208091040260200160405190810160405280929190818152602001828054600181600116156101000203166002900480156105965780601f1061056b57610100808354040283529160200191610596565b820191906000526020600020905b81548152906001019060200180831161057957829003601f168201915b505050505081565b60095481565b600860009054906101000a900460ff1681565b60078054600181600116156101000203166002900480601f01602080910402602001604051908101604052809291908181526020018280546001816001161561010002031660029004801561064d5780601f106106225761010080835404028352916020019161064d565b820191906000526020600020905b81548152906001019060200180831161063057829003601f168201915b5050505050815600a165627a7a72305820ac25787f1240f99de366ccbe8ba2b4a3918f6b3821a3886771cec7ff250cfa6f0029a165627a7a72305820e021c6124195e2a152de1afaaa8c9a7402cac4b7d14462626c682b231ec7c6bd0029",
  "source": "pragma solidity ^0.4.21;\r\n\r\nimport { SmartCoupon } from './SmartCoupon.sol';\r\n\r\ncontract SmartCouponFactory {\r\n  address[] public smartCouponContracts; // Stores all instances of the Smart Coupon Contract\r\n\r\n  event SmartCouponCreated(address smartCouponContract, address owner, uint numSmartCoupon, address[] allSmartCouponContracts);\r\n\r\n  function SmartCouponFactory() public {\r\n    // Empty constructor\r\n  }\r\n\r\n  function createSmartCoupon(\r\n    string _promotionName,\r\n    uint[] _couponQualifyingProductSKUs,\r\n    uint _couponFixedDiscount,\r\n    uint _couponPercentDiscount,\r\n    uint _couponQualifyingSpend,\r\n    string _couponDiscountType,\r\n    string _couponReusePolicy,\r\n    bool _couponPromotersAllowed,\r\n    uint _couponPromoterFee,\r\n    uint _couponExpiryBlock\r\n    ) public {\r\n      SmartCoupon newSmartCoupon = new SmartCoupon(\r\n        msg.sender,\r\n        _promotionName,\r\n        _couponQualifyingProductSKUs,\r\n        _couponFixedDiscount,\r\n        _couponPercentDiscount,\r\n        _couponQualifyingSpend,\r\n        _couponDiscountType,\r\n        _couponReusePolicy,\r\n        _couponPromotersAllowed,\r\n        _couponPromoterFee,\r\n        _couponExpiryBlock);\r\n\r\n      smartCouponContracts.push(newSmartCoupon);\r\n\r\n      emit SmartCouponCreated(newSmartCoupon, msg.sender, smartCouponContracts.length, smartCouponContracts);\r\n  }\r\n\r\n  function allSmartCouponContracts() public constant returns (address[]) {\r\n      return smartCouponContracts;\r\n  }\r\n\r\n}\r\n",
  "sourcePath": "C:\\Users\\John\\EE-Proto\\blockchain-prototypes-framework\\contracts\\promotions\\SmartCouponFactory.sol",
  "compiler": {
    "name": "solc",
    "version": "0.4.23+commit.124ca40d.Emscripten.clang"
  },
  "schemaVersion": "2.0.0",
  "updatedAt": "2018-05-31T17:08:01.578Z"
}