{
  "contractName": "SmartCoupon",
  "abi": [
    {
      "constant": true,
      "inputs": [
        {
          "name": "",
          "type": "uint256"
        }
      ],
      "name": "couponQualifyingCurrencies",
      "outputs": [
        {
          "name": "",
          "type": "address"
        }
      ],
      "payable": false,
      "stateMutability": "view",
      "type": "function"
    },
    {
      "constant": true,
      "inputs": [
        {
          "name": "",
          "type": "uint256"
        }
      ],
      "name": "couponQualifyingProductSKUs",
      "outputs": [
        {
          "name": "",
          "type": "uint256"
        }
      ],
      "payable": false,
      "stateMutability": "view",
      "type": "function"
    },
    {
      "constant": true,
      "inputs": [],
      "name": "couponDiscountType",
      "outputs": [
        {
          "name": "",
          "type": "string"
        }
      ],
      "payable": false,
      "stateMutability": "view",
      "type": "function"
    },
    {
      "constant": true,
      "inputs": [],
      "name": "couponQualifyingSpend",
      "outputs": [
        {
          "name": "",
          "type": "uint256"
        }
      ],
      "payable": false,
      "stateMutability": "view",
      "type": "function"
    },
    {
      "constant": true,
      "inputs": [],
      "name": "couponExpiryBlock",
      "outputs": [
        {
          "name": "",
          "type": "uint256"
        }
      ],
      "payable": false,
      "stateMutability": "view",
      "type": "function"
    },
    {
      "constant": true,
      "inputs": [],
      "name": "couponPercentDiscount",
      "outputs": [
        {
          "name": "",
          "type": "uint256"
        }
      ],
      "payable": false,
      "stateMutability": "view",
      "type": "function"
    },
    {
      "constant": true,
      "inputs": [],
      "name": "owner",
      "outputs": [
        {
          "name": "",
          "type": "address"
        }
      ],
      "payable": false,
      "stateMutability": "view",
      "type": "function"
    },
    {
      "constant": true,
      "inputs": [],
      "name": "promotionName",
      "outputs": [
        {
          "name": "",
          "type": "string"
        }
      ],
      "payable": false,
      "stateMutability": "view",
      "type": "function"
    },
    {
      "constant": true,
      "inputs": [],
      "name": "couponPromoterFee",
      "outputs": [
        {
          "name": "",
          "type": "uint256"
        }
      ],
      "payable": false,
      "stateMutability": "view",
      "type": "function"
    },
    {
      "constant": true,
      "inputs": [],
      "name": "couponPromotersAllowed",
      "outputs": [
        {
          "name": "",
          "type": "bool"
        }
      ],
      "payable": false,
      "stateMutability": "view",
      "type": "function"
    },
    {
      "constant": true,
      "inputs": [],
      "name": "couponReusePolicy",
      "outputs": [
        {
          "name": "",
          "type": "string"
        }
      ],
      "payable": false,
      "stateMutability": "view",
      "type": "function"
    },
    {
      "constant": true,
      "inputs": [
        {
          "name": "",
          "type": "uint256"
        }
      ],
      "name": "matched",
      "outputs": [
        {
          "name": "",
          "type": "uint256"
        }
      ],
      "payable": false,
      "stateMutability": "view",
      "type": "function"
    },
    {
      "inputs": [
        {
          "name": "_owner",
          "type": "address"
        },
        {
          "name": "_promotionName",
          "type": "string"
        },
        {
          "name": "_couponQualifyingProductSKUs",
          "type": "uint256[]"
        },
        {
          "name": "_couponPercentDiscount",
          "type": "uint256"
        },
        {
          "name": "_couponQualifyingCurrencies",
          "type": "address[]"
        },
        {
          "name": "_couponQualifyingSpend",
          "type": "uint256"
        },
        {
          "name": "_couponReusePolicy",
          "type": "string"
        },
        {
          "name": "_couponPromoterFee",
          "type": "uint256"
        },
        {
          "name": "_couponExpiryBlock",
          "type": "uint256"
        }
      ],
      "payable": false,
      "stateMutability": "nonpayable",
      "type": "constructor"
    },
    {
      "constant": true,
      "inputs": [],
      "name": "getAllCouponQualifyingProductSKUs",
      "outputs": [
        {
          "name": "",
          "type": "uint256[]"
        }
      ],
      "payable": false,
      "stateMutability": "view",
      "type": "function"
    },
    {
      "constant": true,
      "inputs": [],
      "name": "getAllCouponQualifyingCurrencies",
      "outputs": [
        {
          "name": "",
          "type": "address[]"
        }
      ],
      "payable": false,
      "stateMutability": "view",
      "type": "function"
    },
    {
      "constant": false,
      "inputs": [
        {
          "name": "_productSKUs",
          "type": "uint256[]"
        }
      ],
      "name": "checkQualifyingProducts",
      "outputs": [
        {
          "name": "",
          "type": "uint256[]"
        }
      ],
      "payable": false,
      "stateMutability": "nonpayable",
      "type": "function"
    },
    {
      "constant": false,
      "inputs": [
        {
          "name": "_transactionRef",
          "type": "string"
        }
      ],
      "name": "redeemCoupon",
      "outputs": [
        {
          "name": "",
          "type": "bool"
        }
      ],
      "payable": false,
      "stateMutability": "nonpayable",
      "type": "function"
    }
  ],
  "bytecode": "0x60606040526040805190810160405280600f81526020017f70657263656e74446973636f756e7400000000000000000000000000000000008152506006908051906020019062000051929190620001e6565b5034156200005e57600080fd5b60405162001054380380620010548339810160405280805190602001909190805182019190602001805182019190602001805190602001909190805182019190602001805190602001909190805182019190602001805190602001909190805190602001909190505060008973ffffffffffffffffffffffffffffffffffffffff161415620000ec57600080fd5b43811015620000fa57600080fd5b886000806101000a81548173ffffffffffffffffffffffffffffffffffffffff021916908373ffffffffffffffffffffffffffffffffffffffff160217905550876001908051906020019062000152929190620001e6565b5086600290805190602001906200016b9291906200026d565b508560038190555084600490805190602001906200018b929190620002bf565b50836005819055508260079080519060200190620001ab929190620001e6565b5060008211600860006101000a81548160ff0219169083151502179055508160098190555080600a81905550505050505050505050620003bc565b828054600181600116156101000203166002900490600052602060002090601f016020900481019282601f106200022957805160ff19168380011785556200025a565b828001600101855582156200025a579182015b82811115620002595782518255916020019190600101906200023c565b5b5090506200026991906200034e565b5090565b828054828255906000526020600020908101928215620002ac579160200282015b82811115620002ab5782518255916020019190600101906200028e565b5b509050620002bb91906200034e565b5090565b8280548282559060005260206000209081019282156200033b579160200282015b828111156200033a5782518260006101000a81548173ffffffffffffffffffffffffffffffffffffffff021916908373ffffffffffffffffffffffffffffffffffffffff16021790555091602001919060010190620002e0565b5b5090506200034a919062000376565b5090565b6200037391905b808211156200036f57600081600090555060010162000355565b5090565b90565b620003b991905b80821115620003b557600081816101000a81549073ffffffffffffffffffffffffffffffffffffffff0219169055506001016200037d565b5090565b90565b610c8880620003cc6000396000f3006060604052600436106100e6576000357c0100000000000000000000000000000000000000000000000000000000900463ffffffff16806303695caf146100eb578063282d7a3f1461014e5780634e6f306514610185578063633883e0146102135780636cc866e81461023c5780636da4989f146102b157806383863231146102da5780638da5cb5b14610303578063c2bda64914610358578063c46d4ce414610407578063c604da2514610495578063dc7f483f146104be578063e5c03c67146104eb578063ee0c295e14610555578063f39376d3146105e3578063f87c95571461064d575b600080fd5b34156100f657600080fd5b61010c6004808035906020019091905050610684565b604051808273ffffffffffffffffffffffffffffffffffffffff1673ffffffffffffffffffffffffffffffffffffffff16815260200191505060405180910390f35b341561015957600080fd5b61016f60048080359060200190919050506106c3565b6040518082815260200191505060405180910390f35b341561019057600080fd5b6101986106e7565b6040518080602001828103825283818151815260200191508051906020019080838360005b838110156101d85780820151818401526020810190506101bd565b50505050905090810190601f1680156102055780820380516001836020036101000a031916815260200191505b509250505060405180910390f35b341561021e57600080fd5b610226610785565b6040518082815260200191505060405180910390f35b341561024757600080fd5b610297600480803590602001908201803590602001908080601f0160208091040260200160405190810160405280939291908181526020018383808284378201915050505050509190505061078b565b604051808215151515815260200191505060405180910390f35b34156102bc57600080fd5b6102c46107ff565b6040518082815260200191505060405180910390f35b34156102e557600080fd5b6102ed610805565b6040518082815260200191505060405180910390f35b341561030e57600080fd5b61031661080b565b604051808273ffffffffffffffffffffffffffffffffffffffff1673ffffffffffffffffffffffffffffffffffffffff16815260200191505060405180910390f35b341561036357600080fd5b6103b0600480803590602001908201803590602001908080602002602001604051908101604052809392919081815260200183836020028082843782019150505050505091905050610830565b6040518080602001828103825283818151815260200191508051906020019060200280838360005b838110156103f35780820151818401526020810190506103d8565b505050509050019250505060405180910390f35b341561041257600080fd5b61041a610957565b6040518080602001828103825283818151815260200191508051906020019080838360005b8381101561045a57808201518184015260208101905061043f565b50505050905090810190601f1680156104875780820380516001836020036101000a031916815260200191505b509250505060405180910390f35b34156104a057600080fd5b6104a86109f5565b6040518082815260200191505060405180910390f35b34156104c957600080fd5b6104d16109fb565b604051808215151515815260200191505060405180910390f35b34156104f657600080fd5b6104fe610a0e565b6040518080602001828103825283818151815260200191508051906020019060200280838360005b83811015610541578082015181840152602081019050610526565b505050509050019250505060405180910390f35b341561056057600080fd5b610568610aa2565b6040518080602001828103825283818151815260200191508051906020019080838360005b838110156105a857808201518184015260208101905061058d565b50505050905090810190601f1680156105d55780820380516001836020036101000a031916815260200191505b509250505060405180910390f35b34156105ee57600080fd5b6105f6610b40565b6040518080602001828103825283818151815260200191508051906020019060200280838360005b8381101561063957808201518184015260208101905061061e565b505050509050019250505060405180910390f35b341561065857600080fd5b61066e6004808035906020019091905050610b9e565b6040518082815260200191505060405180910390f35b60048181548110151561069357fe5b90600052602060002090016000915054906101000a900473ffffffffffffffffffffffffffffffffffffffff1681565b6002818154811015156106d257fe5b90600052602060002090016000915090505481565b60068054600181600116156101000203166002900480601f01602080910402602001604051908101604052809291908181526020018280546001816001161561010002031660029004801561077d5780601f106107525761010080835404028352916020019161077d565b820191906000526020600020905b81548152906001019060200180831161076057829003601f168201915b505050505081565b60055481565b60008060009054906101000a900473ffffffffffffffffffffffffffffffffffffffff1673ffffffffffffffffffffffffffffffffffffffff163373ffffffffffffffffffffffffffffffffffffffff1614156107e757600080fd5b600a544311156107f657600080fd5b60019050919050565b600a5481565b60035481565b6000809054906101000a900473ffffffffffffffffffffffffffffffffffffffff1681565b610838610bc2565b600080600b60006108499190610bd6565b600091505b6002805490508210156108fd57600090505b83518210156108f05760028281548110151561087857fe5b906000526020600020900154848281518110151561089257fe5b9060200190602002015114156108e357600b80548060010182816108b69190610bf7565b9160005260206000209001600086848151811015156108d157fe5b90602001906020020151909190915055505b8080600101915050610860565b818060010192505061084e565b600b80548060200260200160405190810160405280929190818152602001828054801561094957602002820191906000526020600020905b815481526020019060010190808311610935575b505050505092505050919050565b60018054600181600116156101000203166002900480601f0160208091040260200160405190810160405280929190818152602001828054600181600116156101000203166002900480156109ed5780601f106109c2576101008083540402835291602001916109ed565b820191906000526020600020905b8154815290600101906020018083116109d057829003601f168201915b505050505081565b60095481565b600860009054906101000a900460ff1681565b610a16610c23565b6004805480602002602001604051908101604052809291908181526020018280548015610a9857602002820191906000526020600020905b8160009054906101000a900473ffffffffffffffffffffffffffffffffffffffff1673ffffffffffffffffffffffffffffffffffffffff1681526020019060010190808311610a4e575b5050505050905090565b60078054600181600116156101000203166002900480601f016020809104026020016040519081016040528092919081815260200182805460018160011615610100020316600290048015610b385780601f10610b0d57610100808354040283529160200191610b38565b820191906000526020600020905b815481529060010190602001808311610b1b57829003601f168201915b505050505081565b610b48610bc2565b6002805480602002602001604051908101604052809291908181526020018280548015610b9457602002820191906000526020600020905b815481526020019060010190808311610b80575b5050505050905090565b600b81815481101515610bad57fe5b90600052602060002090016000915090505481565b602060405190810160405280600081525090565b5080546000825590600052602060002090810190610bf49190610c37565b50565b815481835581811511610c1e57818360005260206000209182019101610c1d9190610c37565b5b505050565b602060405190810160405280600081525090565b610c5991905b80821115610c55576000816000905550600101610c3d565b5090565b905600a165627a7a723058207ae613c8b20a7599329c00b7f8d985a4d7a6a1a7b86edc91fc3c14250f4f40270029",
  "source": "pragma solidity ^0.4.21;\r\n\r\ncontract SmartCoupon {\r\n\r\n  // static\r\n  address public owner;\r\n  string public promotionName;\r\n  uint[] public couponQualifyingProductSKUs;\r\n  uint public couponPercentDiscount;\r\n  address[] public couponQualifyingCurrencies; // addresses of the Currencies\r\n  uint public couponQualifyingSpend;\r\n  string public couponDiscountType = 'percentDiscount';\r\n  string public couponReusePolicy; // perhaps this should be enum 'single' / 'multi'\r\n  bool public couponPromotersAllowed;\r\n  uint public couponPromoterFee; // percentage for promoter\r\n  uint public couponExpiryBlock;\r\n\r\n  // states\r\n  uint[] public matched;\r\n  /* transactionRefs - store a list of addresses which have used this coupon.\r\n    If the coupon is single use then only allow one transaction on this\r\n  */\r\n\r\n  /* promoter addresses - need a way of recognising that a coupon was supplied by\r\n    a given promoter and this promoter needs to be paid.  I think that we would be best creating one\r\n    coupon per promoter?  Need promoter in dropdown list. Otherwise we wouldn't know\r\n    where it came from.\r\n  */\r\n\r\n  function SmartCoupon (\r\n    address _owner,\r\n    string _promotionName,\r\n    uint[] _couponQualifyingProductSKUs,\r\n    uint _couponPercentDiscount,\r\n    address[] _couponQualifyingCurrencies,\r\n    uint _couponQualifyingSpend,\r\n    string _couponReusePolicy,\r\n    uint _couponPromoterFee,\r\n    uint _couponExpiryBlock\r\n    ) public {\r\n      if (_owner == 0) revert();\r\n      if (_couponExpiryBlock < block.number) revert();\r\n\r\n      owner = _owner;\r\n      promotionName = _promotionName;\r\n      couponQualifyingProductSKUs = _couponQualifyingProductSKUs;\r\n      couponPercentDiscount = _couponPercentDiscount;\r\n      couponQualifyingCurrencies = _couponQualifyingCurrencies;\r\n      couponQualifyingSpend = _couponQualifyingSpend;\r\n      couponReusePolicy = _couponReusePolicy;\r\n      couponPromotersAllowed = _couponPromoterFee > 0;\r\n      couponPromoterFee = _couponPromoterFee;\r\n      couponExpiryBlock = _couponExpiryBlock;\r\n  }\r\n\r\n  function getAllCouponQualifyingProductSKUs () public view returns (uint[]) {\r\n    return couponQualifyingProductSKUs;\r\n  }\r\n\r\n  function getAllCouponQualifyingCurrencies () public view returns (address[]) {\r\n    return couponQualifyingCurrencies;\r\n  }\r\n\r\n  function checkQualifyingProducts (uint[] _productSKUs) public returns (uint[]) {\r\n    // compare purchases against quilfying items and return a list of qualifiers\r\n    // doing nested array iterations like this may be a very bad idea, in solidity\r\n    // so this is purely for experimenting and learning. Maybe best to have this kind\r\n    // of logic off contract\r\n\r\n    delete matched; //reset matched\r\n    for (uint i = 0; i < couponQualifyingProductSKUs.length; i ++) {\r\n      for (uint n = 0; i < _productSKUs.length; n ++) {\r\n        if (_productSKUs[n] == couponQualifyingProductSKUs[i]) {\r\n          matched.push(_productSKUs[n]);\r\n        }\r\n      }\r\n    }\r\n    return matched;\r\n  }\r\n\r\n  function redeemCoupon (string _transactionRef) public onlyNotOwner onlyBeforeExpiry returns (bool) {\r\n    // obviously this is a placeholder\r\n    return true;\r\n  }\r\n\r\n  // modifiers\r\n  modifier onlyOwner {\r\n      if (msg.sender != owner) revert();\r\n      _;\r\n  }\r\n\r\n  modifier onlyNotOwner {\r\n      if (msg.sender == owner) revert();\r\n      _;\r\n  }\r\n\r\n  modifier onlyBeforeExpiry {\r\n      if (block.number > couponExpiryBlock) revert();\r\n      _;\r\n  }\r\n\r\n}\r\n",
  "sourcePath": "C:\\Users\\john.durrant\\EE-Prototype\\blockchain-prototypes-framework\\contracts\\promotions\\SmartCoupon.sol",
  "compiler": {
    "name": "solc",
    "version": "0.4.21+commit.dfe3193c.Emscripten.clang"
  },
  "schemaVersion": "2.0.0",
  "updatedAt": "2018-06-06T16:31:38.943Z"
}